:020000040800F2
:10000000B80B002035260008190300081B03000860
:100010003103000835030008390300080000000020
:100020000000000000000000000000003D03000888
:100030003F030008000000004103000843030008DC
:100040004F2600084F2600084F2600084F260008BC
:100050004F2600084F2600084F2600084F260008AC
:100060004F2600084F2600084F2600084F2600089C
:100070004F2600084F2600084F2600084F2600088C
:100080004F2600084F2600084F2600084F2600087C
:100090004F2600084F2600084F2600084F2600086C
:1000A0004F2600084F2600084F2600084F2600085C
:1000B0004F2600084F2600084F2600084F2600084C
:1000C0004F2600084F2600084F2600084F2600083C
:1000D0004F2600084F2600084F2600084F2600082C
:1000E0004F2600084F2600084F26000800F002F8AF
:1000F00000F03CF80AA090E8000C82448344AAF186
:100100000107DA4501D100F031F8AFF2090EBAE883
:100110000F0013F0010F18BFFB1A43F0010318473B
:10012000A42A0000C42A0000103A24BF78C878C16D
:10013000FAD8520724BF30C830C144BF04680C60ED
:10014000704700000023002400250026103A28BF35
:1001500078C1FBD8520728BF30C148BF0B60704739
:100160001FB5AFF300801FBD10B510BD02F0E1FB5D
:100170001146FFF7F5FF00F095F802F0FFFBFFF7DF
:10018000F3FF02F005FC0000EFF30980704780F3F5
:1001900009887047EFF30880704780F3088870473C
:1001A00040BA7047C0BA704708B5012144F2040054
:1001B00001F036FE4FF40070ADF8000018208DF805
:1001C000030001208DF8020069464B4801F0EAFE69
:1001D0004FF48060ADF8000004208DF803006946FC
:1001E000454801F0DFFE08BD1FB5FFF7DDFF4FF406
:1001F000E13000900020ADF80400ADF80600ADF845
:100200000800ADF80C000C20ADF80A0069463B4828
:1002100002F04FF80121394802F0D6F81FBD08B5A9
:100220000121082001F0FCFD48208DF803004FF467
:100230008050ADF800006946314801F0B3FE08BDBA
:1002400008B50121082001F0EBFD4FF44070ADF836
:10025000000010208DF8030003208DF8020069468D
:10026000274801F09FFE4FF44071254801F042FFFE
:1002700008BD08B54FF44051224801F04DF94FF444
:10028000C06001F011F925208DF8000000208DF8E4
:1002900001008DF8020001208DF80300684601F08E
:1002A00008F908BD10B501F08DF9FFF7E2FFFFF77F
:1002B000C7FFFFF7B4FFFFF797FF00BF124800F03A
:1002C0004AFD11484C3000F046FD0F48983000F0D0
:1002D00042FD0D48E43000F03EFD0C4800F03BFDCF
:1002E0000BA000F038FD00F022FE00BFFEE700E0AA
:1002F000401E0028FCD17047000801400038014032
:10030000000C014000300008A8290008D82A000885
:100310000D0A0D0A00000000704710B509A000F09A
:100320001AFD04E04FF440710A4801F0E5FEF9E7D8
:1003300000BFFEE700BFFEE700BFFEE77047704763
:10034000704770474552524F522121212121200AE6
:100350000D000000000C014010B500240DA000F0BD
:10036000FAFC00F012FD43280FD14FF4E83217A138
:100370001C4800F0D4FA04461CB11BA000F0EBFCB2
:1003800006E024A000F0E7FC02E02BA000F0E3FC74
:1003900010BD00000A0A0D53656C65637420526538
:1003A00063656976652046696C65202E2E2E2028AF
:1003B000707265737320616E79206B657920746F3C
:1003C0002061626F7274290A0D00000055706C6F15
:1003D00061646564466C617368496D6167652E622E
:1003E000696E0000003000080A0D4572726F7220BD
:1003F0004F636375726564207768696C6520547219
:10040000616E736D697474696E672046696C650A04
:100410000D0000000A0D46696C6520547261736D11
:100420006974746564205375636365737366756C72
:100430006C79200A0D0000000D0A0A41626F727487
:10044000656420627920757365722E0A0D000000C4
:1004500070B505460C4606E0284600F087FC0128EA
:1004600001D1002070BD2000A4F10104F4D1401E90
:10047000F8E710B50446204600F05FFC002010BDF0
:100480002DE9F84304460D46904600202860414679
:100490006846FFF7DDFF18B14FF0FF30BDE8F88385
:1004A0009DF80000182813D006DC012809D0022886
:1004B00009D0042820D109E041281AD061281BD195
:1004C00018E080271BE04FF4806718E00020E5E784
:1004D00041466846FFF7BCFF40B99DF80000182868
:1004E00004D14FF0FF3028600020D7E74FF0FF30F5
:1004F000D4E700BF0120D1E74FF0FF30CEE700BFC7
:100500009DF800002070012609E0A0194146FFF780
:100510009FFF10B14FF0FF30C0E7701C86B2781D0E
:100520008642F2DB6178A07880F0FF00814202D041
:100530004FF0FF30B2E72F600020AFE72DE9F04F1A
:10054000ADF22C4D044600200190FB48FB490860A9
:100550004FF000094FF0000B0020029000BF4FF059
:10056000000A00200390264600BF4FF4801204A921
:1005700009A8FFF785FF10B101287ED1D4E04FF024
:10058000000B0498B0F1FF3F01D070B907E00620DE
:10059000FFF76FFF00200DF22C4DBDE8F08F062015
:1005A000FFF767FF01200390BCE09DF825000AF0EB
:1005B000FF01884203D01520FFF75BFFB1E0BAF1DD
:1005C000000F6ED19DF82700002863D000270DF1A1
:1005D000270505E015F8012B38467F1CD8490A5439
:1005E000287808B1FF2FF5DD002238467F1CD4495A
:1005F0000A5400276D1C05E015F8012B38467F1CB6
:1006000005A90A542878202801D0102FF4DB0022F5
:1006100038467F1C05A90A5401A905A800F00CFB67
:100620000198B0F5003F08DB1820FFF722FF1820E3
:10063000FFF71FFF4FF0FF30ADE7019800F008FC17
:10064000C04908600020C049086010E0BB49096843
:10065000BE4A1288BC4B1B6802FB031000F0F8FF77
:10066000BB490870B8480068401CB7490860B648E4
:100670000068B4490968884200E05EE003D2B448EB
:1006800000780428E2D00620FFF7F3FE4320FFF7AE
:10069000F0FE42E00620FFF7ECFE012003908146C9
:1006A00040E00DF127013046049A02F0C7F8A9484E
:1006B00004604FF0000823E0A648006801689F48E6
:1006C000006801F095F89D4800680068A149096834
:1006D0000968884208D01820FFF7CBFE1820FFF7E2
:1006E000C8FE6FF0010056E794480068001D93496A
:1006F000086098480068001D9649086008F10408E1
:100700000498804506DA8C49019808448B490968A9
:100710008842D1D80620FFF7ACFE0AF1010A012079
:10072000029000BF00BF1CE01820FFF7A2FE1820B7
:10073000FFF79FFE6FF002002DE70298002801DD11
:100740000BF1010BBBF1050F07DD1820FFF791FE40
:100750001820FFF78EFE00201DE74320FFF789FEDB
:1007600000BF00BF039800283FF4FFAE00BF00BFEA
:10077000B9F1000F3FF4F3AE00BF00BF01980AE7E4
:100780000146002070472DE9FE4304460E461746F9
:100790000120207000206070FF20A070002504E080
:1007A000715DE81C2154681C85B2705D08B1FF2D95
:1007B000F6DD0021E81C21546846396800F012FA81
:1007C0004FF00008281D85B209E04046411C1FFA81
:1007D00081F81DF800202846691C8DB222541DF8AE
:1007E00008000028F1D1A84606E0002004F808001F
:1007F00008F101001FFA80F8B8F1830FF5DBBDE8BE
:10080000FE83F0B5B3F5806F02D34FF4806C01E046
:100810004FF0800C1FFA8CF4A34201D29C4600E0FA
:10082000A4461FFA8CF6B4F5806F04D14FF0020C89
:1008300081F800C003E04FF0010C81F800C04A705D
:100840006FEA020C81F802C00746032507E017F89B
:1008500001CB01F805C005F1010C1FFA8CF506F17A
:10086000030C6545F3DBA6420EDC1FFA8CF507E0AE
:100870004FF01A0C01F805C005F1010C1FFA8CF5B8
:1008800004F1030C6545F3DBF0BD10B502461346D9
:1008900041F4807400BF5B00640014F4807F00D0DA
:1008A0005B1C13F4803F02D041F22100434014F45A
:1008B000803FF0D098B210BDF0B504460D4600263A
:1008C000671905E014F8011BB0B2FFF7DEFF06461A
:1008D000BC42F7D30021B0B2FFF7D7FF0646002194
:1008E0003046FFF7D2FF06463046F0BD30B502462F
:1008F0000023541802E012F8015B2B44A242FAD301
:10090000D8B230BD70B504460E46002504E0605DE7
:10091000FFF7AFFD681C85B2B542F8DB70BD2DE96D
:10092000F74FADF5A46D04460D46002003908346B5
:1009300082460290814618E0003000080000002046
:10094000540000200C0000200800002004000020BB
:10095000100000201400002015F8090006A901F875
:10096000090009F1010000F0FF09B9F1FF0FF3DB05
:10097000012003900DF5A56206A946A8FFF703FF25
:1009800000BF832146A8FFF7BDFF039860B1802117
:100990000DF21B10FFF790FF07463812FFF769FDB5
:1009A000F8B2FFF766FD08E080210DF21B10FFF79B
:1009B0009DFF05900598FFF75CFD42F2107104A8B9
:1009C000FFF746FD30B99DF81000062804D101203C
:1009D000029001E00AF1010A029810B9BAF10A0F77
:1009E000CFD3BAF10A0F05D30AF0FF000DF22C5D48
:1009F000BDE8F08F2646DDF828B54FF0010862E02B
:100A00005B4608F0FF0246A93046FFF7FAFE0020D9
:100A100002908DF81000824600BFBBF5806F03D3B3
:100A20004FF48060019001E0802001900198C01C8B
:100A300081B246A8FFF766FF039860B10DF21B1064
:100A40000199FFF739FF07463812FFF712FDF8B298
:100A5000FFF70FFD08E00DF21B100199FFF746FFAD
:100A600005900598FFF705FD5D4904A8FFF7F0FC28
:100A7000E0B99DF81000062818D1012002900198D5
:100A800083450ED9019806440198ABEB000BB8F1F1
:100A9000740F01D1FF20A9E708F101001FFA80F8C7
:100AA00006E0019806444FF0000B01E00AF1010A4C
:100AB000029810B9BAF10A0FAFD3BAF10A0F02D3F4
:100AC0000AF0FF0092E7BBF1000F99D100200290DD
:100AD0008DF81000824600BF0420FFF7CAFC42F2E6
:100AE000107104A8FFF7B4FC30B99DF81000062877
:100AF00002D10120029001E00AF1010A029810B926
:100B0000BAF10A0FE8D3BAF10A0F02D30AF0FF00D4
:100B10006CE7002002908DF81000824601208DF8CD
:100B2000180100208DF81901FF208DF81A014FF0EF
:100B3000030907E0002046A901F8090009F10100B6
:100B400000F0FF09B9F1830FF4DB00BF832146A851
:100B5000FFF7D8FE80210DF21B10FFF7ADFE074610
:100B60003812FFF786FCF8B2FFF783FC42F21071EF
:100B700004A8FFF76DFC30B99DF81000062804D1D9
:100B80000120029001E00AF1010A029810B9BAF1BD
:100B90000A0FDBD3BAF10A0F02D30AF0FF0025E7F0
:100BA00000BF0420FFF765FC42F2107104A8FFF7B4
:100BB0004FFC30B99DF81000062802D101200290A8
:100BC00001E00AF1010A029810B9BAF10A0FE8D35C
:100BD000BAF10A0F02D30AF0FF0007E7002005E789
:100BE000A0860100F0B5FF4C00230025002220E084
:100BF000B1FBF4F6303606F0FF0C1E465B1C00F825
:100C000006C0B1FBF4F604FB16110A26B4FBF6F499
:100C10005E1E865D302E01D1012600E000260DB952
:100C2000012700E000273E4201D0002300E06D1CB8
:100C3000521C0A2ADCD3F0BD70B502460023002402
:100C400000251078302843D15078782802D0507889
:100C500058283DD1907808B9002070BD022330E0BB
:100C6000D05C10B90D6001242DE0D05C412802DB7E
:100C7000D05C46280BDDD05C612802DBD05C6628A6
:100C800005DDD05C302819DBD05C392816DCD05C5F
:100C9000302805DBD05C392802DCD05C30380AE033
:100CA000D05C412805DBD05C462802DCD05C3738BC
:100CB00001E0D05C573800EB051501E0002402E0AC
:100CC0005B1C0B2BCCD300BF0B2B34D3002432E0A6
:100CD00000232AE0D05C10B90D60012427E0D05C2D
:100CE0006B2802D0D05C4B2804D11BB1AD020D6043
:100CF00001241CE0D05C6D2802D0D05C4D2804D1CA
:100D00001BB12D050D60012411E0D05C302809DBFA
:100D1000D05C392806DCD05C303805EB850600EB6A
:100D2000460501E0002402E05B1C0B2BD2D300BF80
:100D30000B2B00D3002420468FE710B50446214634
:100D4000A94801F0B0FB00BF8021A74801F019FCC1
:100D50000028F9D010BD10B5044603E02078FFF755
:100D6000ECFF641C20780028F8D110BD10B50446B3
:100D700020219D4801F005FC28B19B48001D0088FA
:100D80002070012010BD0020FCE708B50020009075
:100D900004E06846FFF7EAFF00B100E0F9E700BFB2
:100DA0009DF8000008BD70B504460025002600BF70
:100DB000FFF7EBFF06460D2E00D11AE0082E05D1F5
:100DC0001DB18AA0FFF7C7FF6D1E11E0802D04D36F
:100DD00087A0FFF7C0FF00250AE0202E07DB7E2E4C
:100DE00005DC28466D1C26543046FFF7A6FF00BFE1
:100DF000DEE700BF86A0FFF7AEFF0020605570BDA4
:100E00001FB5044623E06846FFF7CDFF9DF80000BC
:100E100000B91CE09DF80000612803D09DF8000097
:100E2000412808D19DF8010028B97AA0FFF793FF67
:100E3000002004B010BD21466846FFF7FDFE18B93A
:100E400079A0FFF788FF01E00120F2E700BFDAE7B1
:100E5000014600200A46114693059B0D03D001234D
:100E600003EB922000E0900A70472DE9F047002440
:100E70000025012602274FF004084FF0010900F079
:100E800015FE05466E48006828406D49096888428D
:100E900048D000F007FE04466948006828436849C6
:100EA000086000F05AFC814665480068401C05D087
:100EB00063480068C04300F00DFD814604F0070060
:100EC000072811D014F0010F00D1002614F0020FF2
:100ED00000D1002714F0040F01D14FF00008424662
:100EE0003946304600F0B2FDB9F1040F16D155A0D5
:100EF000FFF731FF5B48FFF72EFF00BF5A4800683D
:100F000000F4E06059490843001D4FF0E021C1F8AA
:100F10000C0DBFF3408F00BF00BFFEE754A0FFF7EA
:100F20001AFF02E05DA0FFF716FFBDE8F08710B5DD
:100F3000002463480068A0F10060000B614908606C
:100F40000846016801208840401EC0433C490860B3
:100F500000F0ACFD3A4909680840394909688842FF
:100F600003D001205849086002E00020564908607B
:100F700091E156A0FFF7EFFE64A0FFF7ECFE73A02F
:100F8000FFF7E9FE81A0FFF7E6FE4F48006810B1C9
:100F90008EA0FFF7E0FE9DA0FFF7DDFEFFF7F5FE58
:100FA0000446312C02D100F0B7F974E1322C02D1A1
:100FB000FFF7D2F96FE1332C12D1A4A0FFF7CBFEDB
:100FC000A8484068A849086008460068A749086022
:100FD000A4490868FFF7E1F8A448006880475AE18F
:100FE00046E1000000CA9A3B003801400820080092
:100FF000436F6D6D616E6420737472696E672073E8
:10100000697A65206F766572666C6F770D0A0000ED
:101010000A0D0000557365722043616E63656C6C48
:101020006564200D0A0000004572726F722C204921
:101030006E70757420616761696E3A200D0A000058
:101040001C00002057726974652050726F746563CC
:1010500074696F6E2064697361626C65642E2E2EF4
:101060000D0A0000242B00080CED00E00000FA053A
:101070004572726F723A20466C61736820777269AC
:10108000746520756E70726F74656374696F6E201D
:101090006661696C65642E2E2E0D0A00466C6173C4
:1010A00068206D656D6F7279206E6F74207772693C
:1010B00074652070726F7465637465640D0A000056
:1010C0000000002018000020200000200D0A3D3DF7
:1010D0003D3D3D3D3D3D3D3D3D3D3D3D3D3D3D3D40
:1010E000204D61696E204D656E75203D3D3D3D3D55
:1010F0003D3D3D3D3D3D3D3D3D3D3D3D3D3D3D3D20
:101100003D3D3D3D3D3D3D0D0A0A00002020446F20
:10111000776E6C6F616420496D61676520546F2044
:101120007468652053544D33324631307820496E0F
:101130007465726E616C20466C617368202D2D2D74
:101140002D2D2D2D20310D0A0A0000002020557074
:101150006C6F616420496D6167652046726F6D2018
:101160007468652053544D33324631307820496ECF
:101170007465726E616C20466C617368202D2D2D34
:101180002D2D2D2D20320D0A0A000000202045783B
:10119000656375746520546865204E6577205072CC
:1011A0006F6772616D202D2D2D2D2D2D2D2D2D2D47
:1011B0002D2D2D2D2D2D2D2D2D2D2D2D2D2D2D2D5F
:1011C0002D2D2D2D20330D0A0A000000202044690A
:1011D0007361626C6520746865207772697465203C
:1011E00070726F74656374696F6E202D2D2D2D2DB7
:1011F0002D2D2D2D2D2D2D2D2D2D2D2D2D2D2D2D1F
:101200002D2D2D2D20340D0A0A0000003D3D3D3DC1
:101210003D3D3D3D3D3D3D3D3D3D3D3D3D3D3D3DFE
:101220003D3D3D3D3D3D3D3D3D3D3D3D3D3D3D3DEE
:101230003D3D3D3D3D3D3D3D3D3D3D3D3D3D3D3DDE
:101240003D3D3D3D3D3D0D0A0A000000457865638A
:1012500075746520757365722050726F6772616D69
:101260000D0A0A0000300008280000202400002099
:10127000342C06D108480068012802D1FFF7F5FD9B
:1012800009E00548006818B904A0FFF764FD02E012
:1012900011A0FFF760FD6CE620000020496E76612A
:1012A0006C6964204E756D6265722021203D3D3E63
:1012B00020546865206E756D6265722073686F7565
:1012C0006C642062652065697468657220312C2029
:1012D00032206F7220330D00496E76616C69642094
:1012E0004E756D6265722021203D3D3E205468653B
:1012F000206E756D6265722073686F756C64206214
:10130000652065697468657220312C20322C203389
:10131000206F7220340D00003EB568461CA11CC928
:101320001CC000241DA0FFF716FD2B48FFF706F98F
:101330000446002C16DD2948FFF70DFD2848FFF76D
:101340000AFD21466846FFF74DFC26A0FFF703FD86
:101350006846FFF700FD26A0FFF7FDFC27A0FFF77A
:10136000FAFC14E0601C03D12AA0FFF7F4FC0EE0A5
:10137000A01C03D137A0FFF7EEFC08E0E01C03D16E
:101380003BA0FFF7E8FC02E03FA0FFF7E4FC3EBD16
:101390002020202020202020202000005761697478
:1013A000696E6720666F72207468652066696C6577
:1013B00020746F2062652073656E74202E2E2E209F
:1013C0002870726573732027612720746F20616213
:1013D0006F7274290A0D000054010020702B000860
:1013E000540000200A0D2053697A653A200000005D
:1013F0002042797465730D0A000000002D2D2D2DFB
:101400002D2D2D2D2D2D2D2D2D2D2D2D2D2D2D0A2F
:10141000000000000A0A0D54686520696D61676567
:101420002073697A6520697320686967686572202E
:101430007468616E2074686520616C6C6F77656498
:10144000207370616365206D656D6F7279210A0D7F
:10145000000000000A0A0D566572696669636174CE
:10146000696F6E206661696C6564210A0D00000079
:101470000D0A0A41626F7274656420627920757387
:1014800065722E0A0D0000000A0D4661696C6564E4
:1014900020746F20726563656976652074686520C5
:1014A00066696C65210A0D0032490143324A1160B8
:1014B000704770B5002100230F22C4780CB32E4C66
:1014C000246804F4E064C4F5E064210AC1F1040373
:1014D000CA40447804FA03F1847814402143090196
:1014E000264C0678A155047804F01F050124AC4071
:1014F00005786D114FF0E02606EB8505C5F8004133
:1015000009E0047804F01F040125A5401C4C06786E
:10151000761144F8265070BD1A4A0A400243164B11
:101520001B1F1A60704741B1134A121D1268024313
:101530004FF0E023C3F8102D07E00F4A121D126888
:1015400082434FF0E023C3F8102D7047042808D1E0
:101550004FF0E021096941F004014FF0E0221161F0
:1015600007E04FF0E021096921F004014FF0E0228B
:10157000116170470000FA050CED00E000E400E0A6
:1015800080E100E080FFFF1F0021FF4A116801F0A9
:101590003801014311607047FB49096821F00801D7
:1015A000F94A116011460968014311607047F64914
:1015B000096821F01001F44A1160114609680143DD
:1015C00011607047F148F0494860F1484860704741
:1015D000EE48ED494860EE4848607047EA480069C7
:1015E00040F08000E84908617047E748006940F032
:1015F0008000E549086170470420E349C96801F0AB
:101600000101012901D101200EE0DF49C96811F073
:10161000040F01D0022007E0DB49C96811F0100F68
:1016200001D0032000E00420704700B502460423E7
:10163000FFF7E2FF034603E0FFF7DEFF0346521E1B
:10164000012B01D1002AF7D102B90523184600BDAC
:1016500030B5044604254FF43020FFF7E6FF054679
:10166000042D17D1C848006940F00200C64908613E
:1016700008464461006940F0400008614FF43020A2
:10168000FFF7D3FF0546C048006941F6FD710840E9
:10169000BD490861284630BD10B504244FF4302000
:1016A000FFF7C3FF0446042C16D1B748006940F089
:1016B0000400B54908610846006940F0400008612F
:1016C0004FF43020FFF7B1FF0446AF48006941F600
:1016D000FB710840AC490861204610BD00B50246C8
:1016E0000423FFF789FF034603E0FFF785FF034666
:1016F000521E012B01D1002AF7D102B90523184649
:1017000000BD10B504244FF43020FFF7E7FF044676
:10171000042C16D19C48006940F004009A490861E5
:101720000846006940F0400008614FF43020FFF7A0
:10173000D5FF04469448006941F6FB710840924980
:101740000861204610BD00208F49C96911F0020FC1
:1017500001D0012000E00020704730B5A524042509
:10176000FFF7F1FF00B100244FF43020FFF75DFFD9
:101770000546042D3AD185488349886084488860AD
:101780000846006940F0200008610846006940F002
:10179000400008614FF43020FFF747FF0546042D55
:1017A0001BD17948006941F6DF710840764908612C
:1017B0000846006940F01000086176480480E8029D
:1017C000FFF733FF0546052D10D06F48006941F63D
:1017D000EF7108406C49086108E0052D06D06A48A1
:1017E000006941F6EF71084067490861284630BD3D
:1017F000F0B504460D4604260027F002FFF715FF5A
:101800000646042E22D16048006940F001005E497E
:1018100008612580F002FFF708FF0646042E0ED16E
:10182000A71C280C3880F002FFF7FFFE064656483A
:10183000006941F6FE7108405349086106E05248CC
:10184000006941F6FE7108404F4908613046F0BD1D
:1018500070B504460D460426F002FFF7E6FE064684
:10186000042E11D14848006940F001004649086142
:101870002580F002FFF7D9FE06464348006941F68D
:10188000FE71084040490861304670BD70B504469D
:101890000D460426F002FFF7C8FE0646042E17D1B7
:1018A0003A48394988603A4888600846006940F0FB
:1018B000100008612580F002FFF7B7FE0646052EEE
:1018C00006D03148006941F6EF7108402E490861A1
:1018D000304670BD2DE9F04304464FF6FF752E46A5
:1018E0002F46A8464FF00409E443E5B2C4F30726A7
:1018F000C4F307474FEA14684FF40050FFF795FE12
:101900008146B9F1040F50D120481F498860204812
:1019100088600846006940F010000861FF2D07D07C
:101920001C48083005804FF40050FFF77EFE8146CA
:10193000B9F1040F09D1FF2E07D016480A300680EE
:101940004FF40050FFF771FE8146B9F1040F09D141
:10195000FF2F07D00F480C3007804FF40050FFF7DF
:1019600064FE8146B9F1040F0AD1B8F1FF0F07D028
:101970000948A0F80E884FF40050FFF756FE814644
:10198000B9F1050F11D009E000200240230167459D
:10199000AB89EFCD00F8FF1F00F0FF1F6948006919
:1019A00041F6EF710840674908614846BDE8F08399
:1019B00030B5044604254FF43020FFF736FE0546C7
:1019C000042D41D160485F498860604888600846BE
:1019D000006940F0200008610846006940F04000BE
:1019E00008614FF43020FFF720FE0546042D22D178
:1019F0005448006941F6DF710840524908610846C1
:101A0000006940F0100008611CB1002050490880B6
:101A100002E0A5204E4908804FF43020FFF705FE74
:101A20000546052D10D04748006941F6EF71084082
:101A30004449086108E0052D06D04248006941F696
:101A4000DF7108403F490861284630BDF0B50446C3
:101A50000D46164604273C483A4988603B48886052
:101A6000F802FFF7E2FD0746042F19D13548006957
:101A700040F010003349086146F0F8002843204345
:101A80003349891C0880F802FFF7CFFD0746052F70
:101A900006D02C48006941F6EF71084029490861D9
:101AA0003846F0BD2748C069800870472548006A5D
:101AB000704700202349096811F0200F01D0012050
:101AC00000E00020704729B11E4A126902431D4BF5
:101AD0001A6104E01B4A126982431A4B1A6170476B
:101AE00001460020012908D1164AD26912F0010FDF
:101AF00001D0012008E0002006E0124AD2680A4224
:101B000001D0012000E0002070470E49C8607047F6
:101B100004200C49C96801F00101012901D101200B
:101B20000EE00849C96811F0040F01D0022007E057
:101B30000449C96811F0100F01D0032000E004200F
:101B4000704700000020024023016745AB89EFCDBC
:101B500000F8FF1FDB48006840F00100D949086029
:101B600008464068D8490840D64948600846006899
:101B7000D6490840D34908600846006820F4802010
:101B800008600846406820F4FE0048604FF41F00DB
:101B900088607047CB49096821F48031C94A1160D7
:101BA0001146096821F480211160B0F5803F03D00F
:101BB000B0F5802F0ED106E0C249096841F48031AA
:101BC000C04A116007E0BF49096841F4A021BD4A3D
:101BD000116000E000BF00BF704710B50146002251
:101BE000002300204A11012A02D1B64C236806E0E6
:101BF000022A02D1B34C236A01E0B24C636A01F0BD
:101C00001F02012494401C4201D0012000E000206A
:101C100010BD70B500240025002600BF3120FFF75D
:101C2000DCFF0646641CB4F5A06F01D0002EF5D091
:101C30003120FFF7D2FF08B1012500E0002528463A
:101C400070BD00219F4A116821F0F80141EAC001EE
:101C5000116070479E49086070470022994B5A688E
:101C600022F47C1240EA01031A43964B5A607047F3
:101C70009749086670470021924A516821F0030194
:101C80000143516070478F48406800F00C00704776
:101C900000218C4A516821F0F001014351607047E6
:101CA0000021884A516821F4E06101435160704786
:101CB0000021844A516821F4605141EAC001516019
:101CC000704729B17F4A527A02437E4B5A7206E02E
:101CD0007C4A527AC343DBB21A407A4B5A7270473D
:101CE0007B49D831086070470021764A516821F459
:101CF00040410143516070470021724A2032117007
:101D0000704A82F82010012802D004280AD104E089
:101D100001216C4A2032117005E00521694A203208
:101D2000117000E000BF00BF70476A49086070474B
:101D30006449096A0143634A11627047654944393D
:101D40000860704730B500210022002300245D4D5B
:101D50006D6805F00C0121B1042905D0082923D1B3
:101D600005E05D4D056022E05B4D05601FE0554DCF
:101D70006D6805F47012534D6D6805F480330225CB
:101D800005EB92421BB9554D554305600BE04D4D97
:101D90006D6815F4003F03D0504D5543056002E0D7
:101DA0004D4D5543056002E04B4D056000BF00BF3F
:101DB000444D6D6805F0F0010909494D6C5C0568FA
:101DC000E54045603F4D6D6805F4E061090A444D0A
:101DD0006C5C4568E54085603A4D6D6805F460517E
:101DE000C90A3F4D6C5C4568E540C560354D6D687E
:101DF00005F44041890B3A4D10356C5CC568B5FB64
:101E0000F4F5056130BD29B12E4A526902432D4BCC
:101E10005A6104E02B4A526982432A4B5A61704747
:101E200029B1284A92690243264B9A6104E0254A67
:101E300092698243234B9A61704729B1214AD26942
:101E40000243204BDA6104E01E4AD26982431D4BF3
:101E5000DA61704729B11B4AD2680243194BDA6034
:101E600004E0184AD2688243164BDA60704729B101
:101E7000144A12690243134B1A6104E0114A1269B1
:101E80008243104B1A61704712494039086070470D
:101E90000F49C86470470B49C87170470948406AC8
:101EA00040F0807007494862704701460020054AAB
:101EB00092680A4201D0012000E0002070470149E9
:101EC00088727047001002400000FFF8FFFFF6FE26
:101ED000000042428004424200127A0000093D00A4
:101EE0002C00002010B50446C748844208D10121C7
:101EF0000420FFF7AFFF00210420FFF7ABFF46E00F
:101F0000C248844208D101210820FFF7A3FF002125
:101F10000820FFF79FFF3AE0BD48844208D1012125
:101F20001020FFF797FF00211020FFF793FF2EE00E
:101F3000B848844208D101212020FFF78BFF0021FF
:101F40002020FFF787FF22E0B348844208D1012117
:101F50004020FFF77FFF00214020FFF77BFF16E0C6
:101F6000AE48844208D101218020FFF773FF002191
:101F70008020FFF76FFF0AE0A948844207D10121C2
:101F80008015FFF767FF0021A015FFF763FF10BD65
:101F900010B501210846FFF75DFF00210120FFF782
:101FA00059FF10BDF0B500220023002400250026B3
:101FB000002791F803C00CF00F0291F803C01CF049
:101FC000100F03D091F802C04CEA0202B1F800C031
:101FD0001CF0FF0F31D0066800242BE04FF0010CFD
:101FE0000CFA04F5B1F800C00CEA0503AB4220D1AD
:101FF000A5004FF00F0C0CFA05F7BE4302FA05FCE2
:102000004CEA060691F803C0BCF1280F06D14FF048
:10201000010C0CFA04FCC0F814C00AE091F803C0EB
:10202000BCF1480F05D14FF0010C0CFA04FCC0F8CC
:1020300010C0641C082CD1D30660B1F800C0BCF1FC
:10204000FF0F34DD466800242EE004F1080C4FF049
:10205000010E0EFA0CF5B1F800C00CEA0503AB4214
:1020600021D1A5004FF00F0C0CFA05F7BE4302FA80
:1020700005FC4CEA060691F803C0BCF1280F05D117
:1020800004F1080C0EFA0CFEC0F814E091F803C03D
:10209000BCF1480F07D104F1080C4FF0010E0EFA05
:1020A0000CFEC0F810E0641C082CCED34660F0BDD6
:1020B0004FF6FF710180022181700421C1707047C9
:1020C0000246002093680B4201D0012000E000206E
:1020D00070470146886880B2704702460020D36886
:1020E0000B4201D0012000E0002070470146C86883
:1020F00080B2704701617047416170470AB1016168
:1021000000E041617047C16070474FF480320A437C
:102110008261816182618269826970470022414BDC
:102120001A684FF680731A4042EA00120A433D4B88
:102130001A6070473C49C8617047F0B5002200231F
:102140000024002500F00046B6F1004F02D1354EC4
:10215000F46901E0334E7468C0F3034582B200F4C1
:102160004016B6F5401F08D124F070642D4E7668F5
:1021700026F070662B4F7E6012E000F48016B6F5F4
:10218000801F06D1032606FA05F39C4344F07064D1
:1021900006E0460D360102FA06F6B44344F07064D8
:1021A00021B1460D360102FA06F6344300F000462E
:1021B000B6F1004F02D11B4EF46101E0194E74607C
:1021C000F0BD30B500228B071C0F0F2303FA04F279
:1021D000144B08338C1053F8244094438D1043F86B
:1021E00025408C1053F824308C07240F00FA04F497
:1021F00023430C4C08348D1044F8253030BD0A4977
:10220000DC3108607047000000080140000C01400C
:10221000001001400014014000180140001C014062
:1022200000200140000001400000204210B504469B
:10223000FB48844209D101218803FFF70BFE0021EE
:102240004FF48040FFF706FE32E0F648844209D1A1
:1022500001214804FFF70BFE00214FF40030FFF787
:1022600006FE25E0F048844209D101218804FFF7E9
:10227000FEFD00214FF48020FFF7F9FD18E0EB4848
:10228000844209D10121C804FFF7F1FD00214FF478
:102290000020FFF7ECFD0BE0E548844208D1012166
:1022A0000805FFF7E4FD00214FF48010FFF7DFFD84
:1022B00010BD2DE9F04786B004460D4600260027E4
:1022C00000BFB146B246A88900B100BFA246268A27
:1022D0004CF6FF700640E88806432682A6894EF633
:1022E000F3100640A88829890843698908430643F2
:1022F000A681A68A4FF6FF400640A8890643A6821B
:1023000001A8FFF71FFD5446C548824501D1049F2F
:1023100000E0039FA08910F4004F08D007EBC7002E
:1023200000EB071029684900B0FBF1F807E007EB64
:10233000C70000EB071029688900B0FBF1F86420A2
:10234000B8FBF0F006013009642101FB1089A08977
:1023500010F4004F09D0322101EBC9006421B0FB19
:10236000F1F000F00700064308E0322101EB09100C
:102370006421B0FBF1F000F00F000643268106B0A7
:10238000BDE8F0874FF41651016000218180C180C3
:1023900001810C21418100218181704710B500220B
:1023A000028A4FF2FF031A400B884C8823438C8823
:1023B0002343CC8823431A43028210BD00210180AD
:1023C00041808180C180704721B1828942F40052EE
:1023D000828104E082894DF6FF731A408281704742
:1023E000F0B50024002500260023A1F510676A3F00
:1023F00000D100BF0346C1F3421401F01F050127BD
:1024000007FA05F6012C01D10C3304E0022C01D1AE
:10241000103300E014331AB11F6837431F6002E025
:102420001F68B7431F60F0BD10B51AB1838A0B4314
:10243000838204E0838ACC43A4B22340838210BD0C
:10244000028A4FF6F0731A400282028A0A4302821D
:10245000704782894FF2FF731A40828182890A4352
:102460008281704721B1828942F00202828104E0B8
:1024700082894FF6FD731A4082817047028A4FF6B7
:10248000DF731A400282028A0A430282704721B136
:10249000028A42F48042028204E0028A4BF6FF7311
:1024A0001A4002827047C1F30802828070470146D9
:1024B0008888C0F308007047818941F0010181815B
:1024C0007047028BD2B20283028B42EA012202835E
:1024D0007047028B02F47F420283028B0A4302831D
:1024E000704721B1828A42F02002828204E0828A0F
:1024F0004FF6DF731A408282704721B1828A42F020
:102500001002828204E0828A4FF6EF731A408282C0
:10251000704721B1828A42F00802828204E0828AF6
:102520004FF6F7731A408282704721B1828942F4D4
:102530000042828103E08289C2F30E0282817047E9
:1025400021B1828A42F40062828204E0828A4FF2E0
:10255000FF731A4082827047828A4FF6FB731A40DB
:102560008282828A0A438282704721B1828A42F043
:102570000202828204E0828A4FF6FD731A40828250
:10258000704702460020B1F5007F00D100BF1388DC
:102590000B4201D0012000E00020704701F40072DE
:1025A000B2F5007F00D100BFCA430280704770B50A
:1025B00002460023002400250020A1F510666A3E93
:1025C00000D100BFC1F3421501F01F04012606FA35
:1025D00004F4012D02D19689344006E0022D02D187
:1025E000168A344001E0968A34400B12012606FA1E
:1025F00003F31688334014B10BB1012000E0002032
:1026000070BD10B500220023A1F510646A3C00D112
:1026100000BF0A1201249440A3B2DC43048010BD21
:10262000003801400044004000480040004C004099
:10263000005000400948804709480047FEE7FEE790
:10264000FEE7FEE7FEE7FEE7FEE7FEE7FEE7FEE762
:1026500004480549054A064B704700003D2700081D
:10266000ED000008B8050020B80B0020B8070020D6
:10267000B807002000200021674A126842F4803227
:10268000654B1A6000BF644A126802F40031401CB6
:1026900011B9B0F5A06FF6D15F4A126812F4003F8D
:1026A00001D0012100E00021012942D15B4A1268DA
:1026B00042F01002594B1A601A46126822F00302C7
:1026C0001A601A46126842F002021A60524A5268B0
:1026D000514B5A601A4652685A601A46526842F480
:1026E00080625A601A46526822F47C125A601A4676
:1026F000526842F4E8125A601A46126842F0807238
:102700001A6000BF444A126812F0007FFAD0424AB1
:10271000526822F00302404B5A601A46526842F057
:1027200002025A6000BF3C4A526802F00C02082ABA
:10273000F9D1704710B5FFF79DFF10BD10B53648B1
:10274000006840F001003449086008464068344998
:1027500008403149486008460068324908402E491F
:1027600008600846006820F4802008600846406839
:1027700020F4FE0048604FF41F008860FFF7DAFF86
:102780004FF000602849086010BD10B500200021FE
:102790000022214B5B6803F00C0020B1042806D016
:1027A000082828D107E0214B214C236027E01F4B4C
:1027B0001F4C236023E0184B5B6803F47011164B29
:1027C0005B6803F48032022303EB914122B9194B79
:1027D0004B43174C23600DE00F4B5B6813F4003F35
:1027E00004D0144B4B43124C236003E00F4B4B437C
:1027F0000F4C236003E00D4B0D4C236000BF00BF66
:10280000054B5B68C3F303130B4CE05C084B1B6880
:10281000C340074C236010BD00100240002002405E
:102820000000FFF8FFFFF6FE08ED00E000127A005E
:102830004000002000093D0044000020032A40F22F
:10284000318010F0030C00F0158011F8013BBCF151
:10285000020F624498BF11F801CB00F8013B38BF6A
:1028600011F8013BA2F1040298BF00F801CB38BF78
:1028700000F8013B11F0030300F02980083AC0F092
:10288000098051F8043B51F804CB40F8043B40F870
:1028900004CBF3E7121D5CBF51F8043B40F8043B46
:1028A000AFF30080D20724BF11F8013B11F801CB30
:1028B00048BF11F8012B24BF00F8013B00F801CB01
:1028C00048BF00F8012B704770477047704710B53C
:1028D000203AC0F00B80B1E81850203AA0E8185018
:1028E000B1E81850A0E81850BFF4F5AF5FEA027CD9
:1028F00024BFB1E81850A0E8185044BF18C918C048
:10290000BDE810405FEA827C24BF51F8043B40F8E8
:10291000043B08BF7047D20728BF31F8023B48BFCD
:1029200011F8012B28BF20F8023B48BF00F8012B0B
:102930007047754600F028F8AE46050069465346D4
:1029400020F00700854618B020B5FFF781FEBDE8EE
:1029500020404FF000064FF000074FF000084FF006
:10296000000B21F00701AC46ACE8C009ACE8C00997
:10297000ACE8C009ACE8C0098D4670470446AFF327
:1029800000802046FDF7FBFB0048704754050020FF
:1029900003494FF01800ABBE70470000090000006B
:1029A00026000200704700000D0A3D3D3D3D3D3DC3
:1029B0003D3D3D3D3D3D3D3D3D3D3D3D3D3D3D3D47
:1029C0003D3D3D3D3D3D3D3D3D3D3D3D3D3D3D3D37
:1029D0003D3D3D3D3D3D3D3D3D3D3D3D3D3D3D3D27
:1029E0003D3D3D3D3D3D3D3D3D3D3D3D3D3D3D3D17
:1029F000000000000D0A3D20202020202020202063
:102A000020202020202020202020202020202020C6
:102A100020202020202020202020202020202020B6
:102A200020202020202020202020202020202020A6
:102A300020202020202020202020203D00000000F9
:102A40000D0A3D2020202020496E2D4170706C69B8
:102A5000636174696F6E2050726F6772616D6D692A
:102A60006E67204170706C69636174696F6E2020BD
:102A70002856657273696F6E20312E302E302920F2
:102A8000202020202020203D000000000D0A3D20B5
:102A90002020202020202020202020202020202036
:102AA0002020202020202020202020202020202026
:102AB0002020202020202020202020202020202016
:102AC0002020202020202020202020202020202006
:102AD0002020203D000000000D0A3D3D3D3D3D3DD4
:102AE0003D3D3D3D3D3D3D3D3D3D3D3D3D3D3D3D16
:102AF0003D3D3D3D3D3D3D3D3D3D3D3D3D3D3D3D06
:102B00003D3D3D3D3D3D3D3D3D3D3D3D3D3D3D3DF5
:102B10003D3D3D3D3D3D3D3D3D3D3D3D3D3D3D3DE5
:102B2000000000002E2E2E616E6420612053797308
:102B300074656D2052657365742077696C6C2062D2
:102B4000652067656E65726174656420746F2072BC
:102B5000652D6C6F616420746865206E6577206FE9
:102B60007074696F6E2062797465730D0A000000DD
:102B70000A0A0D2050726F6772616D6D696E672071
:102B8000436F6D706C657465642053756363657322
:102B90007366756C6C79210A0D2D2D2D2D2D2D2D23
:102BA0002D2D2D2D2D2D2D2D2D2D2D2D2D2D2D2D55
:102BB0002D2D2D2D2D2D2D2D2D0D0A204E616D65C8
:102BC0003A200000E42B0008000000205400000020
:102BD00028010008382C000854000020640B000075
:102BE000440100080030000800040000000000005C
:102BF00000000000040000000000000000000000D1
:102C000000000000000000000000000000000000C4
:102C10000000000001020304010203040607080982
:102C20000204060800A24A040000000000000000A0
:082C3000010203040607080974
:04000005080000ED02
:00000001FF
