:0400000508000000EF
:020000040800F2
:100000004006002001010008990100089B0100083A
:100010009D0100089F010008A101000800000000E8
:10002000000000000000000000000000A501000822
:10003000A301000800000000A7010008A9010008B2
:10004000AB010008AD010008AF010008B1010008D4
:10005000B3010008B5010008B7010008B9010008A4
:10006000BB010008BD010008BF010008C101000874
:10007000C3010008C5010008C7010008C901000844
:10008000CB010008CD010008CF010008D101000814
:10009000D3010008D5010008D7010008D9010008E4
:1000A000DB010008DD010008DF010008E1010008B4
:1000B000E3010008E5010008E7010008E901000884
:1000C000EB010008ED010008EF010008F101000854
:1000D000F3010008F5010008F7010008F901000824
:1000E000FB010008FD010008FF01000800000000FE
:1000F0000000000000000000000000000000000000
:10010000AFF3008000F002F801F0ADFE0AA090E825
:10011000000C82448344AAF10107DA4501D101F0C1
:10012000A2FEAFF2090EBAE80F0013F0010F18BFDC
:10013000FB1A43F001031847442200006422000028
:10014000103A24BF78C878C1FAD8520724BF30C803
:1001500030C144BF04680C607047000000230024D5
:1001600000250026103A28BF78C1FBD8520728BFC7
:1001700030C148BF0B60704701F0C0BF024803495F
:10018000034A044B70470000400200204006002054
:1001900040040020400400207047704770477047BB
:1001A0007047704770477047704770477047704797
:1001B0007047704770477047704770477047704787
:1001C0007047704770477047704770477047704777
:1001D0007047704770477047704770477047704767
:1001E0007047704770477047704770477047704757
:1001F0007047704770477047704770477047704747
:100200000D490A6802F038020A600A6802430A606F
:10021000704709490A6822F008020A600A68024326
:100220000A60704704490A6822F010020A600A68EE
:1002300002430A6070470000002002407D4A10B56A
:10024000811A1315904222D00BDC7B49401817D03D
:1002500098422AD10121082000F013FA0021082039
:100260000AE099421AD0B1F5006F1ED10121402059
:1002700000F007FA00214020BDE8104000F001BA6C
:100280000121042000F0FDF900210420F4E7012100
:10029000102000F0F6F900211020EDE701212020C8
:1002A00000F0EFF900212020E6E710BD10B5012194
:1002B000084600F0E6F90021BDE81040012000F0FA
:1002C000E0B9F0B5CC78002204F00F03E40601D5C4
:1002D0008C7823430C884FF00F0714F0FF0F4FF07A
:1002E000010C1BD005680E880CFA02F42640A642C9
:1002F00010D1960007FA06FE25EA0E0E03FA06F55F
:10030000CE7845EA0E05282E00D14461CE78482EDD
:1003100000D10461521C082AE5D305600A88FF2A2F
:100320001ED94568002202F108060CFA06F40E8870
:100330002640A64210D1960007FA06FE25EA0E0EC8
:1003400003FA06F5CE7845EA0E05282E00D1446161
:10035000CE78482E00D10461521C082AE3D34560B0
:10036000F0BD4FF6FF710180022181700421C17040
:1003700070470246926800200A4200D00120704770
:10038000806880B270470246D26800200A4200D0DE
:1003900001207047C06880B27047016170474161B9
:1003A00070470AB10161704741617047C160704791
:1003B00041F4803282618161826181698069704724
:1003C00010B51E4B1A684FF68074224042EA0010A6
:1003D0000843186010BD1A49C861704770B5174EC0
:1003E0007268C0F3034583B2840202D522F0E06252
:1003F00006E0C40203D50324AC40A24300E09A43C4
:1004000029B1800202D542EA034200E01A43726039
:1004100070BD10B58A0721F003040849120F21446A
:100420000F238C6893409C438C608B6890400343FF
:100430008B6010BD0010014000F8FEBF00000140BD
:1004400000002042A5480021C160016114224261E0
:100450008161C161026842F0010202604268A04B02
:100460001A40426002689F4B1A400260026822F400
:1004700080220260426822F4FE024260816070477E
:1004800096490A6822F480320A600A6822F48022BF
:100490000A60B0F5803F07D0B0F5802F03D108681F
:1004A00040F4A02008607047086840F48030F9E705
:1004B000034600205909894A012901D1116804E045
:1004C000022901D1116A00E0516A03F01F020123E1
:1004D00093400B4200D00120704710B5002400E08B
:1004E000641C3120FFF7E4FF08B9802CF8D13120DB
:1004F000FFF7DEFF002800D0012010BD774A116809
:1005000021F0F80141EAC0001060704776490860A8
:100510007047724B5A68084322F47C1210435860AB
:1005200070477149086670476C4A516821F00301B1
:100530000143516070476948406800F00C00704703
:10054000664A516821F0F001014351607047634AE7
:10055000516821F4E0610143516070475F4A51687E
:1005600021F4605141EAC000506070475B4A0029A5
:10057000517A01D0014300E08143517270475A49DA
:10058000D83108607047554A516821F44041014311
:10059000516070475149002220310A7001F820292A
:1005A000012802D0042802D1052081F820007047DC
:1005B0004E4908607047494A116A01431162704709
:1005C0004A4944390860704730B5444A5168484B3D
:1005D00011F00C0103D0042901D0082901D00360D7
:1005E00011E05168022401F4701104EB9141546848
:1005F000404D14F4803F02D05468A40301D56943F0
:1006000000E05943016051683B4B01F0F0010909DA
:100610005C5C0168E1404160546804F4E064240AD1
:100620001C5D21FA04F48460546804F46054E40A04
:100630001B5DD940C16052682F4B02F44042920BBF
:100640001B1F9A5CB1FBF2F1016130BD234A002906
:10065000516901D0014300E08143516170471F4A55
:100660000029916901D0014300E081439161704705
:100670001A4A0029D16901D0014300E08143D161C8
:100680007047164A0029D16801D0014300E0814338
:10069000D1607047114A0029116901D0014300E07F
:1006A00081431161704711494039086070470E4914
:1006B000C86470470949C87170470848416A41F0E9
:1006C00080714162704705490246896800201142E5
:1006D00000D0012070470149887270470010024025
:1006E0000000FFF8FFFFF6FE000042428004424295
:1006F00000127A0000093D001E210008714910B562
:1007000040180DD0B0F5784F15D101210C032046CB
:10071000FFF7B7FF2046BDE810400021FFF7B1BF4B
:1007200001218C032046FFF7B5FF2046BDE81040AD
:100730000021FFF7AFBF10BD30B502880B884C8891
:10074000CD8823438C8802F441522C4323430C89E7
:1007500023434C8923438C892343CC89234313436C
:100760000380098A018230BD00210180418081809F
:10077000C180018141818181C1810721018270474E
:100780000029018802D041F0400101E021F0400140
:1007900001807047090901238B40002A828899B2A1
:1007A00001D00A4300E08A4382807047002A828891
:1007B00001D00A4300E08A438280704781817047FC
:1007C00080897047A1F57E420188FF3A02D041F44A
:1007D000807101E021F480710180704700298188D7
:1007E00002D041F0040101E021F004018180704752
:1007F000028822F40062028002880A430280704765
:10080000018841F48051018070470029018802D09D
:1008100041F4005101E021F40051018070470129A9
:1008200001D0008B7047808A7047008A7047B1F50D
:10083000804F018802D141F4804101E021F48041E0
:10084000018070470246128900200A4200D0012030
:100850007047202905D10189018841F040010180BC
:100860007047402901D10089704702898A4302817B
:10087000704730B501F00F05012404FA05F3024674
:10088000002009098C4091889BB2A4B212892140B2
:100890001A4202D0002900D0012030BD552905D1CF
:1008A0000189018841F0400101807047562901D13A
:1008B0000089704701F00F020121914002898A43AB
:1008C0000281704700C8FFBF4FF0E021042808698B
:1008D00002D140F0040001E020F0040008617047FC
:1008E0004FF0E021486170474FF0E02110B900203F
:1008F000886170470128086902D140F0010001E0D9
:1009000020F00100086170474FF0E02100280869DD
:1009100002D040F0020001E020F0020008617047C0
:100920004FF0E020806970470246002051094FF0E7
:10093000E023012901D1196900E0D96902F01F0201
:10094000012393400B4200D001207047A74910B506
:10095000401810D0B0F5806F10D0B0F5744F18D19A
:1009600001218C032046FFF78CFE2046BDE8104095
:100970000021FFF786BE01214C0401E001218C0417
:100980002046FFF787FE2046BDE810400021FFF714
:1009900081BE10BD30B50546008A85B00C464CF2CC
:1009A000FF010840E188E289638A1143228A1A43E1
:1009B0001143A28A114301432982A8894EF6F311FB
:1009C0000840A18822891143A28902431143A981C9
:1009D000A88A4FF6FF41084061890143A982684611
:1009E000FFF7F2FD8248854201D1039800E00298AA
:1009F00019214843216864228900B0FBF1F0B0FB63
:100A0000F2F109010B096FF01804634300EB830056
:100A1000322303EB0010B0FBF2F000F00F000843AC
:100A2000288105B030BD4FF416510160002181804E
:100A3000C180018141810C228281C1810182418278
:100A4000818270470029818902D041F4005101E080
:100A500021F400518181704710B5C1F3421301F0B8
:100A60001F040121A140012B01D10C3004E0022B15
:100A700001D1103000E01430002A026801D00A438E
:100A800000E08A43026010BD002A828A01D00A4336
:100A900000E08A4382827047028A22F00F020282BB
:100AA000028A0A4302827047828922F400628281AC
:100AB00082890A43828170470029818902D041F0EE
:100AC000020101E021F0020181817047028A22F0D7
:100AD00020020282028A0A43028270470029018AA8
:100AE00002D041F4804101E021F48041018270474D
:100AF000C1F30801818070478088C0F30800704707
:100B0000818941F0010181817047028BD2B2028359
:100B1000028B42EA012101837047028B02F47F427B
:100B20000283028B0A43028370470029818A02D024
:100B300041F0200101E021F020018182704700296D
:100B4000818A02D041F0100101E021F01001818280
:100B500070470029818A02D041F0080101E021F0AC
:100B6000080181827047828A22F004028282828A8E
:100B70000A43828270470029818A02D041F0020133
:100B800001E021F0020181827047024612880020B4
:100B90000A4200D00120704702888A4302807047D1
:100BA00070B501F01F0501260024C1F3421306FAB7
:100BB00005F2012B01D1838904E0022B01D1038AC4
:100BC00000E0838A4FEA11210088134206FA01F6F9
:100BD00000EA060001D000B10124204670BD0A0AD7
:100BE0000121914002888A430280704700BCFFBF08
:100BF0000038014010B50446C1B22848FFF778FF1D
:100C00002748B0F800180906FBD5204610BDF1E7CB
:100C1000FEE7EFE74FF0FF30704730B587B00121B6
:100C20000420FFF71CFD4FF48060ADF8180004208D
:100C30001C4D8DF81B0006A92846FFF742FB6C15DA
:100C4000ADF8184003208DF81A0018208DF81B000D
:100C500006A92846FFF735FB4FF4E130009000204D
:100C60000C21ADF81000ADF80C10ADF81240ADF845
:100C70000400ADF80800094CADF80600ADF80A0014
:100C8000ADF80E00ADF8140069462046FFF782FE6D
:100C900001212046FFF7D6FE07B030BD00380140E5
:100CA000003001400008014000F061BB00F06EBC64
:100CB0000346084611461A4600F0DEBB03460846C6
:100CC00011461A4600F092BB03460846510A1A46DE
:100CD00000F002BC03460846510A1A4600F0A1BBC8
:100CE000044A054B10789168596052689A605143E4
:100CF00019607047F4000020000000202DE9F04149
:100D000004460F4615461E4600F00CFD04F03F0059
:100D100040F04008404600F0DFFC0324385D00F05E
:100D2000DBFC641EFAD53946404600F02FFA00F08D
:100D3000D3FC012D07D0022D05D0032D05D0042DA5
:100D400006D1052402E0012400E00224002507E08A
:100D5000FF2000F0C1FC00F0E9FC1020BDE8F081AC
:100D600000F0C9FC6D1C010602D5642DF8DB01E022
:100D7000642D03DB00F0DAFC1120EFE7641E03D4DE
:100D8000305500F0B8FCF9E700F0D0FC0020E5E7B2
:100D90000A0EC2700A0C82700A0A42700170704713
:100DA0007CB504460D46510201A8FFF7F1FF6B46E2
:100DB0002A4601A92046FFF7A1FF002804D19DF88B
:100DC0000000002800D012207CBD1CB500206B461E
:100DD000012201A90190FFF791FF1CBD70B50546E6
:100DE0000E46002400F09EFC00F085FC641CFF28E9
:100DF00002D1082CF8D301E0082C03D300F096FCB4
:100E0000312070BDFE2802D03070012405E000249E
:100E100003E000F070FC3055641CAC42F9D300F0E4
:100E20006AFC044600F067FC00EB0424A9B23046DB
:100E300000F098F9A0424FF0FF0005D000F04CFC04
:100E400000F074FC202070BD00F046FC00F06EFC49
:100E5000002070BD7CB5044600200D4601906B4615
:100E6000012201A90920FFF749FF002803D19DF8BD
:100E7000000008B112207CBD29462046FFF7AEFFD6
:100E80007CBD1CB5002001906B46022201A90C20FC
:100E9000FFF734FF1CBD08B500200B46009003226D
:100EA00069460D20FFF72AFF08BD1CB5014601A8C1
:100EB000FFF76EFF6B46012201A91020FFF71EFF0E
:100EC000002804D19DF80000002800D012201CBD8D
:100ED00002460121112063E70246012112205FE74B
:100EE0000246012118205BE702460121192057E73D
:100EF0009B490246097800294FF0010101D12020C9
:100F000000E023204CE796490246097800294FF07B
:100F1000010101D1212000E0242041E770B5002427
:100F20008F49012801D14D6900E08D6900F0FAFB7D
:100F300000F0E1FB641CFF2801D0AC42F8D3AC42C6
:100F400001D2002400E03024FF2000F0C5FB00F0B7
:100F5000EDFB204670BD1CB5002101A8FFF718FF6E
:100F60006B46022201A92620FFF7C8FE002805D102
:100F70000220FFF7D3FF002800D033201CBD3EB570
:100F800000200C4602906B46042202A93A20FFF78B
:100F9000B5FE002803D19DF8001009B112203EBD16
:100FA00069460A1852782254401CC0B20428F8D36B
:100FB00000203EBD1CB5012802D18DF8040002E0DE
:100FC00000208DF805006B46012201A93B20FFF7A8
:100FD00095FE002804D19DF80000002800D01220C2
:100FE0001CBD2DE9F04106465D480F460024056909
:100FF00000F098FB00F07FFB641CFF2801D1AC429D
:10100000F8D3AC4203D300F091FB3120A6E6FE28D2
:1010100006D0FF2000F060FB00F088FB21209DE659
:10102000002403E000F067FB3855641CB442F9D398
:1010300000F061FB044600F05EFB00EB0424B1B25B
:10104000384600F08FF8A0424FF0FF0005D000F0C6
:1010500043FB00F06BFB202080E600F03DFB00F03E
:1010600065FB00207AE61CB50446002001906B4623
:10107000012201A93720FFF741FE00280ED19DF87B
:10108000000050B96B46012201A91620FFF736FE79
:10109000002803D19DF8000008B112201CBD01A951
:1010A0000420FFF79EFF0028F8D19DF807009DF867
:1010B00004109DF8062000EB01609DF8051009045E
:1010C00001EB02210844206000201CBD70B50446DD
:1010D0000E46154600F026FBFF2000F0FDFA012C1D
:1010E00001D1FC2000E0FE2000F0F6FA002404E02C
:1010F000285D00F0F1FA641CA4B2B442F8D3B1B296
:10110000284600F02FF80446000A00F0E5FAE0B2A5
:1011100000F0E2FA00F0EFFA00F008FB0120FFF720
:10112000FDFE002800D0322070BD10B500F0FAFAA4
:10113000FF2000F0D1FAFD2000F0CEFA00F0DBFA3B
:10114000BDE8104000F0F2BA70B50546002404E096
:10115000FF2000F0C1FA641CE4B2AC42F8D370BDC9
:10116000F400002030B50346002002461C4C0AE083
:1011700013F8015B521C85EA102534F8155092B221
:1011800085EA002080B28A42F2D330BDFCB500234C
:101190008DF8000001206D46C0F104028A5C2A54DB
:1011A000401CC0B20528F7D3002109276E5C00203F
:1011B0005A06120E06FA00F454403B46240600D4A8
:1011C0000023401C5340C0B20828F1D3491CC9B2C7
:1011D0000529EBD3012000EB4300C0B2FCBD0000A9
:1011E0002E210008401EFDD270477047F0B5FF4A1F
:1011F000FF4CFD4BC2E9043494614178057B01F05A
:101200000706C1F3C301C5F3820509B90320F0BD88
:10121000F84FDFF8E0C3795CF74FACF1200C79436D
:101220000A2791FBF7F15CF826608078B1FBF6F1B4
:101230001926704301EB8000ACF108011061495D93
:101240004143516115786DB9642568436943C0080D
:10125000C908C2E90401984200D91361A14207D923
:10126000546105E07843C00879431061C8085061B3
:10127000506990610020F0BD1FB569461020FFF74E
:10128000E9FD00283AD16846FFF7B0FF9DF8050058
:1012900000F00F0101208840D44988609DF80600C5
:1012A0009DF807208007000D00EB82009DF80820C4
:1012B00000EB92129DF80900521C8007430F9DF825
:1012C0000A0003EBD0139B1C9A404A600A78012A5B
:1012D0000BD1C0F3840280079DF80B30C00E521C66
:1012E00000EB5310401C504306E080069DF80B2095
:1012F000400E00EBD210401CC860002004B010BDAE
:10130000FEB5002634464FF47A75029601226B46EC
:1013100002A91046FFF7F2FC00280AD19DF8000050
:10132000641CC00702D0AC42F0D901E0AC4201D34A
:101330003420FEBD6B46012202A93720FFF7DEFCF8
:101340000028F6D16B46012202A92920FFF7D6FC1E
:1013500008B10620FEBD9DF800004108A34801D158
:10136000067001E0012101700020FEBD704708B544
:1013700000F05CF900F0DEF9012801D0012008BD81
:1013800000F0D0F9C820FFF7DFFE00F0CFF904200D
:10139000FFF7DAFE9948401EFDD2FFF716FD002840
:1013A000EDD1FFF7ADFF0028E9D169460420FFF732
:1013B000E6FD0028E3D19DF80100C0F301100328E9
:1013C00001D0042008BD0120FFF7F4FD0028F9D169
:1013D0004FF40070FFF769FD0028F3D1FFF74CFFD1
:1013E0000028EFD100F052F9002008BD70B5044686
:1013F0000D46164600F09EF9012801D0012070BD6F
:101400007A484068A04201D2052070BD2046FFF70F
:101410005FFD0028F9D131462846BDE87040FFF74E
:10142000E0BD2DE9F04104460E46154600F082F974
:10143000012802D00120BDE8F0816C49A01949685B
:10144000884201D90520F6E72046FFF745FD002830
:10145000F1D100244FF4007708E029463846FFF721
:10146000C0FD0028E7D105F50075641CB442F4D333
:10147000BDE8F041FFF705BDF8B504460D46164638
:1014800000F058F9012801D00120F8BD5748406804
:10149000A04201D20520F8BD00F04EF9012801D18B
:1014A0004220F8BD2046FFF71BFD0028F9D1324647
:1014B0002946FFF70BFE0028F3D169460220FFF70B
:1014C000EAFC0028EDD19DF8001019B99DF8011033
:1014D0000029E6D04020F8BD2DE9FC4104460D4628
:1014E000164600F027F9012802D00120BDE8FC8152
:1014F0003E4F60197968884201D90520F6E700F06F
:101500001BF9012801D14220F0E72046FFF7ECFC4F
:101510000028EBD14FF4007801900BE032464146B1
:101520000120FFF7D3FD04000ED1019806F50076E7
:10153000401C0190A842F1D3FFF7F7FD0120FFF70F
:10154000EDFC40B13220D1E7FFF79BFC0120FFF713
:10155000E5FC2046CAE7387848B901A8FFF783FDC3
:101560000028C3D10199A942C0D04120BEE76946F5
:101570000220FFF790FC0028B8D19DF8001019B99F
:101580009DF801100029B1D04020AFE770B50546A5
:101590000C4600F0CFF8012801D0012070BD134E99
:1015A00028197168884201D9052070BD00F0C4F87F
:1015B000012801D1422070BDF06812E02846FFF7F3
:1015C00097FC0028F7D1F168681E0844FFF79BFCE0
:1015D0000028F0D1FFF7BFFC0028ECD1F0680544EB
:1015E000241A201AEAD50BE074B70100F400002099
:1015F0007C19FCFF582300084054890040420F002A
:1016000074B12846FFF774FC0028D4D12819401E75
:10161000FFF779FC0028CED1FFF79DFC0028CAD146
:10162000002070BD4FF400707047000010B500F04E
:1016300085F8BDE8104010216448FEF7AEBE10B535
:1016400086B00020ADF804004FF48271ADF80610AA
:10165000ADF808000221ADF80A100121ADF80C1018
:101660004902ADF80E103021ADF81010ADF812009F
:101670000720574CADF8140001A92046FFF75CF88D
:1016800001212046FFF77CF806B010BD10B586B0EA
:101690000020ADF804004FF48271ADF80610ADF8EB
:1016A00008000221ADF80A100121ADF80C10490222
:1016B000ADF80E100821ADF81010ADF8120007209B
:1016C000434CADF8140001A92046FFF735F801217D
:1016D0002046FFF755F8D7E770B53D4C0546022187
:1016E0002046FFF7AFF80028F9D029462046BDE88C
:1016F0007040FFF763B810B5354C02212046FFF764
:10170000A1F80028F9D0FF212046FFF757F8012162
:101710002046FFF797F80028F9D02046FFF750F849
:10172000C0B210BD10212948FEF739BE102127484C
:10173000FEF733BE012070470020704710B586B019
:1017400001215420FEF78BFF01210803FEF787FFDC
:10175000E020ADF8140003248DF8164018208DF811
:10176000170005A91948FEF7ACFD0820ADF81400D4
:101770008DF8164010208DF8170005A91548FEF7C2
:10178000A0FD0020ADF800004FF48271ADF802100A
:10179000ADF804000221ADF806100121ADF80810E3
:1017A0004902ADF80A103021ADF80C10ADF80E006A
:1017B0000720074CADF8100069462046FEF7BCFF35
:1017C00001212046FEF7DCFF5EE700000008014033
:1017D000003001400018014070B5FEF733FE4FF4B1
:1017E00080352846FEF74CFEFEF777FE4E4908701E
:1017F000C0B2012820D10020FEF7A2FEAC11204685
:10180000FEF7ACFE2046FEF7A2FE0220FEF7F8FC33
:101810004FF4E0112846FEF77CFE0120FEF781FE22
:101820003920FEF745FE0028FAD00220FEF77CFEA4
:10183000FEF781FE0828FBD1012145F25C00FEF78E
:101840000EFF3A48FFF74CF8BDE870400120FFF763
:101850005BB842F210714843401EFDD27047F0B5AC
:101860000025ADF2044D2C46FFF7B6FFFFF7D5F982
:101870002FA000F0CBFAFFF717FA01463CA000F0CA
:10188000C5FAFFF72DFA10F0FF0F01D13EA000E0DE
:1018900041A000F0BBFA4448016844A000F0B6FA49
:1018A0004748016847A000F0B1FA4C4801684CA0D5
:1018B00000F0ACFA50A000F0A9FA29465BA000F0B5
:1018C000A5FA01A981AD4FF40076002201E0FF2CBA
:1018D00001D80C5502E0601C404208552A55641C92
:1018E000B442F4D33246002101A8FFF7E1F90146E2
:1018F00055A000F08BFA3246002181A8FFF7DEF9EF
:10190000014658A000F082FA4FF47A7700242A5D4D
:1019100021465BA000F07AFA3846FFF79AFF641C74
:10192000B442F4D3F2E700000C000020905F010005
:101930000D0A48656C6C6F2053544D33324631307C
:1019400058205374617274696E672C2054686973EF
:101950002069732073616D706C65206F662053443D
:1019600020666F7220535049206D6F6465210A0014
:101970004D53445F496E697420726573756C743A97
:101980002025640A00000000436172645479706588
:101990003A2053440A000000436172645479706530
:1019A0003A204D4D430A0000080000204D73644268
:1019B0006C6F636B436F756E743A2025640A000088
:1019C000040000204D7364426C6F636B53697A6549
:1019D0003A20256420427974650A00000000002046
:1019E0004D73644D656D6F727953697A653A202540
:1019F0006420427974650A0046756C6C20656172DA
:101A000073652C20706C65617365207761697469FA
:101A10006E672061626F7574203135207365636F66
:101A20006E64732E2E2E2E2E2E0A00004D53445F10
:101A30004561727365426C6F636B20726573756C80
:101A4000743A2025640A00004D53445F577269744C
:101A500065426C6F636B20726573756C743A2025F8
:101A6000640A00004D53445F52656164426C6F63C9
:101A70006B20726573756C743A2025640A0000004F
:101A80000D0A5265616420646174612066726F6D35
:101A90002053445F4361726420726573756C745B9C
:101AA00025645D3A2025640A000000002DE9FF5FEF
:101AB0004FF0000904460D464FF0010A4FF0800B2D
:101AC000C0F83C90E06A0768B84604E0E06AE16B61
:101AD0000768491CE163A16A8847060001D0252EEA
:101AE000F4D1B84504D03A4641462046236A984787
:101AF000002E70D0A64F00267F44D4E90A108847F4
:101B0000202807DB312805D2391811F8201C09B12B
:101B10000E43F2E7C4F838900027C4F834902A281E
:101B20000ED101CD04EB87014863D4E90A10884740
:101B3000012F26D1A16B00292DDA26F020062AE0FC
:101B4000A0F130010A291AD2BAF1000F17D004EB24
:101B50008708C8F8341008E0D8F8341001EB810188
:101B600000EB41003038C8F83400D4E90A10884747
:101B7000A0F130010A2902D2BAF1000FECD1012FF5
:101B800009D02E2807D1D4E90A1088477F1C022FDC
:101B900046F02006C3DB616B002903DA494246F0B8
:101BA00001066163F10701D026F01006B10701D5E7
:101BB00026F004066C2801D0682813D10746D4E922
:101BC0000A108847B84207D158466C2F01D04FF40D
:101BD0008060064316E08CE040216C2F00D0890025
:101BE0000E4312E04C2805D06A2803D0742801D097
:101BF0007A280AD149464C2803D059466A2800D091
:101C000000210E43D4E90A1088476528A6616FD0E9
:101C100014DC4728FBD008DC00286AD0412869D0B2
:101C20004528F4D04628F2D01CE0582857D0612827
:101C3000F5D063281DD0642874D013E06F2861D0DC
:101C400008DC6628E3D067287FD069286AD06E2830
:101C500039D007E0702842D073281BD0752861D096
:101C600078283CD0E269616A9047E06B401CE063F1
:101C700028E70122700606D5ADF8069001CD01A92E
:101C8000ADF804000BE08DF80190694601CD8DF8A8
:101C900000000EE002CD4FF0FF32700609D5206B38
:101CA0000028204602D0AFF300800BE7AFF300809E
:101CB00008E7206B0028204602D0AFF3008001E740
:101CC000AFF30080FEE6700504D4F00502D43006C0
:101CD00000D47006204602CDAFF30080F2E6310654
:101CE00009D5ED1D25F00705D5E90023083504E0E9
:101CF0002BE046E037E004CD4B4601462046AFF3EB
:101D00000080DFE6300606D5ED1D25F00705D5E994
:101D10000023083501E004CD4B462046AFF3008098
:101D2000D0E6FFE731060AD501462046ED1D25F035
:101D30000705D5E900230835AFF30080C2E604CDDE
:101D40000146204600F026F8BCE6ED1D25F007050B
:101D5000D5E900120835CDE902120146204602AA53
:101D6000AFF30080AEE6ED1D25F00705D5E90012C2
:101D70000835CDE902120146204602AAAFF30080E1
:101D8000A0E6E06B04B0BDE8F09F70477047704775
:101D90006C0800002DE9F041074610460026752921
:101DA00039468AB015A510D0AFF30080002802DABA
:101DB000404213A507E0B9698A0701D511A502E0E1
:101DC000490704D510A5012601E0AFF300800024E7
:101DD0000DF1080805E000F0FDF8303108F80410B6
:101DE000641C0028F7D12B462246384602A90096EB
:101DF00000F084F80AB0BDE8F081000000000000A7
:101E00002D0000002B000000200000000FB40A4A43
:101E10000A4910B503AB7944029800F0C1F80446B2
:101E20000548FEF7F7FE20B14FF0FF3010BC5DF81B
:101E300014FB2046FAE7000054010020F9EDFFFFF3
:101E40007047744600F02EF8A6460DB500F050F825
:101E50000400BDE80D4011007047020010B50020DD
:101E6000AFF3008010BDAFF30080FFF7EAFF03B4CB
:101E700000F034F903BC00F0D1F80FB400F033F9EE
:101E80000FBCFFF7ECFC00F0C3F801B5AFF3008026
:101E900000F01BF9BDE8014000F002F86FF000000F
:101EA000FEF7B6FE754600F09DF8AE4605006946A1
:101EB000534620F00700854618B020B5FEF75EF9BE
:101EC000BDE820404FF000064FF000074FF000083B
:101ED0004FF0000B21F00701AC46ACE8C009ACE8BC
:101EE000C009ACE8C009ACE8C0098D4670470000E5
:101EF0000148704770470000EC0100202DE9F047D1
:101F00008946044615469A468169DDF82080880690
:101F100004D5A06B21F01001A16100E00120002791
:101F2000A84200DD471B606B79194144401A606389
:101F3000A069C00602D42046AFF30080002608E066
:101F4000E2691AF80600616A9047E06B401C761C53
:101F5000E0634645F4DBA069C0060AD52046AFF32E
:101F6000008006E0E269616A30209047E06B401C27
:101F7000E063381EA7F10107F4DC07E0E26919F815
:101F80000500616A9047E06B401CE063281EA5F1E4
:101F90000105F3DC2046AFF30080BDE8F0870000C8
:101FA0000FB50846194691B0079008480992784441
:101FB000089000200C90064878440A9011A80B90D5
:101FC0006846FFF773FD15B000BD00003B00000040
:101FD0004B0000004FF00A01B0FBF1F202FB1101CF
:101FE0001046704700487047DC01002070B5054678
:101FF0000C46164604E0EB6914F8010B696A984731
:10200000B442F8D370BD01684A1C0260087870477A
:102010000446AFF300802046FFF737FF2DE9FE436B
:1020200004460D4600F072F80020CDE9004510206E
:1020300000BF02906846FEF79FF804460D46DDE9B2
:10204000000117461E46AFF30080AFF30080AFF3E8
:10205000008000210846AFF30080804600F048F879
:1020600000218146C0F800800846AFF30080411C83
:10207000C9F8041000210846AFF300800021C9F818
:1020800008000846AFF300800021C9F80C0008469C
:10209000AFF30080C9F81000AFF30080AFF3008009
:1020A000AFF30080AFF30080AFF30080AFF30080A8
:1020B000AFF30080AFF30080AFF3008003B02046A1
:1020C00029463A463346BDE8F08310B50020AFF309
:1020D0000080AFF30080AFF3008010BD6FF0000010
:1020E0006FF00201704710B5AFF3008010BD000023
:1020F0000148704770470000FC0100207047000055
:102100000148704770470000E001002010B5FFF75C
:10211000F7FF4FF00001016010BD02040608000047
:10212000000001020304010203040607080900007D
:102130002110422063308440A550C660E7700881BA
:1021400029914AA16BB18CC1ADD1CEE1EFF1311231
:10215000100273325222B5529442F772D66239930A
:1021600018837BB35AA3BDD39CC3FFF3DEE3622481
:10217000433420040114E664C774A44485546AA55A
:102180004BB528850995EEE5CFF5ACC58DD5533611
:10219000722611163006D776F6669556B4465BB7AA
:1021A0007AA719973887DFF7FEE79DD7BCC7C448E1
:1021B000E5588668A7784008611802282338CCC9FA
:1021C000EDD98EE9AFF9488969990AA92BB9F55A71
:1021D000D44AB77A966A711A500A333A122AFDDB4A
:1021E000DCCBBFFB9EEB799B588B3BBB1AABA66C41
:1021F000877CE44CC55C222C033C600C411CAEED9A
:102200008FFDECCDCDDD2AAD0BBD688D499D977E50
:10221000B66ED55EF44E133E322E511E700E9FFFE9
:10222000BEEFDDDFFCCF1BBF3AAF599F788F88919F
:10223000A981CAB1EBA10CD12DC14EF16FE1801083
:10224000A100C230E3200450254046706760B98386
:102250009893FBA3DAB33DC31CD37FE35EF3B102D3
:102260009012F322D2323542145277625672EAB596
:10227000CBA5A89589856EF54FE52CD50DC5E23423
:10228000C324A01481046674476424540544DBA766
:10229000FAB79987B8975FE77EF71DC73CD7D32673
:1022A000F2369106B01657667676154634564CD9F6
:1022B0006DC90EF92FE9C899E9898AB9ABA94458C3
:1022C000654806782768C018E1088238A3287DCBC6
:1022D0005CDB3FEB1EFBF98BD89BBBAB9ABB754A13
:1022E000545A376A167AF10AD01AB32A923A2EFD56
:1022F0000FED6CDD4DCDAABD8BADE89DC98D267C63
:10230000076C645C454CA23C832CE01CC10C1FEFA5
:102310003EFF5DCF7CDF9BAFBABFD98FF89F176EB2
:10232000367E554E745E932EB23ED10EF01E0000E6
:10233000010204081020408000CA9A3B00E1F50524
:102340008096980040420F00A086010010270000F0
:10235000E803000064000000000A0C0D0F14191EB1
:1023600023282D32373C46500400000800000000AE
:102370000000000200010000100000009C23000883
:1023800000000020F4000000400100089024000834
:10239000F40000204C0500005C0100080000000073
:1023A000000000000000000000000000990100088B
:1023B0009B0100089D0100089F010008A101000881
:1023C000000000000000000000000000000000000D
:1023D000A5010008A301000800000000A7010008F3
:1023E000A9010008AB010008AD010008AF01000819
:1023F000B1010008B3010008B5010008B7010008E9
:10240000B9010008BB010008BD010008BF010008B8
:10241000C1010008C3010008C5010008C701000888
:10242000C9010008CB010008CD010008CF01000858
:10243000D1010008D3010008D5010008D701000828
:10244000D9010008DB010008DD010008DF010008F8
:10245000E1010008E3010008E5010008E7010008C8
:10246000E9010008EB010008ED010008EF01000898
:10247000F1010008F3010008F5010008F701000868
:10248000F9010008FB010008FD010008FF01000838
:00000001FF
