:020000040800F2
:100000001812002085180008A9180008AB1800086D
:10001000AF180008B3180008B71800080000000067
:10002000000000000000000000000000BD180008F3
:10003000BB18000800000000BF180008C118000825
:10004000C3180008C5180008C7180008C918000818
:10005000E5180008E7180008E91800085B1900080F
:10006000BB190008451A0008471A0008491A000879
:100070004B1A00084D1A00084F1A0008511A0008C0
:10008000531A0008551A0008571A0008591A000890
:100090005B1A00085D1A00085F1A0008611A000860
:1000A000631A0008651A0008671A0008691A000830
:1000B0006B1A00086D1A00086F1A0008711A000800
:1000C000731A0008751A0008771A0008791A0008D0
:1000D0007B1A00087D1A0008071B0008731B000824
:1000E000751B0008771B0008791B00087B1B0008A4
:1000F0007D1B00087F1B0008811B0008831B000874
:10010000851B0008871B0008891B00088B1B000843
:100110008D1B00088F1B0008911B0008931B000813
:10012000951B0008971B0008991B00089B1B0008E3
:1001300000F002F800F05AF80AA090E8000C82449F
:100140008344AAF10107DA4501D100F04FF8AFF27C
:10015000090EBAE80F0013F0010F18BFFB1A43F0A5
:1001600001031847D4330000F43300000A444FF071
:10017000000C10F8013B13F0070408BF10F8014B06
:100180001D1108BF10F8015B641E05D010F8016B4B
:10019000641E01F8016BF9D113F0080F1EBF10F8AF
:1001A000014BAD1C0C1B09D16D1E58BF01F801CBD2
:1001B000FAD505E014F8016B01F8016B6D1EF9D555
:1001C0009142D6D37047000000230024002500266A
:1001D000103A28BF78C1FBD8520728BF30C148BFAA
:1001E0000B6070471FB51FBD10B510BD03F046F87A
:1001F0001146FFF7F7FF01F0E8FE03F064F803B4DF
:10020000FFF7F2FF03BC03F069F80000DC48006868
:1002100040F00100DA49086008464068D9490840C2
:10022000D749486008460068D7490840D449086063
:100230000846006820F4802008600846406820F4E2
:10024000FE004860002088607047CD49096821F4AD
:100250008031CB4A11601146096821F48021116078
:10026000B0F5803F03D0B0F5802F0ED106E0C44931
:10027000096841F48031C24A116007E0C049096849
:1002800041F4A021BE4A116000E000BF00BF7047EA
:1002900010B501460022002300204A11012A02D194
:1002A000B74C236806E0022A02D1B54C236A01E06C
:1002B000B34C636A01F01F02012494401C4201D038
:1002C000012000E0002010BD38B50020009000247F
:1002D000002500BF3120FFF7DBFF05460098401CDA
:1002E00000901DB90098B0F5A06FF3D13120FFF751
:1002F000CFFF08B1012400E00024204638BD0146AC
:1003000000209F4A106820F0F80040EAC100106009
:1003100070479E490860704702460020984B586815
:1003200020F47C1042EA01031843954B5860704753
:1003300096490866704701460020914A506820F0AF
:1003400003000843506070478D48406800F00C007F
:100350007047014600208A4A506820F0F0000843A8
:100360005060704701460020854A506820F4E060E4
:1003700008435060704701460020814A506820F4CD
:10038000605040EAC1005060704729B17C4A527AFF
:1003900002437B4B5A7204E0794A527A8243784B8B
:1003A0005A7270477A490860704701460020744AC3
:1003B000506820F440400843506070470021754A5F
:1003C00011706F4A82F82010012802D0042808D149
:1003D00003E001216F4A117004E005216D4A11709C
:1003E00000E000BF00BF70476B4908607047644978
:1003F000096A0143624A11627047674944390860DB
:10040000704730B500210022002400235C4D6D6848
:1004100005F00C0121B1042905D0082923D105E0FC
:100420005E4D056022E05D4D05601FE0544D6D6836
:1004300005F47012022505EB9242514D6D6805F4EA
:1004400080341CB9564D554305600BE04C4D6D682A
:1004500015F4003F03D0524D5543056002E04F4D67
:100460005543056002E04D4D056000BF00BF444D9F
:100470006D6805F0F00109094A4D6B5C0568DD40C7
:1004800045603F4D6D6805F4E061090A454D6B5CC0
:100490004568DD4085603A4D6D6805F46051C90AD4
:1004A000404D6B5C4568DD40C560354D6D6805F4B9
:1004B0004041890B3C4D6B5CC568B5FBF3F50561AC
:1004C00030BD29B12E4A526902432D4B5A6104E0D6
:1004D0002B4A526982432A4B5A61704729B1284AF4
:1004E00092690243264B9A6104E0254A926982434D
:1004F000234B9A61704729B1214AD2690243204BAC
:10050000DA6104E01E4AD26982431D4BDA6170470A
:1005100029B11B4AD2680243194BDA6004E0184A39
:10052000D2688243164BDA60704729B1144A1269C7
:100530000243134B1A6104E0114A12698243104BC3
:100540001A61704714494039086070470F49C86400
:1005500070470B49C87170470948406A40F0807085
:1005600007494862704701460020054A92680A42DE
:1005700001D0012000E000207047014988727047D7
:10058000001002400000FFF8FFFFF6FE00004242AC
:10059000D8004242201002408004424200127A00F9
:1005A00000093D00EA320008FA32000810490968E3
:1005B00001F038010E4A11601146096801431160CB
:1005C00070470B49096821F00801094A116011467A
:1005D00009680143116070470549096821F010015D
:1005E000034A116011460968014311607047000019
:1005F0000020024010B50446BD4820180FD0B0F5C9
:10060000806F16D0B0F5784F1DD101210803FFF798
:100610007FFF00214FF48050FFF77AFF14E00121A3
:100620008803FFF782FF00214FF48040FFF77DFF32
:100630000AE00121C803FFF778FF00214FF40040D2
:10064000FFF773FF00E000BF00BF10BD10B5002230
:10065000028802F441520B884C8823438C88234340
:10066000CC8823430C8923434C8923438C8923431F
:10067000CC8923431A430280838B4FF2FF742340BB
:1006800083830B8A038210BD2DE9F04786B00546AF
:100690000C464FF0000902274FF000084FF0010A06
:1006A0000026A88B4FF240010840A883022028842E
:1006B000B5F81C902089022801D100BF31E0A08844
:1006C00010B94FF0010A01E04FF0020A01A8FFF74C
:1006D00098FEE088B0F5007F0AD1019800EB800019
:1006E000400021890902B0FBF1F0401D86B20BE009
:1006F0004FEA4A1021894843019901EB81014900E1
:10070000B1FBF0F0401D86B20A20B6FBF0F606F011
:100710000108A6EB0800C0F34F074FF6FF7000EA90
:100720000828022F01DBFF2F02DD02274FF000080F
:1007300047EA0800E18808432884208840F40060E4
:1007400061880843A18808436189084340EA090990
:10075000A5F81C9006B0BDE8F0870021018041801B
:100760008180C180018141818181C1810721018214
:1007700070470021018041808180C1800221018178
:1007800000214181704721B1028842F0400202807D
:1007900004E002884FF6BF731A400280704721B10F
:1007A000828B42F48062828304E0828B4FF6FF33B7
:1007B0001A408283704730B5002400230C110125B4
:1007C000A540ABB21AB185881D43858002E08588BB
:1007D0009D43858030BD1AB183880B43838002E03E
:1007E00083888B4383807047818170470146888965
:1007F0007047A1F57E42FF3A04D0028842F480722D
:10080000028004E002884FF6FF631A4002807047BE
:1008100021B1828842F00402828004E082884FF68F
:10082000FB731A408280704702884FF2FF731A40B0
:10083000028002880A4302807047018841F4805197
:100840000180704721B1028842F40052028004E026
:1008500002884DF6FF731A4002807047024600205E
:10086000012901D0108B00E0908A70470146088A68
:100870007047B1F5804F04D1028842F48042028073
:1008800004E002884BF6FF731A400280704702466C
:10089000002013890B4201D0012000E000207047A6
:1008A000CA4302817047F0B50246002000240023AD
:1008B000002501F00F070126BE40B4B20B1101263E
:1008C0009E40B3B2968806EA03051689264202D0F6
:1008D0000DB1012000E00020F0BD10B5002201F0B4
:1008E0000F040123A3409AB2D343038110BD00003B
:1008F00000C8FFBF10B50446C549601A8C422FD00E
:1009000009DCC448201810D0B0F5806F16D0B0F5BF
:10091000006F4AD11BE0B0F5806F2AD0B0F5006FB0
:1009200030D0B0F5406F40D135E001210420FFF711
:10093000EFFD00210420FFF7EBFD37E00121082047
:10094000FFF7E6FD00210820FFF7E2FD2EE0012180
:100950001020FFF7DDFD00211020FFF7D9FD25E075
:1009600001212020FFF7D4FD00212020FFF7D0FD3A
:100970001CE001214020FFF7CBFD00214020FFF7C4
:10098000C7FD13E001218020FFF7C2FD0021802078
:10099000FFF7BEFD0AE001210802FFF7B9FD0021C3
:1009A0004FF48070FFF7B4FD00E000BF00BF10BD42
:1009B00010B501210846FFF7ABFD00210120FFF72C
:1009C000A7FD10BD2DE9F0410246002500260020BC
:1009D00000230024002791F803C00CF00F0591F8C4
:1009E00003C01CF0100F03D091F802C04CEA0505BB
:1009F00091F800C0BCF1000F31D0146800202BE04A
:100A00004FF0010C0CFA00F3B1F800C00CEA030639
:100A10009E4220D183004FF00F0C0CFA03F7BC4329
:100A200005FA03FC4CEA040491F803C0BCF1280F5A
:100A300006D14FF0010C0CFA00FCC2F814C00AE019
:100A400091F803C0BCF1480F05D14FF0010C0CFA2E
:100A500000FCC2F810C0401C0828D1D31460B1F8C3
:100A600000C0BCF1FF0F34DD546800202EE000F11F
:100A7000080C4FF0010808FA0CF3B1F800C00CEABA
:100A800003069E4221D183004FF00F0C0CFA03F7AE
:100A9000BC4305FA03FC4CEA040491F803C0BCF122
:100AA000280F05D100F1080C08FA0CF8C2F81480E0
:100AB00091F803C0BCF1480F07D100F1080C4FF0CA
:100AC000010808FA0CF8C2F81080401C0828CED3A0
:100AD0005460BDE8F0814FF6FF7101800221817002
:100AE0000421C17070470246002093680B4201D078
:100AF000012000E0002070470146886880B27047FE
:100B000002460020D3680B4201D0012000E0002003
:100B100070470146C86880B2704701617047416103
:100B200070470AB1016100E041617047C1607047E0
:100B30004FF480320A4382618161826182698269F5
:100B4000704702460020344B18684FF680731840F7
:100B500040EA02100843304B186070472F49C861C3
:100B60007047F0B50A4600230024002100252A4ED4
:100B70007168C0F3034583B200F44016B6F5401F18
:100B800008D121F07061244E766826F07066224FFD
:100B90007E6012E000F48016B6F5801F06D10326B1
:100BA00006FA05F4A14341F0706106E0460D3601F6
:100BB00003FA06F6B14341F0706122B1460D3601E9
:100BC00003FA06F63143144E7160F0BD30B50022D1
:100BD0008B071C0F0F2303FA04F20F4B08338C1002
:100BE00053F8243093430C4C08348D1044F82530CE
:100BF00023468C1053F824308C07240F00FA04F499
:100C00002343054C08348D1044F8253030BD0000D6
:100C10000014014000F8FEBF000001400000204227
:100C200010B50446D749601A8C422BD006DCD64852
:100C3000201813D0B0F5806F38D119E0B0F5806F6F
:100C40002AD0B0F56C4F31D101218803FFF760FC49
:100C500000214FF48040FFF75BFC28E001214804AD
:100C6000FFF763FC00214FF40030FFF75EFC1EE04D
:100C700001218804FFF759FC00214FF48020FFF781
:100C800054FC14E00121C804FFF74FFC00214FF48D
:100C90000020FFF74AFC0AE001210805FFF745FCA8
:100CA00000214FF48010FFF740FC00E000BF00BFC0
:100CB00010BD2DE9F04786B005460E460024A24639
:100CC00000BF00BF00272F462C8A4CF6FF7004405F
:100CD000F08804432C82AC894EF6F3100440B088AF
:100CE00031890843718908430443AC81AC8A4FF6CB
:100CF000FF400440B0890443AC8201A8FFF781FBA8
:100D0000A248874202D1DDF810A001E0DDF80CA076
:100D10000AEBCA0000EB0A1031688900B0FBF1F859
:100D20006420B8FBF0F004012009642101FB108964
:100D3000322000EB0910B0FBF1F000F00F0004438B
:100D40002C8106B0BDE8F0874FF4165101600021F8
:100D50008180C18001810C21418100218181704706
:100D600010B502460020108A4FF2FF0318400B888E
:100D70004C8823438C882343CC8823431843108218
:100D800010BD0021018041808180C180704721B168
:100D9000828942F40052828104E082894DF6FF7319
:100DA0001A4082817047F0B50346002400260025D2
:100DB00000201846C1F3421401F01F06012707FA6C
:100DC00006F5012C01D10C3004E0022C01D11030C9
:100DD00000E014301AB107682F43076002E007688B
:100DE000AF430760F0BD1AB1838A0B43838202E0F0
:100DF000838A8B4383827047028A4FF6F0731A40CE
:100E00000282028A0A430282704782894FF2FF738C
:100E10001A40828182890A438281704721B1828986
:100E200042F00202828104E082894FF6FD731A408B
:100E300082817047028A4FF6DF731A400282028A6B
:100E40000A430282704721B1028A42F48042028240
:100E500004E0028A4BF6FF731A4002827047C1F326
:100E600008028280704701468888C0F308007047F6
:100E7000818941F0010181817047028BD2B20283E6
:100E8000028B42EA012202837047028B02F47F4206
:100E90000283028B0A430283704721B1828A42F0A7
:100EA0002002828204E0828A4FF6DF731A40828237
:100EB000704721B1828A42F01002828204E0828A65
:100EC0004FF6EF731A408282704721B1828A42F056
:100ED0000802828204E0828A4FF6F7731A40828207
:100EE0007047828A4FF6FB731A408282828A0A43D5
:100EF0008282704721B1828A42F00202828204E03B
:100F0000828A4FF6FD731A408282704702460020A3
:100F100013880B4201D0012000E000207047CA4333
:100F20000280704770B502460B4600240021002560
:100F30000020C3F3421503F01F01012606FA01F158
:100F4000012D02D19689314006E0022D02D1168A88
:100F5000314001E0968A31401C12012606FA04F461
:100F60001688344011B10CB1012000E0002070BDA2
:100F700010B5002200230A1201249440A3B2DC43DE
:100F8000048010BD004C004000BCFFBF0038014091
:100F9000042808D14FF0E021096941F004014FF025
:100FA000E022116107E04FF0E021096921F004011E
:100FB0004FF0E022116170474FF0E0214861704727
:100FC000012808D14FF0E021096941F001014FF0FB
:100FD000E02211610EE0811C08D14FF0E021096987
:100FE00021F001014FF0E022116103E000214FF0F8
:100FF000E0229161704740B14FF0E021096941F072
:1010000002014FF0E022116107E04FF0E021096991
:1010100021F002014FF0E022116170474FF0E02013
:101020008069704710B50146002200230020CB10D4
:10103000022B03D14FF0E024226902E04FF0E024BC
:10104000E26901248C40144201D0012000E000201C
:1010500010BD000010B50120FFF774FA0020FFF763
:1010600071FA10BD2249086070472149091F0860C4
:1010700070471F49843108607047014600201D4AAF
:1010800010884FF67F42104008431A4A108070477C
:1010900001460020174A10884FF68072104008431E
:1010A000144A10807047134A2C3A81527047014607
:1010B00010482C38085A70470D489C300068C0B260
:1010C00070470C480830008840F001000949083199
:1010D000088070470648A0300068C0B270470548D5
:1010E0000830008840F0020002490831088070474B
:1010F00004860D422C6C004029B14F4A12880243ED
:101100004D4B1A8004E04C4A128882434A4B1A80A5
:1011100070474948001D008840F010004649091DED
:10112000088070474448001D00884FF6EF71084062
:101130004149091D0880704700213F481C30018843
:10114000001F008841EA0040704700B50246FFF7E3
:10115000E0FF100C384918310880091D0A80FFF79C
:10116000E1FF00BD00B50246FFF7D3FFC2F3034025
:10117000314908310880091D0A80FFF7D3FF00BDFF
:1011800000B50246FFF7C5FF100C2B49203108803F
:10119000091D0A80FFF7C6FF00BD00202649103157
:1011A00009880907080B2449143109880843704746
:1011B00000BF2148001D008810F0200FF9D07047B3
:1011C0001D48001D00884FF6F77108401A49091D97
:1011D000088000BF1848001D008810F0080FF9D0E3
:1011E000704701460020144A121D12880A4201D09D
:1011F000012000E0002070470F49091D0988814344
:101200000D4A121D11807047014600200A4A121D26
:1012100012880A40D0B2084A12880A4202D008B1A5
:10122000012000E0002070470349091D098881431F
:10123000014A121D11807047002800400020411E05
:10124000EE4A11606FF07042ED49C1F884204FF012
:10125000FF314FF0E022C2F880126FF07042E9498E
:101260000A6000BF04E00022E74941F82020401C4A
:101270000F28F8D3704700204FF02061E34A116037
:101280000021121D1160E249121D11600021121D82
:101290001160121D116000BF05E00022DB4914310E
:1012A00041F82020401C0328F7D30021D74A2032E0
:1012B0001160491E121D1160121D1160121D116076
:1012C0007047D3490143D14A083211607047F0B5E5
:1012D00000210022002300250F24C678002E36D0DE
:1012E000CA4E0836366806F4E066C6F5E066310A8E
:1012F000C1F10405CC40467806FA05F1867826400F
:10130000314309010678B607F60EB140BE4E0778A4
:10131000BF1056F827200678B607F70EFF2606FA04
:1013200007F39A4319400A43B74E0778BF1046F8AF
:101330002720067806F01F070126BE4007787F1198
:101340004FF0E02C0CEB8707C7F800610BE0067844
:1013500006F01F070126BE40A84F90F800C04FEAD4
:101360006C1C47F82C60F0BD002101704170817049
:10137000C170704710B500F06EFA10BD10B500F0E6
:1013800068FA10BD10B500F06BFA10BD10B500F092
:1013900069FA10BD10B50446200100F068FA10BDCE
:1013A00010B500F067FA10BD98480068C0F3093026
:1013B000704710B501460020002201F01F040123F0
:1013C00003FA04F28D4B80334C1153F82430134050
:1013D000934201D1012000E0002010BD8D4908603A
:1013E000704700F01F0201219140864A121F4311ED
:1013F00042F82310704785480068C0F30900704721
:1014000010B501460020002201F01F04012303FA59
:1014100004F27C4B7C334C1153F82430134093423C
:1014200001D1012000E0002010BD7848001F0068B5
:101430007047794A0A400243744B1B1D1A6070477B
:101440007348001D71490831086070477048401C9E
:101450006E4908310860704739B16C4A0C32126825
:1014600002436A4B0C331A6006E0684A0C32126879
:101470008243664B0C331A60704710B5002200F0AF
:101480001F04012303FA04F239B1604B20331B68B7
:1014900013435E4C2034236006E05C4B20331B6812
:1014A00093435A4C2034236010BDF0B503460C46DC
:1014B00015460020FF2200260021544F08373F68C0
:1014C00007F4E067C7F5E067390AC1F10400CA40D4
:1014D00004FA00F105EA02073943090103F0C000EC
:1014E0008009C3F30122D700B9404FEAC20CFF279D
:1014F00007FA0CF6454F143757F82070B743DFF85A
:101500000CC10CF1140C4CF82070674657F8207091
:101510000F434CF82070F0BD10B5024600200023A8
:101520000021910A01F00F01012404FA01F1374C66
:101530002034246804EA01038B4201D1012000E039
:10154000002010BD002100F01F01304A1268012365
:101550008B401A432D4B1A60704710B5002100F0E4
:101560001F012A4A12684B1E01249C402243274B2C
:101570001A6010BD10B50246002000230021C2F3FE
:101580008331012404FA01F1204C2034246804EA58
:1015900001038B4201D1012000E0002010BD30B5D5
:1015A0000146002000220023C1F38142C1F3015310
:1015B0001AB9164C2834206811E0012A0CD1134CBA
:1015C00024342468DD0024FA05F0022B02D000F058
:1015D0000F0004E0C0B202E00C4C2C34206830BD97
:1015E000014600200022C1F380521AB9074B303364
:1015F000186802E0054B34331868704780E100E05A
:1016000000E100E084E200E000E400E004ED00E03E
:101610000000FA0500EF00E080FFFF1F10B5012178
:101620000807FEF782FF00214FF08050FEF77DFF94
:1016300010BD284908627047264908617047014675
:101640000020254A106820F0E00008431060704731
:1016500022490860704770B505460E4600241E48B2
:10166000046824F003042C4304601D48006840F023
:1016700004001B490860012E02D100F0C5F801E00A
:1016800000F0C4F870BD10B51348006840F00400C5
:10169000114908600846006840F0020008601048E0
:1016A000006840F004000E49086000F0ADF810BD7D
:1016B00001460020084A52680A4201D0012000E099
:1016C000002070470449096841EA8001024A11601C
:1016D0007047000000000E4200700040A0000E4263
:1016E00010ED00E0002046490860091D0860091D52
:1016F0000860091D0860434841491431086070477B
:10170000817900293ED03E490968026891433C4AEC
:101710001160111D096802689143394A121D116058
:101720000179121F8958026811430279344BD15054
:1017300033490831096802689143314A083211601F
:10174000111D0968026891432D4A0C3211604179DC
:1017500010290ED1111F096802681143284A083266
:101760001160111D096802681143254A0C3211608D
:1017700010E04179224A8958026811434279204B8E
:10178000D15007E001791E4A8958026891430279D5
:101790001B4BD15070470021016001710C21417138
:1017A0000021817170471649103109680143144ABC
:1017B00010321160704701460020114A143212683D
:1017C0000A4201D0012000E0002070470C4914318A
:1017D00008607047014600200022094B1B6803EA9D
:1017E0000102074B14331B680B4202D00AB10120DF
:1017F00000E0002070470249143108607047000083
:1018000000040140FFFF070030BF704720BF704752
:1018100040BF7047BFF36F8F7047BFF34F8F704764
:10182000BFF35F8F704701DF7047EFF3148070479D
:1018300080F31488BFF36F8F7047EFF30980704710
:1018400080F309887047EFF30880704780F30888B9
:10185000704762B6704772B67047EFF310807047FA
:1018600071B6704761B67047EFF31380704780F32D
:1018700011887047EFF31280704740BA704700BA82
:10188000704700000348004703480449044A054BD9
:101890007047000031010008180A002018120020CB
:1018A000180E0020180E0020704700BFFEE700BF92
:1018B000FEE700BFFEE700BFFEE7704770477047D6
:1018C000704770477047704710B50120FFF79CFCC8
:1018D00038B10120FFF7A8FCB0480068401CAF49B0
:1018E000086010BD7047704710B526E0002414E072
:1018F000AB480068C0EB0010C0EBC000A94A02EB87
:101900004000015DA848FFF7AAFA00BF8021A64861
:10191000FFF7FCFA0028F9D0641CA448A049096824
:10192000405CA042E4DC9E480068401C052190FB1E
:10193000F1F201FB12009A49086099480068401CC6
:10194000052190FBF1F201FB1200994909688842D8
:10195000CCD10120FFF73AFF10BD10B520E095482B
:101960000068401C052190FBF1F201FB1200914937
:101970000860002412E08F48006800EB40008E4AA7
:1019800002EB8000015D8848FFF769FA00BF802103
:101990008548FFF7BBFA0028F9D0641C0C2CEADB61
:1019A00084480068401C052190FBF1F201FB120005
:1019B000824909688842D2D110BD10B535E080480F
:1019C0000068401C052190FBF1F201FB12007C49EC
:1019D0000860002427E07B480068401C79490860C3
:1019E0007748006800EB4000734901EB8000015D1F
:1019F0007548744A1268815472480068B0F5007FD7
:101A000010D14FF40072714801686F4801F0B8FBC3
:101A10006F4908606D480068401C6C4908600020F0
:101A200068490860641C0C2CD5DB65480068401CC4
:101A3000052190FBF1F201FB120060490968884220
:101A4000BDDB10BD704770477047704770477047E7
:101A500070477047704770477047704770477047CE
:101A600070477047704770477047704770477047BE
:101A700070477047704770477047704710B5202116
:101A80005448FFF743FA01283CD15248FFF7EBF9DD
:101A9000C4B247480068C0EB0010C0EBC000414929
:101AA00001EB40004C49096844544B480068401C15
:101AB0004949086040F225514648FFF759FA242C5D
:101AC00020D145480078401EC1B23848384A1268D3
:101AD000815401204049086035480068401C0521B8
:101AE00090FBF1F201FB12003149086024200968E3
:101AF000C1EB0111C1EBC1012A4A02F8110001201A
:101B0000FFF751FE10BD10B540F225513348FFF7E5
:101B100009FA68B33148FFF7A6F9C1B2274800684F
:101B200000EB4000244A02EB80022D480368006865
:101B3000401C2B4C2060D15440F225512748FFF720
:101B400017FA204600680C2812D1002021460860B0
:101B50001A480068401C052190FBF1F201FB1200BD
:101B6000164908600420FFF71EFE0220FFF71BFE47
:101B700010BD704770477047704770477047704797
:101B8000704770477047704770477047704770479D
:101B900070477047704770477047704730000020AB
:101BA00010000020340100200048004024000020E4
:101BB00000000020140000204E0500200800002036
:101BC00018000020200000208A0500201C000020B2
:101BD0002C00002000380140040000200044004098
:101BE0000C00002010B5FEF711FB4FF48030FEF71B
:101BF0002CFBFEF769FB0446012C47D10020FEF7C1
:101C0000A8FB0020FEF7B7FBA002FEF7ABFB02200B
:101C1000FEF7CCFC0120FEF7DFFC4FF4E0112004BE
:101C2000FEF77AFB0120FEF783FB00BF3920FEF7A9
:101C30002FFB0028FAD00220FEF77DFB00BFFEF745
:101C400083FB0828FBD101214002FEF747FC01215C
:101C50000420FEF743FC01210820FEF73FFC012190
:101C60008804FEF748FC01218803FEF737FC0121B8
:101C70004804FEF740FC01211020FEF72FFC012153
:101C80001020FEF72BFC0120FFF7B5F910BD08B5B9
:101C9000E020ADF8000003208DF8020018208DF838
:101CA00003006946F948FEF78DFE1020ADF80000EC
:101CB00003208DF8020010208DF803006946F348D8
:101CC000FEF780FE4FF40070ADF8000003208DF8A1
:101CD000020018208DF803006946EC48FEF772FEFA
:101CE0004FF48060ADF8000004208DF803006946D1
:101CF000E648FEF767FE0420ADF8000003208DF8EB
:101D0000020018208DF803006946E048FEF75AFEED
:101D10000820ADF8000004208DF803006946DB4878
:101D2000FEF750FE4FF48060ADF8000003208DF800
:101D3000020018208DF803006946D548FEF742FEE0
:101D40004FF40060ADF8000004208DF803006946F0
:101D5000CF48FEF737FE4FF48040ADF80000032077
:101D60008DF8020010208DF803006946C948FEF77F
:101D700029FE4FF40040ADF8000003208DF802006A
:101D800010208DF803006946C248FEF71BFE402074
:101D9000ADF8000003208DF8020010208DF803003C
:101DA0006946BC48FEF70EFE0220ADF80000042094
:101DB0008DF803006946B748FEF704FE0420ADF82D
:101DC00000008DF803006946B248FEF7FBFD0820CD
:101DD000ADF8000004208DF803006946AD48FEF719
:101DE000F1FD08BD10B50020AB49088088800220B5
:101DF000C880012008814002488100208881C88174
:101E0000072008824FF482704880A448FEF71EFC29
:101E10000121A248FEF7B7FC10BD1FB54FF41650C4
:101E200000900020ADF80400ADF80600ADF8080001
:101E3000ADF80C000C20ADF80A0069469848FEF792
:101E400038FF69469748FEF734FF69469648FEF723
:101E500030FF01219248FEF79AFF01219148FEF7D9
:101E600096FF01219048FEF792FF1FBD08B54FF481
:101E70008060FFF726FA03208DF8000000208DF81F
:101E800001008DF8020001208DF803006846FFF77D
:101E90001EFA25208DF8000001208DF80100002099
:101EA0008DF8020001208DF803006846FFF70FFA55
:101EB00026208DF8000001208DF8010000208DF80B
:101EC000020001208DF803006846FFF700FA0620A3
:101ED0008DF8000003208DF8010000208DF802002D
:101EE00001208DF803006846FFF7F1F907208DF80F
:101EF000000003208DF8010001208DF802008DF80C
:101F000003006846FFF7E3F908208DF8000002207F
:101F10008DF8010000208DF8020001208DF80300EB
:101F20006846FFF7D4F908BD1CB50120FFF763FC34
:101F30000220FFF760FC0420FFF75DFC0121022076
:101F4000FEF744FE02210846FEF740FE0321022070
:101F5000FEF73CFE0720009000208DF804000C20C6
:101F60008DF8050001208DF806006846FFF7C8FBD4
:101F70001CBD10B501214FF0C050FEF7BCFA012086
:101F8000FFF757FBFFF766F80120FEF717FA00BFCF
:101F90004120FEF77DF90028FAD04FF48070FEF75B
:101FA00026FA0120FEF729FAFFF70AF9FFF700F9F0
:101FB00001210846FFF7A0F8FFF7FAF847F6FF708F
:101FC000FFF7D0F8FFF7F4F810BD2DE9F041012735
:101FD000FFF708FEFFF7CDFFFFF759FEFFF702FFFF
:101FE000FFF744FFFFF719FFFFF79EFF01F0B6F878
:101FF000074601F007F9C7B22C480168002001F03C
:10200000B4F84FF480412348FEF787FD00202849AB
:1020100008602AE041212448FEF721FF00BF80210B
:102020002148FEF773FF0028F9D020211E48FEF753
:102030006DFF012819D11C48FEF715FF422814D165
:1020400000240CE01B48015D1748FEF708FF00BFA5
:1020500080211548FEF75AFF0028F9D0641C154866
:1020600001F0EAF8A042EDD803E0114800680A2820
:10207000D0DB00BF0E4800680A2831D14FF4804100
:102080000448FEF74CFD00241BE00000000801405E
:10209000000C0140001001408A090020003001407E
:1020A000003801400044004000480040300100205A
:1020B0003000002034000020BE48005DBE490855B5
:1020C000641CBC4801F0B8F8A042F5D84FF4007287
:1020D0000021B94801F054F807460020BDE8F0811E
:1020E000002400E0641CB4F57A6FFBDB0BE02021D8
:1020F000B248FEF70BFF012805D1B048FEF7B3FE4A
:102100004E2800D100E0F2E700BF0020AC49086093
:10211000012515E02021AB48FEF7F8FE01280FD17C
:102120000125A848FEF79FFE06463146A348FEF764
:1021300096FE00BF8021A148FEF7E8FE0028F9D0F6
:102140009F480068B0F5967F0ADA20219B48FEF789
:10215000DDFE0128DED19948FEF785FE4728D9D15A
:102160006DBB4FF480419848FEF7D9FC00240CE089
:102170009648015D9148FEF772FE00BF80218F48AE
:10218000FEF7C4FE0028F9D0641C904801F054F812
:10219000A042EDD8002404E08C48005D8649085533
:1021A000641C8A4801F048F8A042F5D84FF4007248
:1021B0000121814800F0E4FF074600208EE700245B
:1021C0000CE08348015D7D48FEF749FE00BF802199
:1021D0007A48FEF79BFE0028F9D0641C7C4801F089
:1021E0002BF8A042EDD8002400E0641CB4F57A6F0F
:1021F000FBDB0BE020217148FEF788FE012805D1AA
:102200006E48FEF730FE4E2800D100E0F2E700BF36
:1022100043216A48FEF723FE00BF80216748FEF78E
:1022200075FE0028F9D0002065490860002500BF30
:102230006348006814280ADA20216048FEF766FE29
:102240000128F5D15D48FEF70EFE4528F0D15C4827
:102250000068B0F10A0601D4304600E0704202285E
:1022600032DD5648FEF7FFFD45282DD14FF4804161
:102270005548FEF754FC00240CE05648015D4F48D9
:10228000FEF7EDFD00BF80214C48FEF73FFE002821
:10229000F9D0641C4F4800F0CFFFA042EDD80024D5
:1022A00004E04C48005D44490855641C494800F06E
:1022B000C3FFA042F5D84FF4007202213E4800F05F
:1022C0005FFF0746002009E700240CE04248015D5B
:1022D0003A48FEF7C4FD00BF80213848FEF716FEDD
:1022E0000028F9D0641C3C4800F0A6FFA042EDD8BD
:1022F00000240CE03948015D3048FEF7B0FD00BF16
:1023000080212E48FEF702FE0028F9D0641C3348D5
:1023100000F092FFA042EDD800BF20212748FEF731
:10232000F5FD0128F9D12548FEF79DFD4C28F4D193
:1023300000240CE02A48015D2048FEF790FD00BF14
:1023400080211E48FEF7E2FD0028F9D0641C2448D5
:1023500000F072FFA042EDD8012240F22551194849
:10236000FEF721FD012240F225511E48FEF71BFD1C
:102370000020134908601BE0114800680A2817DB99
:1023800040211148FEF7C9FB00240CE01648015D0E
:102390000A48FEF764FD00BF80210848FEF7B6FD3D
:1023A0000028F9D0641C104800F046FFA042EDD888
:1023B000E2E70000DD0000208A0500200048004020
:1023C00030000020003801400010014000010020D2
:1023D0005E00002011010020720000208800002013
:1023E000B600002000440040C60000202DE9F04760
:1023F00006460F469046994600F09CFE06F03F01C7
:1024000041F0400000F06EFE032403E0385D00F070
:1024100069FE641E002CF9DA06F03F0141F040002D
:10242000394600F097FA0546284600F05BFE4FF06B
:10243000000AB8F1010F09D0B8F1020F09D0B8F1C4
:10244000030F09D0B8F1040F0CD108E04FF0010AD6
:1024500010E04FF0010A0DE04FF0020A0AE04FF0E1
:10246000050A07E0FF2000F03DFE00F069FE1020A5
:10247000BDE8F08700BF002400BF00F041FE054624
:10248000641C15F0800F01D0642CF6DB642C03DB98
:1024900000F056FE1120EBE7AAF1010405E009F86F
:1024A000045000F02DFE0546641E002CF7DA00F003
:1024B00047FE0020DCE70A0EC2700A0C82700A0A8E
:1024C0004270017070472DE9FC4107460D461446E5
:1024D0006402214601A8FFF7EEFF6B462A4601A9D8
:1024E0003846FFF783FF064616B13046BDE8FC814B
:1024F0009DF8000008B11220F8E70020F6E71CB5AF
:10250000002001906B46012201A9FFF76FFF1CBD5F
:102510002DE9F04107460E46002400F00BFE00BFF7
:1025200000F0EEFD0546641CFF2D01D1082CF7D309
:10253000082C04D300F004FE3120BDE8F081FE2D0C
:1025400002D03570012400E0002403E000F0D8FD43
:102550003055641CBC42F9D300F0D2FD044600F0B3
:10256000CFFD00EB0424B9B2304600F0DFF9A04201
:1025700006D0FF2000F0B6FD00F0E2FD2020DCE7F1
:10258000FF2000F0AFFD00F0DBFD0020D5E77CB5BB
:1025900005460E46002001906B46012201A9092044
:1025A000FFF724FF04460CB120467CBD9DF80000D7
:1025B00008B11220F9E731462846FFF7A9FFF4E7F2
:1025C0001CB5002001906B46022201A90C20FFF7E8
:1025D0000DFF1CBD38B505460C4600200090234673
:1025E000032269460D20FFF701FF38BD7CB5044684
:1025F000214601A8FFF75FFF6B46012201A91020C9
:10260000FFF7F4FE05460DB128467CBD9DF800009D
:1026100008B11220F9E70020F7E710B5044622467A
:1026200001211120FFF74FFF10BD10B504462246CF
:1026300001211220FFF747FF10BD10B504462246C6
:1026400001211820FFF73FFF10BD10B504462246B8
:1026500001211920FFF737FF10BD10B50446B2481D
:10266000007828B9224601212020FFF72CFF10BD59
:10267000224601212320FFF726FFF8E710B5044684
:10268000A948007828B9224601212120FFF71BFF25
:1026900010BD224601212420FFF715FFF8E72DE9A0
:1026A000F04107460025012F02D19F48446901E00F
:1026B0009D48846900F03EFD00BF00F021FD064604
:1026C0006D1CFF2E01D0A542F7D3A54201D20026F2
:1026D00000E03026FF2000F005FD00F031FD30461F
:1026E000BDE8F0811CB5002101A8FFF7E4FE6B46B0
:1026F000022201A92620FFF779FE04460CB12046EC
:102700001CBD0220FFF7CBFF08B13320F8E7002003
:10271000F6E7FEB506460D46002002906B46042201
:1027200002A93A20FFF762FE04460CB12046FEBD26
:102730009DF8000008B11220F9E7002405E0601CB4
:102740001DF800002855601CC4B2042CF7DB0020E3
:10275000EDE77CB50546012D02D18DF8040002E0BD
:1027600000208DF805006B46012201A93B20FFF7F0
:102770003DFE04460CB120467CBD9DF8000008B12A
:102780001220F9E70020F7E72DE9F04106460F4651
:1027900000246548D0F8108000F0CCFC00BF00F0A9
:1027A000AFFC0546641CFF2D01D14445F7D34445D9
:1027B00004D300F0C5FC3120BDE8F081FE2D06D029
:1027C000FF2000F08FFC00F0BBFC2120F4E7002488
:1027D00003E000F095FC3855641CB442F9D300F0D6
:1027E0008FFC044600F08CFC00EB0424B1B23846A8
:1027F00000F09CF8A04206D0FF2000F073FC00F02F
:102800009FFC2020D8E7FF2000F06CFC00F098FC33
:102810000020D1E77CB50546002001906B460122DF
:1028200001A93720FFF7E2FD04460CB120467CBD2C
:102830009DF8000008B11220F9E76B46012201A9BA
:102840001620FFF7D3FD04460CB12046EFE79DF8B4
:10285000000008B11220EAE701A90420FFF794FF65
:1028600004460CB12046E2E79DF8040000069DF8FE
:10287000051000EB01409DF8061000EB01209DF8CB
:102880000710084428600020D1E72DE9F0410746F1
:102890000D46164600F04EFCFF2000F023FC012FF1
:1028A00003D1FC2000F01EFC02E0FE2000F01AFC28
:1028B000002404E0305D00F015FC601C84B2AC42E2
:1028C000F8D3A9B2304600F031F80446200A00F0EF
:1028D00009FCE0B200F006FC00F012FC804600F0BB
:1028E0002FFC0120FFF7DBFE10B13220BDE8F081A4
:1028F0000020FBE710B500F01DFCFF2000F0F2FB0C
:10290000FD2000F0EFFB00F0FBFB00F019FC10BD18
:1029100070B50446002504E0FF2000F0E3FB681CCE
:10292000C5B2A542F8DB70BD9C09002030B5024657
:10293000002000230BE012F8015B85EA20241D4DE6
:1029400035F8144084EA0024A0B25C1CA3B28B4288
:10295000F1DB30BD7CB504460D4600228DF8004009
:10296000012106E0C1F10400285C0DF80100481CBB
:10297000C1B20529F6DB002114E000230EE0500669
:10298000020E1DF801009840504010F0800F01D059
:10299000092000E000204240581CC3B2082BEEDBA7
:1029A000481CC1B20529E8DB012000EB4200C0B29F
:1029B0007CBD0000FE32000800BF0100A0F1010054
:1029C000FBD17047704770B50146F848F84E30614A
:1029D000F8487061B061487800F007044878C0F3A7
:1029E000C303087BC0F382050BB9032070BDF24816
:1029F000C05CF24E70430A2690FBF6F0F04E56F89B
:102A00002460B0FBF6F2887800EBC00606EB0010FD
:102A100002EB8002E6480261EA48405D5043E44E22
:102A2000706130460078F0B9304600696426704322
:102A3000C008DF4E30613046406964267043C008EC
:102A4000DB4E706130460069D84EB04202D9304644
:102A5000D74E3061D6484069D64EB04212D9304682
:102A6000D34E70610EE0D248006900EB8000C0F3E5
:102A70009C00CF4E30613046406900EB8000C0F3CF
:102A80009C007061CA484069C94EB0610020ADE742
:102A90007FB569461020FFF77AFD054615B1284637
:102AA00004B070BD6846FFF78EFF9DF8050000F08A
:102AB0000F0101208840BE4988609DF8060080070C
:102AC000000D9DF8071000EB81009DF8081000EB49
:102AD0009110401CB64948609DF809008007400FDE
:102AE0009DF80A1000EBD110841CB1484068012108
:102AF000A1404843AE4948600846007801280FD1FC
:102B00009DF80A00C0F38400441C9DF80A00800769
:102B1000C00E9DF80B1000EB5110401C444308E020
:102B20009DF80A008006400E9DF80B1000EBD110B6
:102B3000441C9F48C4600020B2E73EB500200290CC
:102B4000002500BF6B46012202A91046FFF74EFC8C
:102B500004460CB120463EBD6D1C9DF8000010F0EF
:102B6000010F02D0B5F57A7FECD9B5F57A7F01D3A4
:102B70003420F0E76B46012202A93720FFF736FC2C
:102B800004460CB12046E6E76B46012202A9292043
:102B9000FFF72CFC04460CB10620DCE79DF8000092
:102BA00010F0FE0F03D100208149087002E00120DF
:102BB0007F4908700020CEE7704738B5FFF7FCFF6B
:102BC00000F038FA00F0C2FA012801D001243DE0FB
:102BD00000F0B0FAC820FFF79BFE00F0B1FA042025
:102BE000FFF796FE7848FFF7E7FEFFF788FC0446FC
:102BF00004B12BE0FFF7A1FF044604B126E06946CB
:102C00000420FFF786FD044604B11FE09DF8010093
:102C100000F03000302801D0042417E00120FFF735
:102C200098FD044604B111E04FF40070FFF7DEFC9C
:102C3000044604B10AE0FFF72BFF044604B105E0A7
:102C4000FFF7C0FE00F026FA002038BDFFF7BAFEFD
:102C50002046FAE72DE9F04105460E461746FFF7F4
:102C6000ABFF00F073FA012804D0FFF7ABFE0120A0
:102C7000BDE8F0814E484068A84203D2FFF7A2FEAB
:102C80000520F5E72846FFF7C8FC04461CB1FFF70E
:102C900099FE2046ECE739463046FFF775FD0446BD
:102CA000FFF790FE2046E3E72DE9F04180460D4610
:102CB0001646FFF781FF00F049FA012804D0FFF71C
:102CC00081FE0120BDE8F08108EB05003849496824
:102CD000884203D9FFF776FE0520F3E74046FFF769
:102CE000A4FC04461CB1FFF76DFE2046EAE700276E
:102CF0000EE031464FF40070FFF746FD044614B96C
:102D000006F5007603E0FFF75DFE2046DAE77F1C5C
:102D1000AF42EED3FFF754FC0446FFF753FE2046C4
:102D2000D0E7F8B505460E461746FFF745FF00F019
:102D30000DFA012803D0FFF745FE0120F8BD1C481D
:102D40004068A84203D2FFF73DFE0520F6E700F0F9
:102D5000FFF9012803D1FFF735FE4220EEE72846B0
:102D6000FFF76BFC04461CB1FFF72CFE2046E5E79D
:102D70003A4631460020FFF788FD044694B969467B
:102D80000220FFF727FC04461CB1FFF71BFE20467C
:102D9000D4E79DF8000010B99DF8010010B1FFF7CD
:102DA00011FE4024FFF70EFE2046C7E774B701006E
:102DB0009C0900207C19FCFF203500084054890044
:102DC000003500083035000840420F002DE9FC4175
:102DD00006460D461746FFF7EFFE00F0B7F901284B
:102DE00004D0FFF7EFFD0120BDE8FC8170196B49AD
:102DF0004968884203D9FFF7E5FD0520F4E700F0B4
:102E0000A7F9012803D1FFF7DDFD4220ECE73046AA
:102E1000FFF71BFC04461CB1FFF7D4FD2046E3E797
:102E20000020019016E03A464FF400710120FFF7B0
:102E30002CFD044614B907F5007708E0FFF7C0FB46
:102E40000120FFF72CFCFFF7BDFD2046CCE70198E1
:102E5000401C01900198A842E5D3FFF74BFD0120EB
:102E6000FFF71DFC04461CB1FFF7ACFD3220BBE7A9
:102E70004A48007868B901A8FFF7CCFC04461CB1A9
:102E8000FFF7A0FD2046AFE70198A84212D04124E9
:102E900010E069460220FFF79DFB04461CB1FFF7D6
:102EA00091FD2046A0E79DF8000010B99DF80100B3
:102EB00000B14024FFF786FD204695E72DE9F0415B
:102EC00006460C46FFF778FE00F040F9012804D0D2
:102ED000FFF778FD0120BDE8F08130192F494968DE
:102EE000884203D9FFF76EFD0520F4E700F030F9C2
:102EF000012803D1FFF766FD4220ECE72748C068B0
:102F0000271A25E03046FFF7A8FB05461DB1FFF75D
:102F100059FD2846DFE72149C9683144481EFFF7BB
:102F2000ADFB05461DB1FFF74DFD2846D3E7FFF782
:102F3000D9FB05461DB1FFF745FD2846CBE71748ED
:102F4000C06806441548C068241A1448C068271A87
:102F5000002FD7DAD4B13046FFF77FFB05461DB10D
:102F6000FFF730FD2846B6E73119481EFFF786FB0C
:102F700005461DB1FFF726FD2846ACE7FFF7B2FB7B
:102F800005461DB1FFF71EFD2846A4E7FFF71AFD11
:102F90000020A0E74FF40070704700009C0900205B
:102FA00000B587B001215420FDF798FA01210803EC
:102FB000FDF794FAE020ADF8180003208DF81A0010
:102FC00018208DF81B0006A96248FDF7FBFC1020B5
:102FD000ADF8180003208DF81A0010208DF81B00A2
:102FE00006A95C48FDF7EEFC0020ADF804004FF4A4
:102FF0008270ADF806000020ADF808000220ADF8A0
:103000000A000120ADF80C004002ADF80E0030209F
:10301000ADF810000020ADF812000720ADF8140044
:1030200001A94D48FDF712FB01214B48FDF7ABFB11
:1030300007B000BD10B5FFF7B3FF10214548FDF7FD
:103040006CFD10BD00B585B00020ADF800004FF458
:103050008270ADF802000020ADF804000220ADF847
:1030600006000120ADF808004002ADF80A0030204B
:10307000ADF80C000020ADF80E000720ADF81000F0
:1030800069463548FDF7E2FA01213348FDF77BFB3D
:1030900005B000BD00B585B00020ADF800004FF4CC
:1030A0008270ADF802000020ADF804000220ADF8F7
:1030B00006000120ADF808004002ADF80A00082023
:1030C000ADF80C000020ADF80E000720ADF81000A0
:1030D00069462148FDF7BAFA01211F48FDF753FB65
:1030E00005B000BD10B5044600BF02211A48FDF727
:1030F000CEFB0028F9D021461748FDF775FB10BD1F
:1031000010B5002400BF02211348FDF7C0FB0028C2
:10311000F9D0FF211048FDF767FB00BF01210E48E1
:10312000FDF7B5FB0028F9D00B48FDF75FFBC4B2F3
:10313000204610BD10B510210648FDF7F0FC10BD6B
:1031400010B510210348FDF7E8FC10BD01207047C1
:1031500000207047000801400030014010B5FF24F6
:10316000FFF72BFD0446204610BD70B504460D4602
:10317000FF2629462046FFF7A1FE0646304670BDD1
:103180002DE9F04104460D461646FF2722463146FA
:103190002846FFF7C6FD07463846BDE8F0812DE911
:1031A000F04104460D461646FF2722463146284682
:1031B000FFF750FD07463846BDE8F0812DE9F041A4
:1031C00004460D46164600274FF0FF08770A2246B0
:1031D00039462846FFF7FAFD80464046BDE8F081B3
:1031E0002DE9F04104460D46164600274FF0FF0832
:1031F000770A224639462846FFF756FD8046404664
:10320000BDE8F0810020084908788968074A116004
:1032100005494968064A1160044909681268514322
:10322000044A1160704700009C0900202C01002016
:10323000300100202801002010B5431C02E010F8E6
:10324000011B71B18107FAD14FF0013202C88C1A0B
:103250008C4314EAC211F9D0C01A0A0603D0C01E6A
:1032600010BDC01A10BD0A0401D0801E10BD090295
:10327000FCD0401E10BD704770477047754600F087
:1032800029F8AE4605006946534620F007008546FA
:1032900018B020B5FEF7F8FABDE820404FF0000660
:1032A0004FF000074FF000084FF0000B21F007012E
:1032B000AC46ACE8C009ACE8C009ACE8C009ACE871
:1032C000C0098D4670470446AFF300802046FCF7E6
:1032D00096FF000000487047B809002001491820F7
:1032E000ABBEFEE7260002007047000000000102AE
:1032F000030401020304060708090204060800008B
:103300002110422063308440A550C660E7700881D8
:1033100029914AA16BB18CC1ADD1CEE1EFF131124F
:10332000100273325222B5529442F772D662399328
:1033300018837BB35AA3BDD39CC3FFF3DEE362249F
:10334000433420040114E664C774A44485546AA578
:103350004BB528850995EEE5CFF5ACC58DD553362F
:10336000722611163006D776F6669556B4465BB7C8
:103370007AA719973887DFF7FEE79DD7BCC7C448FF
:10338000E5588668A7784008611802282338CCC918
:10339000EDD98EE9AFF9488969990AA92BB9F55A8F
:1033A000D44AB77A966A711A500A333A122AFDDB68
:1033B000DCCBBFFB9EEB799B588B3BBB1AABA66C5F
:1033C000877CE44CC55C222C033C600C411CAEEDB8
:1033D0008FFDECCDCDDD2AAD0BBD688D499D977E6F
:1033E000B66ED55EF44E133E322E511E700E9FFF08
:1033F000BEEFDDDFFCCF1BBF3AAF599F788F8891BE
:10340000A981CAB1EBA10CD12DC14EF16FE18010A1
:10341000A100C230E3200450254046706760B983A4
:103420009893FBA3DAB33DC31CD37FE35EF3B102F1
:103430009012F322D2323542145277625672EAB5B4
:10344000CBA5A89589856EF54FE52CD50DC5E23441
:10345000C324A01481046674476424540544DBA784
:10346000FAB79987B8975FE77EF71DC73CD7D32691
:10347000F2369106B01657667676154634564CD914
:103480006DC90EF92FE9C899E9898AB9ABA94458E1
:10349000654806782768C018E1088238A3287DCBE4
:1034A0005CDB3FEB1EFBF98BD89BBBAB9ABB754A31
:1034B000545A376A167AF10AD01AB32A923A2EFD74
:1034C0000FED6CDD4DCDAABD8BADE89DC98D267C81
:1034D000076C645C454CA23C832CE01CC10C1FEFC4
:1034E0003EFF5DCF7CDF9BAFBABFD98FF89F176ED1
:1034F000367E554E745E932EB23ED10EF01E000005
:1035000000CA9A3B00E1F5058096980040420F0002
:10351000A086010010270000E803000064000000FE
:10352000000A0C0D0F14191E23282D32373C46506B
:1035300001020408102040805835000800000020D7
:10354000340100006C010008F4350008340100204B
:10355000E4100000C8010008011C021703102A57DC
:103560006972656C65737320646174612074726143
:103570006E736D6974696F6E207465737420636F08
:103580006D706C6574656440FC47505314FE636C49
:103590006F636B16DC414C4C14181B2C77616974FB
:1035A00020666F72206C61756E6368696E67207348
:1035B00069676E616C58100F6F2120476F6F642030
:1035C0004C75636B21408817546865207061726187
:1035D0006368757465206973206F70656E40A959C2
:1035E000A48A73A5BD6661696CA26911999F69136C
:0435F00001100000C6
:040000050800188552
:00000001FF
