:020000040800F2
:10000000D81300200D230008AD230008AF230008FB
:10001000B3230008B7230008BB230008000000003A
:10002000000000000000000000000000C1230008E4
:10003000BF23000800000000C3230008C5230008F8
:10004000C7230008C9230008CB230008CD230008DC
:10005000E9230008EB230008ED2300085F240008D3
:10006000D12400086D2500086F25000871250008BF
:1000700073250008752500087725000879250008F4
:100080007B2500087D2500087F25000881250008C4
:100090008325000885250008872500088925000894
:1000A0008B2500088D2500088F2500089125000864
:1000B00093250008B5250008B7250008B9250008D4
:1000C000BB250008BD250008BF250008C125000884
:1000D000C3250008C52500084F260008DF260008B4
:1000E000E1260008E3260008E5260008E7260008C8
:1000F000E9260008EB260008ED260008EF26000898
:10010000F1260008F3260008F5260008F726000867
:10011000F9260008FB260008FD260008FF26000837
:100120000127000803270008052700080727000803
:1001300000F002F800F05AF80AA090E8000C82449F
:100140008344AAF10107DA4501D100F04FF8AFF27C
:10015000090EBAE80F0013F0010F18BFFB1A43F0A5
:1001600001031847443C0000643C00000A444FF07F
:10017000000C10F8013B13F0070408BF10F8014B06
:100180001D1108BF10F8015B641E05D010F8016B4B
:10019000641E01F8016BF9D113F0080F1EBF10F8AF
:1001A000014BAD1C0C1B09D16D1E58BF01F801CBD2
:1001B000FAD505E014F8016B01F8016B6D1EF9D555
:1001C0009142D6D37047000000230024002500266A
:1001D000103A28BF78C1FBD8520728BF30C148BFAA
:1001E0000B6070471FB51FBD10B510BD03F07EFD3D
:1001F0001146FFF7F7FF02F0AFFC03F09CFD03B4DC
:10020000FFF7F2FF03BC03F0A1FD0000DC4800682B
:1002100040F00100DA49086008464068D9490840C2
:10022000D749486008460068D7490840D449086063
:100230000846006820F4802008600846406820F4E2
:10024000FE004860002088607047CD49096821F4AD
:100250008031CB4A11601146096821F48021116078
:10026000B0F5803F03D0B0F5802F0ED106E0C44931
:10027000096841F48031C24A116007E0C049096849
:1002800041F4A021BE4A116000E000BF00BF7047EA
:1002900010B501460022002300204A11012A02D194
:1002A000B74C236806E0022A02D1B54C236A01E06C
:1002B000B34C636A01F01F02012494401C4201D038
:1002C000012000E0002010BD38B50020009000247F
:1002D000002500BF3120FFF7DBFF05460098401CDA
:1002E00000901DB90098B0F5A06FF3D13120FFF751
:1002F000CFFF08B1012400E00024204638BD0146AC
:1003000000209F4A106820F0F80040EAC100106009
:1003100070479E490860704702460020984B586815
:1003200020F47C1042EA01031843954B5860704753
:1003300096490866704701460020914A506820F0AF
:1003400003000843506070478D48406800F00C007F
:100350007047014600208A4A506820F0F0000843A8
:100360005060704701460020854A506820F4E060E4
:1003700008435060704701460020814A506820F4CD
:10038000605040EAC1005060704729B17C4A527AFF
:1003900002437B4B5A7204E0794A527A8243784B8B
:1003A0005A7270477A490860704701460020744AC3
:1003B000506820F440400843506070470021754A5F
:1003C00011706F4A82F82010012802D0042808D149
:1003D00003E001216F4A117004E005216D4A11709C
:1003E00000E000BF00BF70476B4908607047644978
:1003F000096A0143624A11627047674944390860DB
:10040000704730B500210022002400235C4D6D6848
:1004100005F00C0121B1042905D0082923D105E0FC
:100420005E4D056022E05D4D05601FE0544D6D6836
:1004300005F47012022505EB9242514D6D6805F4EA
:1004400080341CB9564D554305600BE04C4D6D682A
:1004500015F4003F03D0524D5543056002E04F4D67
:100460005543056002E04D4D056000BF00BF444D9F
:100470006D6805F0F00109094A4D6B5C0568DD40C7
:1004800045603F4D6D6805F4E061090A454D6B5CC0
:100490004568DD4085603A4D6D6805F46051C90AD4
:1004A000404D6B5C4568DD40C560354D6D6805F4B9
:1004B0004041890B3C4D6B5CC568B5FBF3F50561AC
:1004C00030BD29B12E4A526902432D4B5A6104E0D6
:1004D0002B4A526982432A4B5A61704729B1284AF4
:1004E00092690243264B9A6104E0254A926982434D
:1004F000234B9A61704729B1214AD2690243204BAC
:10050000DA6104E01E4AD26982431D4BDA6170470A
:1005100029B11B4AD2680243194BDA6004E0184A39
:10052000D2688243164BDA60704729B1144A1269C7
:100530000243134B1A6104E0114A12698243104BC3
:100540001A61704714494039086070470F49C86400
:1005500070470B49C87170470948406A40F0807085
:1005600007494862704701460020054A92680A42DE
:1005700001D0012000E000207047014988727047D7
:10058000001002400000FFF8FFFFF6FE00004242AC
:10059000D8004242201002408004424200127A00F9
:1005A00000093D005A3D00086A3D000810490968ED
:1005B00001F038010E4A11601146096801431160CB
:1005C00070470B49096821F00801094A116011467A
:1005D00009680143116070470549096821F010015D
:1005E000034A116011460968014311607047000019
:1005F0000020024010B50446BD4820180FD0B0F5C9
:10060000806F16D0B0F5784F1DD101210803FFF798
:100610007FFF00214FF48050FFF77AFF14E00121A3
:100620008803FFF782FF00214FF48040FFF77DFF32
:100630000AE00121C803FFF778FF00214FF40040D2
:10064000FFF773FF00E000BF00BF10BD10B5002230
:10065000028802F441520B884C8823438C88234340
:10066000CC8823430C8923434C8923438C8923431F
:10067000CC8923431A430280838B4FF2FF742340BB
:1006800083830B8A038210BD2DE9F04786B00546AF
:100690000C464FF0000902274FF000084FF0010A06
:1006A0000026A88B4FF240010840A883022028842E
:1006B000B5F81C902089022801D100BF31E0A08844
:1006C00010B94FF0010A01E04FF0020A01A8FFF74C
:1006D00098FEE088B0F5007F0AD1019800EB800019
:1006E000400021890902B0FBF1F0401D86B20BE009
:1006F0004FEA4A1021894843019901EB81014900E1
:10070000B1FBF0F0401D86B20A20B6FBF0F606F011
:100710000108A6EB0800C0F34F074FF6FF7000EA90
:100720000828022F01DBFF2F02DD02274FF000080F
:1007300047EA0800E18808432884208840F40060E4
:1007400061880843A18808436189084340EA090990
:10075000A5F81C9006B0BDE8F0870021018041801B
:100760008180C180018141818181C1810721018214
:1007700070470021018041808180C1800221018178
:1007800000214181704721B1028842F0400202807D
:1007900004E002884FF6BF731A400280704721B10F
:1007A000828B42F48062828304E0828B4FF6FF33B7
:1007B0001A408283704730B5002400230C110125B4
:1007C000A540ABB21AB185881D43858002E08588BB
:1007D0009D43858030BD1AB183880B43838002E03E
:1007E00083888B4383807047818170470146888965
:1007F0007047A1F57E42FF3A04D0028842F480722D
:10080000028004E002884FF6FF631A4002807047BE
:1008100021B1828842F00402828004E082884FF68F
:10082000FB731A408280704702884FF2FF731A40B0
:10083000028002880A4302807047018841F4805197
:100840000180704721B1028842F40052028004E026
:1008500002884DF6FF731A4002807047024600205E
:10086000012901D0108B00E0908A70470146088A68
:100870007047B1F5804F04D1028842F48042028073
:1008800004E002884BF6FF731A400280704702466C
:10089000002013890B4201D0012000E000207047A6
:1008A000CA4302817047F0B50246002000240023AD
:1008B000002501F00F070126BE40B4B20B1101263E
:1008C0009E40B3B2968806EA03051689264202D0F6
:1008D0000DB1012000E00020F0BD10B5002201F0B4
:1008E0000F040123A3409AB2D343038110BD00003B
:1008F00000C8FFBF10B50446C549601A8C422FD00E
:1009000009DCC448201810D0B0F5806F16D0B0F5BF
:10091000006F4AD11BE0B0F5806F2AD0B0F5006FB0
:1009200030D0B0F5406F40D135E001210420FFF711
:10093000EFFD00210420FFF7EBFD37E00121082047
:10094000FFF7E6FD00210820FFF7E2FD2EE0012180
:100950001020FFF7DDFD00211020FFF7D9FD25E075
:1009600001212020FFF7D4FD00212020FFF7D0FD3A
:100970001CE001214020FFF7CBFD00214020FFF7C4
:10098000C7FD13E001218020FFF7C2FD0021802078
:10099000FFF7BEFD0AE001210802FFF7B9FD0021C3
:1009A0004FF48070FFF7B4FD00E000BF00BF10BD42
:1009B00010B501210846FFF7ABFD00210120FFF72C
:1009C000A7FD10BD2DE9F0410246002500260020BC
:1009D00000230024002791F803C00CF00F0591F8C4
:1009E00003C01CF0100F03D091F802C04CEA0505BB
:1009F00091F800C0BCF1000F31D0146800202BE04A
:100A00004FF0010C0CFA00F3B1F800C00CEA030639
:100A10009E4220D183004FF00F0C0CFA03F7BC4329
:100A200005FA03FC4CEA040491F803C0BCF1280F5A
:100A300006D14FF0010C0CFA00FCC2F814C00AE019
:100A400091F803C0BCF1480F05D14FF0010C0CFA2E
:100A500000FCC2F810C0401C0828D1D31460B1F8C3
:100A600000C0BCF1FF0F34DD546800202EE000F11F
:100A7000080C4FF0010808FA0CF3B1F800C00CEABA
:100A800003069E4221D183004FF00F0C0CFA03F7AE
:100A9000BC4305FA03FC4CEA040491F803C0BCF122
:100AA000280F05D100F1080C08FA0CF8C2F81480E0
:100AB00091F803C0BCF1480F07D100F1080C4FF0CA
:100AC000010808FA0CF8C2F81080401C0828CED3A0
:100AD0005460BDE8F0814FF6FF7101800221817002
:100AE0000421C17070470246002093680B4201D078
:100AF000012000E0002070470146886880B27047FE
:100B000002460020D3680B4201D0012000E0002003
:100B100070470146C86880B2704701617047416103
:100B200070470AB1016100E041617047C1607047E0
:100B30004FF480320A4382618161826182698269F5
:100B4000704702460020344B18684FF680731840F7
:100B500040EA02100843304B186070472F49C861C3
:100B60007047F0B50A4600230024002100252A4ED4
:100B70007168C0F3034583B200F44016B6F5401F18
:100B800008D121F07061244E766826F07066224FFD
:100B90007E6012E000F48016B6F5801F06D10326B1
:100BA00006FA05F4A14341F0706106E0460D3601F6
:100BB00003FA06F6B14341F0706122B1460D3601E9
:100BC00003FA06F63143144E7160F0BD30B50022D1
:100BD0008B071C0F0F2303FA04F20F4B08338C1002
:100BE00053F8243093430C4C08348D1044F82530CE
:100BF00023468C1053F824308C07240F00FA04F499
:100C00002343054C08348D1044F8253030BD0000D6
:100C10000014014000F8FEBF000001400000204227
:100C200010B50446D749601A8C422BD006DCD64852
:100C3000201813D0B0F5806F38D119E0B0F5806F6F
:100C40002AD0B0F56C4F31D101218803FFF760FC49
:100C500000214FF48040FFF75BFC28E001214804AD
:100C6000FFF763FC00214FF40030FFF75EFC1EE04D
:100C700001218804FFF759FC00214FF48020FFF781
:100C800054FC14E00121C804FFF74FFC00214FF48D
:100C90000020FFF74AFC0AE001210805FFF745FCA8
:100CA00000214FF48010FFF740FC00E000BF00BFC0
:100CB00010BD2DE9F04786B005460E460024A24639
:100CC00000BF00BF00272F462C8A4CF6FF7004405F
:100CD000F08804432C82AC894EF6F3100440B088AF
:100CE00031890843718908430443AC81AC8A4FF6CB
:100CF000FF400440B0890443AC8201A8FFF781FBA8
:100D0000A248874202D1DDF810A001E0DDF80CA076
:100D10000AEBCA0000EB0A1031688900B0FBF1F859
:100D20006420B8FBF0F004012009642101FB108964
:100D3000322000EB0910B0FBF1F000F00F0004438B
:100D40002C8106B0BDE8F0874FF4165101600021F8
:100D50008180C18001810C21418100218181704706
:100D600010B502460020108A4FF2FF0318400B888E
:100D70004C8823438C882343CC8823431843108218
:100D800010BD0021018041808180C180704721B168
:100D9000828942F40052828104E082894DF6FF7319
:100DA0001A4082817047F0B50346002400260025D2
:100DB00000201846C1F3421401F01F06012707FA6C
:100DC00006F5012C01D10C3004E0022C01D11030C9
:100DD00000E014301AB107682F43076002E007688B
:100DE000AF430760F0BD1AB1838A0B43838202E0F0
:100DF000838A8B4383827047028A4FF6F0731A40CE
:100E00000282028A0A430282704782894FF2FF738C
:100E10001A40828182890A438281704721B1828986
:100E200042F00202828104E082894FF6FD731A408B
:100E300082817047028A4FF6DF731A400282028A6B
:100E40000A430282704721B1028A42F48042028240
:100E500004E0028A4BF6FF731A4002827047C1F326
:100E600008028280704701468888C0F308007047F6
:100E7000818941F0010181817047028BD2B20283E6
:100E8000028B42EA012202837047028B02F47F4206
:100E90000283028B0A430283704721B1828A42F0A7
:100EA0002002828204E0828A4FF6DF731A40828237
:100EB000704721B1828A42F01002828204E0828A65
:100EC0004FF6EF731A408282704721B1828A42F056
:100ED0000802828204E0828A4FF6F7731A40828207
:100EE0007047828A4FF6FB731A408282828A0A43D5
:100EF0008282704721B1828A42F00202828204E03B
:100F0000828A4FF6FD731A408282704702460020A3
:100F100013880B4201D0012000E000207047CA4333
:100F20000280704770B502460B4600240021002560
:100F30000020C3F3421503F01F01012606FA01F158
:100F4000012D02D19689314006E0022D02D1168A88
:100F5000314001E0968A31401C12012606FA04F461
:100F60001688344011B10CB1012000E0002070BDA2
:100F700010B5002200230A1201249440A3B2DC43DE
:100F8000048010BD004C004000BCFFBF0038014091
:100F900010B50120FFF7D6FA0020FFF7D3FA10BDF5
:100FA0002249086070472149091F086070471F499E
:100FB000843108607047014600201D4A10884FF6B2
:100FC0007F42104008431A4A1080704701460020B3
:100FD000174A10884FF6807210400843144A108058
:100FE0007047134A2C3A81527047014610482C38FA
:100FF000085A70470D489C300068C0B270470C48D2
:101000000830008840F00100094908310880704725
:101010000648A0300068C0B2704705480830008814
:1010200040F00200024908310880704704860D42F2
:101030002C6C004029B14F4A128802434D4B1A8054
:1010400004E04C4A128882434A4B1A807047494850
:10105000001D008840F010004649091D08807047B7
:101060004448001D00884FF6EF7108404149091DB2
:101070000880704700213F481C300188001F00880D
:1010800041EA0040704700B50246FFF7E0FF100C50
:10109000384918310880091D0A80FFF7E1FF00BDBB
:1010A00000B50246FFF7D3FFC2F3034031490831D0
:1010B0000880091D0A80FFF7D3FF00BD00B5024676
:1010C000FFF7C5FF100C2B4920310880091D0A804D
:1010D000FFF7C6FF00BD0020264910310988090727
:1010E000080B2449143109880843704700BF214880
:1010F000001D008810F0200FF9D070471D48001D1A
:1011000000884FF6F77108401A49091D088000BF92
:101110001848001D008810F0080FF9D070470146EC
:101120000020144A121D12880A4201D0012000E05A
:10113000002070470F49091D098881430D4A121D7F
:1011400011807047014600200A4A121D12880A4089
:10115000D0B2084A12880A4202D008B1012000E049
:10116000002070470349091D09888143014A121D67
:1011700011807047002800400020411EEE4A116097
:101180006FF07042ED49C1F884204FF0FF314FF00D
:10119000E022C2F880126FF07042E9490A6000BF95
:1011A00004E00022E74941F82020401C0F28F8D332
:1011B000704700204FF02061E34A11600021121DAA
:1011C0001160E249121D11600021121D1160121DF3
:1011D000116000BF05E00022DB49143141F82020F6
:1011E000401C0328F7D30021D74A20321160491E42
:1011F000121D1160121D1160121D11607047D3493C
:101200000143D14A083211607047F0B50021002235
:10121000002300250F24C678002E36D0CA4E08368B
:10122000366806F4E066C6F5E066310AC1F10405E9
:10123000CC40467806FA05F186782640314309010C
:101240000678B607F60EB140BE4E0778BF1056F8C6
:1012500027200678B607F70EFF2606FA07F39A430B
:1012600019400A43B74E0778BF1046F82720067882
:1012700006F01F070126BE4007787F114FF0E02CD3
:101280000CEB8707C7F800610BE0067806F01F0734
:101290000126BE40A84F90F800C04FEA6C1C47F8EA
:1012A0002C60F0BD0021017041708170C1707047E9
:1012B00010B501F064F810BD10B501F05EF810BD76
:1012C00010B501F061F810BD10B501F05FF810BD68
:1012D00010B50446200101F05EF810BD10B501F014
:1012E0005DF810BD98480068C0F30930704710B52C
:1012F00001460020002201F01F04012303FA04F23A
:101300008D4B80334C1153F824301340934201D15C
:10131000012000E0002010BD8D490860704700F0FA
:101320001F0201219140864A121F431142F82310E7
:10133000704785480068C0F30900704710B5014642
:101340000020002201F01F04012303FA04F27C4B69
:101350007C334C1153F824301340934201D10120C7
:1013600000E0002010BD7848001F00687047794AEF
:101370000A400243744B1B1D1A6070477348001DDE
:1013800071490831086070477048401C6E49083147
:101390000860704739B16C4A0C32126802436A4BDC
:1013A0000C331A6006E0684A0C3212688243664BBE
:1013B0000C331A60704710B5002200F01F0401239F
:1013C00003FA04F239B1604B20331B6813435E4CBF
:1013D0002034236006E05C4B20331B6893435A4C57
:1013E0002034236010BDF0B503460C46154600209E
:1013F000FF2200260021544F08373F6807F4E067BA
:10140000C7F5E067390AC1F10400CA4004FA00F1E7
:1014100005EA02073943090103F0C0008009C3F35C
:101420000122D700B9404FEAC20CFF2707FA0CF699
:10143000454F143757F82070B743DFF80CC10CF153
:10144000140C4CF82070674657F820700F434CF886
:101450002070F0BD10B50246002000230021910A43
:1014600001F00F01012404FA01F1374C2034246803
:1014700004EA01038B4201D1012000E0002010BDED
:10148000002100F01F01304A126801238B401A43EB
:101490002D4B1A60704710B5002100F01F012A4A39
:1014A00012684B1E01249C402243274B1A6010BD3A
:1014B00010B50246002000230021C2F3833101242D
:1014C00004FA01F1204C2034246804EA01038B4221
:1014D00001D1012000E0002010BD30B50146002000
:1014E00000220023C1F38142C1F301531AB9164C03
:1014F0002834206811E0012A0CD1134C24342468CC
:10150000DD0024FA05F0022B02D000F00F0004E009
:10151000C0B202E00C4C2C34206830BD01460020E3
:101520000022C1F380521AB9074B3033186802E029
:10153000054B34331868704780E100E000E100E0BB
:1015400084E200E000E400E004ED00E00000FA05C1
:1015500000EF00E080FFFF1F10B501210807FEF734
:10156000E4FF00214FF08050FEF7DFFF10BD284957
:101570000862704726490861704701460020254AE5
:10158000106820F0E00008431060704722490860AE
:10159000704770B505460E4600241E48046824F0C6
:1015A00003042C4304601D48006840F004001B49FC
:1015B0000860012E02D100F0BBFE01E000F0BAFE8F
:1015C00070BD10B51348006840F004001149086070
:1015D0000846006840F0020008601048006840F0CB
:1015E00004000E49086000F0A3FE10BD0146002073
:1015F000084A52680A4201D0012000E000207047EA
:101600000449096841EA8001024A116070470000FC
:1016100000000E4200700040A0000E4210ED00E0FD
:10162000002046490860091D0860091D0860091D61
:1016300008604348414914310860704781790029A6
:101640003ED03E490968026891433C4A1160111D31
:10165000096802689143394A121D11600179121F0D
:101660008958026811430279344BD150334908310B
:10167000096802689143314A08321160111D0968F6
:10168000026891432D4A0C321160417910290ED124
:10169000111F096802681143284A08321160111DA0
:1016A000096802681143254A0C32116010E0417943
:1016B000224A8958026811434279204BD15007E0F1
:1016C00001791E4A89580268914302791B4BD15017
:1016D00070470021016001710C214171002181716D
:1016E00070471649103109680143144A10321160DD
:1016F000704701460020114A143212680A4201D094
:10170000012000E0002070470C4914310860704748
:10171000014600200022094B1B6803EA0102074B27
:1017200014331B680B4202D00AB1012000E00020F4
:1017300070470249143108607047000000040140FE
:10174000FFFF070010B50446F749601A8C4245D0E8
:101750000CDCB4F1804F1DD0F448201823D0B0F534
:10176000806F29D0B0F5006F54D12EE0B0F5806FB6
:101770003DD0B0F58E3F03D0B0F5923F4AD13FE067
:101780000121C802FEF7C4FE00214FF40060FEF7FD
:10179000BFFE40E001210846FEF7C7FE0021012000
:1017A000FEF7C3FE37E001210220FEF7BEFE002156
:1017B0000220FEF7BAFE2EE001210420FEF7B5FE5E
:1017C00000210420FEF7B1FE25E001210820FEF7EC
:1017D000ACFE00210820FEF7A8FE1CE0012110202D
:1017E000FEF7A3FE00211020FEF79FFE13E001216B
:1017F0002020FEF79AFE00212020FEF796FE0AE048
:1018000001214803FEF784FE00214FF40050FEF74B
:101810007FFE00E000BF00BF10BD028802F08F0213
:101820000280CA884B881A4303881A4302808A8838
:1018300082850A88028501228282BD4A904202D0B6
:10184000BC4A904201D10A7A0286704770B50024E2
:1018500000220023058C4FF6FE7635400584028C6D
:101860008388048B4FF68F752C400D882C43751E92
:101870002A400D892A434D882A43CD888586AC4D60
:10188000A84202D0AB4DA84213D14FF6F7752A40BB
:101890004D892A434FF6FB752A408D882A4347F627
:1018A000FF652B4047F6FF552B408D892B43CD8993
:1018B0002B4383800483028470BD70B50024002212
:1018C0000023058C4FF6EF7635400584028C838823
:1018D000048B48F6FF752C400D884FF6FF7606EA1C
:1018E00005252C434FF6DF752A400D8906EA0515BC
:1018F0002A434D8806EA05152A43CD8805878C4D75
:10190000A84202D08B4DA8421DD14FF67F752A40C8
:101910004D894FF6FF7606EA05152A434FF6BF7547
:101920002A408D8806EA05152A4347F6FF352B40E5
:1019300047F2FF752B408D8906EA85052B43CD893B
:1019400006EA85052B4383800483028470BD70B54D
:10195000002400220023058C4FF6FF6635400584E5
:10196000028C8388848B4FF68F752C400D882C4316
:101970004FF6FF552A400D894FF6FF7606EA0525FA
:101980002A434D8806EA05252A43CD888587684D78
:10199000A84202D0674DA8421DD14FF2FF752A40E0
:1019A0004D894FF6FF7606EA05252A434FF6FF35A7
:1019B0002A408D8806EA05252A4346F6FF752B4006
:1019C00045F6FF752B408D8906EA05152B43CD8919
:1019D00006EA05152B4383808483028470BD70B5AD
:1019E000002400220023058C4EF6FF763540058446
:1019F000028C8388848B48F6FF752C400D884FF647
:101A0000FF7606EA05252C434DF6FF752A400D8921
:101A100006EA05352A434D8806EA05352A43CD886E
:101A2000A0F84050424DA84202D0424DA84207D1F2
:101A3000C3F30D038D894FF6FF7606EA85152B4318
:101A400083808483028470BD828B4FF2FF331A40FF
:101A50008283828B4FF6FF7303EA01231A4382834A
:101A60007047F0B50C461546002100220026078C71
:101A70004EF6FF7C07EA0C070784818B028C4FF639
:101A8000FF7707EA043640F6FF4739404FF6FF7705
:101A900007EA05274FF6FF7C0CEA033C47EA0C07F0
:101AA00039434DF6FF773A4046F480573A438183F5
:101AB0000284F0BD828B4FF6F3731A408283828BCF
:101AC0000A4382837047F0B50C4615460021002278
:101AD0000026078C4FF6FF6C07EA0C070784818B02
:101AE000028C4FF6FF7707EA04264FF60C77394051
:101AF0004FF6FF7707EA03172F4339434FF6FF5797
:101B00003A4046F480773A4381830284F0BD028BE9
:101B10004FF2FF331A400283028B4FF6FF7303EA42
:101B200001231A43028370470010004000FCFFBFEE
:101B3000002C014000340140F0B50C461546002150
:101B400000220026078C4FF6EF7C07EA0C0707847B
:101B5000018B028C4FF6FF7707EA041640F6FF4729
:101B600039404FF6FF7707EA033739434FF6FF77DF
:101B700007EA052739434FF6DF773A4046F010076A
:101B80003A4301830284F0BD028B4FF6F3731A408F
:101B90000283028B0A4302837047F0B50C46154658
:101BA00000210022068C4FF6FE773E400684018B12
:101BB000028C4FF60C7631407E1C06EA03162E434B
:101BC00031437E1E324044F00106324301830284D9
:101BD000F0BD70B505460C46208850B92389A2880F
:101BE00061882846FFF7D9FFE1882846FFF7CCFF38
:101BF00025E0208804280AD12389A2886188284604
:101C0000FFF79AFFE1882846FFF781FF17E0208859
:101C100008280AD12389A28861882846FFF753FF44
:101C2000E1882846FFF746FF09E02389A2886188FA
:101C30002846FFF716FFE1882846FFF705FF70BD2D
:101C40002DE9F04105460C4600260127608808B9B9
:101C5000022600E00026A088012801D1022700E02A
:101C600001272088A0B92389A28861882846FFF728
:101C700094FFE1882846FFF787FF23893A463146DB
:101C80002846FFF759FFE1882846FFF740FF13E099
:101C90002389A28861882846FFF74EFFE1882846FD
:101CA000FFF735FF23893A4631462846FFF775FF8F
:101CB000E1882846FFF768FFBDE8F0810A884B8875
:101CC0001A438B881A43CB881A430B891A434B89D2
:101CD0001A438B891A43A0F8442070474FF6FF71CE
:101CE000818000210180C180418001727047002104
:101CF000018041808180C180018141818181C181D8
:101D00007047002101804180012181800021C18034
:101D1000018170470021018041808180C180018163
:101D200041818181704721B1028842F00102028025
:101D300004E0028840F2FE331A400280704731B15D
:101D4000B0F8442042F40042A0F8442005E0B0F886
:101D50004420C2F30E02A0F8442070471AB18389D0
:101D60000B43838102E083898B43838170478182A7
:101D7000704741EA0203A0F8483070471AB18389DE
:101D80000B43838102E083898B4383817047018900
:101D90004FF6F8721140018170470A46002101890F
:101DA0004FF68F73194011430181704730B50446D7
:101DB0000D4629462046FFF7F0FF208940F0070036
:101DC000208130BD2DE9F04104460D4616461F46E0
:101DD000602D06D13B46012231462046FFF7ACFE7E
:101DE00005E03B46012231462046FFF7D6FE294654
:101DF0002046FFF7D2FF208940F007002081BDE890
:101E0000F08170B50C4600210189C9B244EA02058F
:101E10004FF6FF7606EA032635432943018170BD5C
:101E20002DE9F04105460E461746984600244346E4
:101E30003A4631462846FFF7E4FF2C894FF6F87002
:101E4000044044F007044FF68F70044044F07004DF
:101E50002C81BDE8F081F0B504460D4616461F46BC
:101E60003B46324629462046FFF7CBFF208940F407
:101E700080402081F0BD0185828270470A460021A2
:101E8000018840F28F331940114301807047F0B54B
:101E90000C4615461E460021002200230189028BB4
:101EA000038C4FF6F877394021434FF6FC473A4010
:101EB00040F201173A434FF6DD773B404FF6FF778C
:101EC00007EA06172F433B43018102830384F0BDD9
:101ED0000A460021018B4FF68F731940114301838D
:101EE00070470A460021018B48F6FF7319404FF6F0
:101EF000FF7303EA02231943018370470A46002156
:101F0000818B4FF68F7319401143818370470A46C6
:101F10000021818B48F6FF7319404FF6FF7303EAE7
:101F2000022319438183704721B1028842F0800265
:101F3000028004E0028840F27F331A40028070473A
:101F400021B1828842F00402828004E082884FF648
:101F5000FB731A408280704721B1828842F00802E8
:101F6000828004E082884FF6F7731A4082807047BF
:101F700021B1828842F00102828004E082884FF61B
:101F8000FE731A40828070470A460021018B4FF68B
:101F9000F77319401143018370470A460021018BF2
:101FA0004FF2FF7319404FF6FF7303EA0223194300
:101FB000018370470A460021818B4FF6F773194061
:101FC0001143818370470A460021818B4FF2FF73D2
:101FD00019404FF6FF7303EA0223194381837047C8
:101FE0000A460021018B4FF6FB7319401143018310
:101FF00070470A460021018B4FF6FF3319404FF618
:10200000FF7303EA02231943018370470A46002144
:10201000818B4FF6FB7319401143818370470A4649
:102020000021818B4FF6FF3319404FF6FF7303EA0F
:1020300002231943818370470A460021018B4FF622
:102040007F7319401143018370470A460021018BB9
:10205000C1F30E014FF6FF7303EA02231943018314
:1020600070470A460021818B4FF67F731940114358
:10207000818370470A460021818BC1F30E014FF620
:10208000FF7303EA02231943818370470A46002144
:10209000018C4FF6FD7319401143018470470A46C5
:1020A0000021018C4FF6F7731940114301847047EA
:1020B0000A460021018C4FF6DF7319404FF6FF737B
:1020C00003EA02131943018470470A460021018C78
:1020D0004FF67F7319404FF6FF7303EA021319435B
:1020E000018470470A460021018C4FF6FF531940C6
:1020F0004FF6FF7303EA02231943018470470A462F
:102100000021018C4FF2FF7319404FF6FF7303EA71
:1021100002231943018470470A460021018C4DF6C1
:10212000FF7319404FF6FF7303EA0233194301842A
:10213000704710B5038C01248C40A3430384038CA7
:1021400002FA01F4A4B22343038410BD10B5038C3A
:1021500004248C40A3430384038C02FA01F4A4B248
:102160002343038410BD30B5038C01248C40A3436A
:10217000038409B1082918D100F1180303EB6103A6
:102180001B684FF68F74234000F1180404EB6104C0
:10219000236000F1180303EB61031B68134300F194
:1021A000180404EB610423601FE00B1FC3F34E040B
:1021B00000F118031B5948F6FF7423400C1FC4F3A9
:1021C0004E0500F1180463510B1FC3F34E0400F1D8
:1021D00018031B594FF6FF7404EA022423430C1F13
:1021E000C4F34E0500F11804635130BD21B10288DB
:1021F00042F00202028004E0028840F2FD331A40FD
:102200000280704721B1028842F00402028004E09B
:10221000028840F2FB331A400280704721B1828865
:1022200042F08002828004E082884FF67F731A4079
:1022300082807047028840F2F7331A400280028899
:102240000A430280704782884FF68F731A4082805B
:1022500082880A438280704702894FF6F8731A40D9
:10226000028102890A430281704702894FF67F7317
:102270001A40028102890A430281704781847047B3
:1022800081857047818670470187704781877047D5
:10229000A0F8401070470288D2B2028002880A4338
:1022A000028070470146888E70470146088F70474C
:1022B0000146888F70470146B1F8400070470146DB
:1022C000888C70470146088D704702460020138AAB
:1022D0000B4201D0012000E000207047CA43028277
:1022E000704730B50246002000230024158A05EA15
:1022F0000103958905EA010413B10CB1012000E046
:10230000002030BDCA4302827047000003480047E6
:1023100003480449044A054B704700003101000896
:10232000D80B0020D8130020D80F0020D80F002091
:1023300030BF704720BF704740BF7047BFF36F8FFB
:102340007047BFF34F8F7047BFF35F8F704701DF58
:102350007047EFF31480704780F31488BFF36F8FDA
:102360007047EFF30980704780F309887047EFF3F7
:102370000880704780F30888704762B6704772B66D
:102380007047EFF31080704771B6704761B67047C1
:10239000EFF31380704780F311887047EFF31280DA
:1023A000704740BA704700BA70470000704700BFDE
:1023B000FEE700BFFEE700BFFEE700BFFEE7704795
:1023C00070477047704770477047704710B50120DD
:1023D000FEF7B8FE38B10120FEF7C4FECA48006817
:1023E000401CC949086010BD7047704710B526E011
:1023F000002414E0C5480068C0EB0010C0EBC0002A
:10240000C34A02EB4000015DC248FEF728FD00BF51
:102410008021C048FEF77AFD0028F9D0641CBE4830
:10242000BA490968405CA042E4DCB8480068401C36
:10243000052190FBF1F201FB1200B4490860B3489A
:102440000068401C052190FBF1F201FB1200B3492A
:1024500009688842CCD10120FFF756F910BD10B5AC
:1024600026E0002414E0AE48006800EBC00202EB56
:102470000010AC4A02EB8000015DA648FEF7EFFCBD
:1024800000BF8021A348FEF741FD0028F9D0641C5D
:10249000A548A3490968405CA042E4DCA048006864
:1024A000401C052190FBF1F201FB12009C490860E1
:1024B0009B480068401C052190FBF1F201FB1200D3
:1024C0009A4909688842CCD10220FFF71DF910BD56
:1024D00010B53BE096480068401C052190FBF1F2E6
:1024E00001FB120092490860002429E0914800682D
:1024F000401C904908608E48006800EBC00101EB69
:102500000010884901EB8000015D8B48894A126800
:10251000815488480068B0F5007F10D14FF40072F4
:1025200086480168844801F063FB85490860834858
:102530000068401C8149086000207E490860641CD6
:1025400079487B490968405CA042CFDC7848006844
:10255000401C052190FBF1F201FB12007349096850
:102560008842B7D10420FFF7CFF810BD70477047FD
:1025700070477047704770477047704770477047A3
:102580007047704770477047704770477047704793
:10259000704710B501218807FFF7A3FE012808D175
:1025A00001218007FFF7AEFE57480068401C5649DE
:1025B000086010BD7047704770477047704770479C
:1025C0007047704710B520215E48FEF79FFC012838
:1025D0003CD15C48FEF747FCC4B250480068C0EBF1
:1025E0000010C0EBC0004A4901EB400056490968A1
:1025F000445455480068401C5349086040F2255136
:102600005048FEF7B5FC242C20D14F480078401EDE
:10261000C1B24148414A1268815401204A490860C8
:102620003E480068401C052190FBF1F201FB1200BE
:102630003A49086024200968C1EB0111C1EBC101CE
:10264000334A02F811000120FFF74BF810BD10B516
:1026500020213E48FEF75AFC00283FD03B48FEF7B9
:1026600002FCC4B23148006800EBC00101EB00106D
:102670002C4901EB8000364909684454344800680D
:10268000401C3349086040F225513048FEF770FC89
:102690002A2C23D12E480078401EC1B22248234A5A
:1026A0001268815401202A49086020480068401CB3
:1026B000052190FBF1F201FB12001C490860262065
:1026C000096801EBC10202EB0111164A02F8210070
:1026D0000420FFF706F80220FFF703F810BD70474B
:1026E0007047704770477047704770477047704732
:1026F0007047704770477047704770477047704722
:102700007047704770477047340000201000002069
:102710003C01002000480040240000200000002070
:102720001400002056050020290000200800002089
:1027300018000020200000204A0700201C00002074
:102740003000002000380140040000200044004018
:102750000C00002010B5FDF759FD4FF48030FDF757
:1027600074FDFDF7B1FD0446012C48D10020FDF7B2
:10277000F0FD0020FDF7FFFDA002FDF7F3FD0220B4
:10278000FDF714FF0120FDF727FF4FF4E0112004AF
:10279000FDF7C2FD0120FDF7CBFD00BF3920FDF79D
:1027A00077FD0028FAD00220FDF7C5FD00BFFDF738
:1027B000CBFD0828FBD101214002FDF78FFE01214E
:1027C0000420FDF78BFE01210820FDF787FE012183
:1027D0008804FDF790FE01218803FDF77FFE0121AB
:1027E0004804FDF788FE01211020FDF777FE012146
:1027F0001020FDF773FE01210846FDF77CFE10BD99
:1028000008B54FF46040ADF8000003208DF80200D9
:1028100018208DF803006946FA48FEF7D3F8E02047
:10282000ADF800006946F848FEF7CCF84FF40070A8
:10283000ADF8000003208DF8020018208DF8030089
:102840006946F148FEF7BEF84FF48060ADF800002D
:1028500004208DF803006946EB48FEF7B3F8042026
:10286000ADF8000003208DF8020018208DF8030059
:102870006946E548FEF7A6F80820ADF800000420F8
:102880008DF803006946E048FEF79CF84FF480603D
:10289000ADF8000003208DF8020018208DF8030029
:1028A0006946D848FEF78EF84FF40060ADF8000096
:1028B00004208DF803006946D248FEF783F84020D3
:1028C000ADF8000003208DF8020010208DF8030001
:1028D0006946CE48FEF776F84FF48060ADF8000008
:1028E00003208DF8020010208DF803006946C748C8
:1028F000FEF768F80220ADF8000004208DF8030010
:102900006946C248FEF75EF80420ADF800008DF875
:1029100003006946BD48FEF755F80820ADF80000F1
:1029200004208DF803006946B848FEF74BF808BD4F
:1029300010B50020B649088088800220C880012098
:1029400008814002488100208881C88107200882D0
:102950004FF482704880AF48FDF778FE0121AD4802
:10296000FDF711FF10BD1FB54FF416500090002069
:10297000ADF80400ADF80600ADF80800ADF80C00A5
:102980000C20ADF80A006946A348FEF792F96946A3
:10299000A248FEF78EF96946A148FEF78AF901219F
:1029A0009F48FEF7F4F901219B48FEF7F0F9012159
:1029B0009A48FEF7ECF91FBD08B54FF48060FEF7AA
:1029C0001EFC1C208DF8000000208DF801008DF801
:1029D000020001208DF803006846FEF716FC252052
:1029E0008DF8000001208DF8010000208DF8020014
:1029F00001208DF803006846FEF707FC26208DF8BD
:102A0000000001208DF8010000208DF80200012057
:102A10008DF803006846FEF7F8FB06208DF80000ED
:102A200003208DF8010000208DF8020001208DF8B0
:102A300003006846FEF7E9FB07208DF8000003203D
:102A40008DF8010001208DF802008DF80300684622
:102A5000FEF7DBFB08208DF8000002208DF8010056
:102A600000208DF8020001208DF803006846FEF773
:102A7000CCFB08BD1CB50120FEF75BFE0220FEF773
:102A800058FE0420FEF755FE01210220FEF79EF8B5
:102A900002210846FEF79AF803210220FEF796F875
:102AA0000720009000208DF804000C208DF8050010
:102AB00001208DF806006846FEF7C0FD1CBD10B56C
:102AC00001214FF0C050FDF716FD0120FEF74FFD2C
:102AD000FEF75EFA0120FDF771FC00BF4120FDF713
:102AE000D7FB0028FAD04FF48070FDF780FC01205E
:102AF000FDF783FCFEF702FBFEF7F8FA012108461A
:102B0000FEF798FAFEF7F2FA47F6FF70FEF7C8FAFA
:102B1000FEF7ECFA10BD0EB540F2CF70ADF8040030
:102B200048F69F40ADF800000020ADF80600ADF873
:102B3000020069464FF08040FEF76FFE01218807D2
:102B4000FFF7CCFB012211469007FFF707F901219F
:102B50008807FFF7E8F80EBDADF5806D002505E0AC
:102B600000200DF8050080A948556D1CB5F5007FC3
:102B7000F6DBFFF7EFFDFFF743FEFFF7CCFFFFF7B4
:102B80001BFFFFF7F0FE01F021F800202549086047
:102B900000BF24480068244909688842F9DB4021C5
:102BA0001A48FDF7BAFF00201E49086046E041219F
:102BB0001A48FEF754F900BF80211848FEF7A6F91D
:102BC0000028F9D020211548FEF7A0F901282FD1BF
:102BD0001248FEF748F942282AD100240CE0134895
:102BE000015D0E48FEF73BF900BF80210B48FEF760
:102BF0008DF90028F9D0641C0C4801F055F8A0426A
:102C0000EDD81FE0000C0140000801400010014019
:102C10004A0B0020003001400044004000480040C2
:102C20000038014034000020380000203C00002023
:102C3000002400E0641CC6488442FBDBC5480068F1
:102C40000A28B4DB00BFC34800680A2817D1402116
:102C5000C148FDF764FF002404E0C048005D0DF8A2
:102C60000400641CBD4801F01FF8A042F5D84FF4E1
:102C700000720021684600F0BBFF00BFFEE70024A1
:102C800000E0641CB4F57A6FFBDB0BE02021B44854
:102C9000FEF73CF9012805D1B148FEF7E4F84E28CB
:102CA00000D100E0F2E700BF0020AA490860012639
:102CB00015E02021AB48FEF729F901280FD10126A4
:102CC000A848FEF7D0F807463946A548FEF7C7F8EA
:102CD00000BF8021A248FEF719F90028F9D09D48CD
:102CE0000068B0F5967F0ADA20219D48FEF70EF9BC
:102CF0000128DED19A48FEF7B6F84728D9D15EBB45
:102D000040219548FDF70BFF00240CE09648015D3B
:102D10009348FEF7A4F800BF80219148FEF7F6F82B
:102D20000028F9D0641C904800F0BEFFA042EDD806
:102D3000002404E08C48005D0DF80400641C8A48FF
:102D400000F0B2FFA042F5D84FF4007201216846AE
:102D500000F04EFF00BFFEE7002400E0641CB4F565
:102D60007A6FFBDB00240CE08048015D7C48FEF7B5
:102D700076F800BF80217A48FEF7C8F80028F9D01D
:102D8000641C7A4800F090FFA042EDD8002400E0D7
:102D9000641CB4F57A6FFBDB0BE020217048FEF772
:102DA000B5F8012805D16E48FEF75DF84E2800D130
:102DB00000E0F2E700BF43216948FEF750F800BF8A
:102DC00080216748FEF7A2F80028F9D00020614969
:102DD000086000BF00BF5F48006814280ADA20219D
:102DE0005F48FEF793F80128F5D15D48FEF73BF800
:102DF0004528F0D157490968B1F10A0001D40146CC
:102E000000E0414202292BDD40215348FDF787FEB7
:102E100000240CE05648015D5148FEF720F800BF41
:102E200080214F48FEF772F80028F9D0641C504802
:102E300000F03AFFA042EDD8002404E04C48005DC9
:102E40000DF80400641C4A4800F02EFFA042F5D89B
:102E50004FF400720221684600F0CAFE00BFFEE790
:102E600000240CE04348015D3D48FDF7F8FF00BF3A
:102E700080213B48FEF74AF80028F9D0641C3D4801
:102E800000F012FFA042EDD800240CE03A48015DAA
:102E90003348FDF7E4FF00BF80213148FEF736F8E4
:102EA0000028F9D0641C344800F0FEFEA042EDD8A2
:102EB00000BF20212A48FEF729F80128F9D1284827
:102EC000FDF7D1FF4C28F4D100240CE02B48015D24
:102ED0002348FDF7C4FF00BF80212148FEF716F804
:102EE0000028F9D0641C254800F0DEFEA042EDD891
:102EF000FFF7C0FD012240F225511A48FDF753FFAC
:102F0000012240F225511E48FDF74DFF00201149D6
:102F100008601CE00F480068162818D14FF4806143
:102F20000D48FDF7FAFD00240CE01648015D0C4841
:102F3000FDF795FF00BF80210948FDF7E7FF002856
:102F4000F9D0641C0F4800F0AFFEA042EDD8E1E7D5
:102F500040420F003400002000100140E500002036
:102F600000480040003801400801002066000020B1
:102F7000190100207A00002090000020BE000020EF
:102F800000440040CE0000202DE9F04706460F46E1
:102F90009046994600F006FE06F03F0141F04000E1
:102FA00000F0D8FD032403E0385D00F0D3FD641E7B
:102FB000002CF9DA082E03D0952000F0CBFD02E0BA
:102FC000872000F0C7FD4FF0000AB8F1010F09D0CB
:102FD000B8F1020F09D0B8F1030F09D0B8F1040F0E
:102FE0000CD108E04FF0010A10E04FF0010A0DE0AB
:102FF0004FF0020A0AE04FF0050A07E0FF2000F058
:10300000A9FD00F0D5FD1020BDE8F08700BF002429
:1030100000BF00F0ADFD0546641C15F0800F03D025
:10302000E52D01D0642CF4DB642C03DB00F0C0FD43
:103030001120E9E7AAF1010405E009F8045000F0C5
:1030400097FD0546641E002CF7DA00F0B1FD002064
:10305000DAE70A0EC2700A0C82700A0A4270017026
:1030600070472DE9FC4107460D461446640221468F
:1030700001A8FFF7EEFF6B462A4601A93846FFF785
:1030800083FF064616B13046BDE8FC819DF800007E
:1030900028B19DF80000E52801D01220F4E70020B7
:1030A000F2E71CB5002001906B46012201A9FFF751
:1030B0006BFF1CBD2DE9F04107460E46002400F0D1
:1030C00071FD00BF00F054FD0546641CFF2D01D1C9
:1030D000082CF7D3082C04D300F06AFD3120BDE89A
:1030E000F081FE2D02D03570012400E0002403E0C1
:1030F00000F03EFD3055641CBC42F9D300F038FDB1
:10310000044600F035FD00EB0424FF2000F022FD12
:1031100000F04EFD0020E2E77CB505460E4600209B
:1031200001906B46012201A90920FFF72DFF0446FB
:103130000CB120467CBD9DF8000008B11220F9E7D3
:1031400031462846FFF7B6FFF4E71CB50020019092
:103150006B46022201A90C20FFF716FF1CBD38B5F3
:1031600005460C46002000902346032269460D20A8
:10317000FFF70AFF38BD7CB50446214601A8FFF7DA
:1031800068FF6B46012201A91020FFF7FDFE0546EE
:103190000DB128467CBD9DF8000008B11220F9E76A
:1031A0000020F7E710B50446224601211120FFF761
:1031B00058FF10BD10B50446224601211220FFF72A
:1031C00050FF10BD10B50446224601211820FFF71C
:1031D00048FF10BD10B50446224601211920FFF713
:1031E00040FF10BD10B504469C48007828B922461F
:1031F00001212020FFF735FF10BD224601212320A9
:10320000FFF72FFFF8E710B504469448007828B977
:10321000224601212120FFF724FF10BD2246012173
:103220002420FFF71EFFF8E72DE9F04107460025AF
:10323000012F02D18948446901E08848846900F07F
:10324000B1FC00BF00F094FC06466D1CFF2E01D0BF
:10325000A542F7D3A54201D2002600E03026FF2088
:1032600000F078FC00F0A4FC3046BDE8F0811CB50D
:10327000002101A8FFF7EDFE6B46022201A92620DE
:10328000FFF782FE04460CB120461CBD0220FFF76A
:10329000CBFF08B13320F8E70020F6E7FEB506467D
:1032A0000D46002002906B46042202A93A20FFF747
:1032B0006BFE04460CB12046FEBD9DF8000008B12F
:1032C0001220F9E7002405E0601C1DF800002855D5
:1032D000601CC4B2042CF7DB0020EDE72DE9F041BF
:1032E00006460F4600244FF47A7800F05BFC00BFDE
:1032F00000F03EFC0546641CFF2D01D14445F7D388
:10330000444504D300F054FC3120BDE8F081FE2D8B
:1033100008D0FC2D06D0FF2000F01CFC00F048FC7B
:103320002120F2E7002403E000F022FC3855641C61
:10333000B442F9D300F01CFC044600F019FC00EB89
:103340000424FF2000F006FC00F032FC0020DCE743
:103350007CB50546002001906B46012201A937206B
:10336000FFF712FE04460CB120467CBD9DF800001C
:1033700008B11220F9E76B46012201A91620FFF7D8
:1033800003FE04460CB12046EFE79DF8000008B1AB
:103390001220EAE701A90420FFF7A0FF04460CB1C0
:1033A0002046E2E79DF8040000069DF8051000EBBA
:1033B00001409DF8061000EB01209DF8071008441D
:1033C00028600020D1E72DE9F04105460E4617465A
:1033D00000F0E8FBFF2000F0BDFB012D03D1FC2035
:1033E00000F0B8FB02E0FE2000F0B4FB002404E093
:1033F000385D00F0AFFB601C84B2B442F8D3952076
:1034000000F0A8FB952000F0A5FB00F0B1FB804682
:1034100000F0CEFB0120FFF707FF10B13220BDE81E
:10342000F0810020FBE710B500F0BCFBFF2000F0AE
:1034300091FBFD2000F08EFB00F09AFB00F0B8FB42
:1034400010BD70B50446002504E0FF2000F082FBAB
:10345000681CC5B2A542F8DB70BD00005C0B002003
:1034600000BF0100A0F10100FBD17047704770B5AB
:103470000146F948F94E3061F9487061B061487809
:1034800000F007044878C0F3C303087BC0F382054B
:103490000BB9032070BDF348C05CF34E70430A269D
:1034A00090FBF6F0F14E56F82460B0FBF6F2887807
:1034B00000EBC00606EB001002EB8002E748026159
:1034C000EB48405D5043E54E706130460078F0B9FE
:1034D0003046006964267043C008E04E30613046D3
:1034E000406964267043C008DC4E70613046006954
:1034F000D94EB04202D93046D84E3061D7484069E3
:10350000D74EB04212D93046D44E70610EE0D34847
:10351000006900EB8000C0F39C00D04E3061304663
:10352000406900EB8000C0F39C007061CB484069AB
:10353000CA4EB0610020ADE77FB569461020FFF7A5
:10354000EBFD054615B1284604B070BD6846FFF78F
:103550008EFF9DF8050000F00F0101208840BF4953
:1035600088609DF806008007000D9DF8071000EBAD
:1035700081009DF8081000EB9110401CB74948608D
:103580009DF809008007400F9DF80A1000EBD1104C
:10359000841CB24840680121A1404843AF494860BB
:1035A0000846007801280FD19DF80A00C0F3840076
:1035B000441C9DF80A008007C00E9DF80B1000EB1C
:1035C0005110401C444308E09DF80A008006400E5C
:1035D0009DF80B1000EBD110441CA048C4600020E3
:1035E000B2E73EB50020029000254FF4D57102A845
:1035F000FFF72FFD6B46012202A90820FFF7C4FC4C
:10360000044600BF00208DF809008DF80A008DF8EF
:103610000B008DF808006B46012202A93720FFF746
:10362000B3FC04460CB120463EBD40208DF80B0093
:103630006B46012202A92920FFF7A6FC04460CB123
:103640000620F1E79DF800000128DBD09DF800007E
:1036500010F0FE0F03D100208049087002E0012025
:103660007E4908700020DFE7704738B5FFF7FCFFA0
:1036700000F01CFA00F0A2FA012801D0012435E084
:1036800000F090FAC820FFF7DCFE00F091FA042069
:10369000FFF7D7FE7748FFF7E3FEFFF702FD04468A
:1036A00004B123E0FFF79DFF044604B11EE0694624
:1036B0000420FFF7F3FD044604B117E09DF8010074
:1036C00000F03000302801D004240FE04FF40070E7
:1036D000FFF751FD044604B108E0FFF72DFF044653
:1036E00004B103E000F012FA002038BDFFF7BEFE7F
:1036F0002046FAE72DE9F04105460E461746FFF74A
:10370000B3FF00F05BFA012804D0FFF7AFFE012001
:10371000BDE8F08151484068A84203D2FFF7A6FEF9
:103720000520F5E72846FFF73DFD04461CB1FFF7ED
:103730009DFE2046ECE739463046FFF7CFFD0446B4
:10374000FFF794FE2046E3E72DE9F04180460D4661
:103750001646FFF789FF00F031FA012804D0FFF781
:1037600085FE0120BDE8F08108EB05003B49496872
:10377000884203D9FFF77AFE0520F3E74046FFF7BA
:1037800019FD04461CB1FFF771FE2046EAE7002749
:103790000EE031464FF40070FFF7A0FD044614B967
:1037A00006F5007603E0FFF761FE2046DAE77F1CAE
:1037B000AF42EED3FFF7C9FC0446FFF757FE2046A1
:1037C000D0E72DE9F04105460E461746FFF74CFFBE
:1037D00000F0F4F9012804D0FFF748FE0120BDE80D
:1037E000F0811E484068A84203D2FFF73FFE052043
:1037F000F5E700F0E5F9012803D1FFF737FE422095
:10380000EDE72846FFF7DEFC04461CB1FFF72EFE6D
:103810002046E4E73A4631460020FFF7D4FD04464F
:103820002046DCE72DE9FC4106460D461746FFF72A
:103830001BFF00F0C3F9012804D0FFF717FE012099
:10384000BDE8FC81701905494968884214D9FFF721
:103850000DFE0520F4E7000074B701005C0B0020AA
:103860007C19FCFF903D000840548900703D000821
:10387000A03D000840420F0000F0A2F9012803D14A
:10388000FFF7F4FD4220DBE73046FFF7A3FC0446D8
:103890001CB1FFF7EBFD2046D2E70020019016E0B7
:1038A0003A464FF400710120FFF78DFD044614B92C
:1038B00007F5007708E0FFF748FC0120FFF7B4FCAC
:1038C000FFF7D4FD2046BBE70198401C019001980A
:1038D000A842E5D3FFF7A7FD0120FFF7A5FC0446AA
:1038E0001CB1FFF7C3FD3220AAE74A48007868B947
:1038F00001A8FFF72DFD04461CB1FFF7B7FD2046D8
:103900009EE70198A84212D0412410E069460220A7
:10391000FFF725FC04461CB1FFF7A8FD20468FE702
:103920009DF8000010B99DF8010000B14024FFF798
:103930009DFD204684E72DE9F04106460C46FFF741
:1039400093FE00F03BF9012804D0FFF78FFD012022
:10395000BDE8F08130192F494968884203D9FFF743
:1039600085FD0520F4E700F02BF9012803D1FFF7CE
:103970007DFD4220ECE72748C068271A25E0304645
:10398000FFF730FC05461DB1FFF770FD2846DFE765
:103990002049C9683144481EFFF735FC05461DB172
:1039A000FFF764FD2846D3E7FFF761FC05461DB12C
:1039B000FFF75CFD2846CBE71648C068064415486B
:1039C000C068241A1348C068271A002FD7DAD4B168
:1039D0003046FFF707FC05461DB1FFF747FD2846B7
:1039E000B6E73119481EFFF70EFC05461DB1FFF77B
:1039F0003DFD2846ACE7FFF73AFC05461DB1FFF751
:103A000035FD2846A4E7FFF731FD0020A0E74FF47D
:103A1000007070475C0B002000B587B00121542076
:103A2000FCF75CFD01210803FCF758FDE020ADF830
:103A3000180003208DF81A0018208DF81B0006A925
:103A40006048FCF7BFFF1020ADF8180003208DF888
:103A50001A0010208DF81B0006A95A48FCF7B2FF87
:103A60000020ADF804004FF48270ADF8060000208D
:103A7000ADF808000220ADF80A000120ADF80C00F6
:103A80004002ADF80E003820ADF810000020ADF86F
:103A900012000720ADF8140001A94B48FCF7D6FD31
:103AA00001214948FCF76FFE07B000BD10B5FFF7D4
:103AB000B3FF10214348FDF730F810BD00B585B0C5
:103AC0000020ADF800004FF48270ADF80200002035
:103AD000ADF804000220ADF806000120ADF80800A2
:103AE0004002ADF80A003020ADF80C000020ADF81F
:103AF0000E000720ADF8100069463348FCF7A6FD1C
:103B000001213148FCF73FFE05B000BD00B585B08E
:103B10000020ADF800004FF48270ADF802000020E4
:103B2000ADF804000220ADF806000120ADF8080051
:103B30004002ADF80A000820ADF80C000020ADF8F6
:103B40000E000720ADF8100069461F48FCF77EFD07
:103B500005B000BD10B5044600BF02211A48FCF7AD
:103B600096FE0028F9D021461748FCF73DFE10BD0F
:103B700010B5FF2400BF02211348FCF788FE00287F
:103B8000F9D0FF211048FCF72FFE00BF01210E489D
:103B9000FCF77DFE0028F9D00B48FCF727FEC4B2E5
:103BA000204610BD10B510210648FCF7B8FF10BD27
:103BB00010B510210348FCF7B0FF10BD012070477D
:103BC00000207047000801400030014010B5FF247C
:103BD000FFF74BFD0446204610BD70B504460D4668
:103BE000FF2629462046FFF7A6FE0646304670BD52
:103BF0002DE9F04104460D461646FF272246314680
:103C00002846FFF7DEFD07463846BDE8F0812DE97E
:103C1000F04104460D461646FF2722463146284607
:103C2000FFF768FD07463846BDE8F0812DE9F04111
:103C300004460D46164600274FF0FF08770A224635
:103C400039462846FFF7EEFD80464046BDE8F08144
:103C50002DE9F04104460D46164600274FF0FF08B7
:103C6000770A224639462846FFF76EFD80464046D1
:103C7000BDE8F0810020084908788968074A11608A
:103C800005494968064A11600449096812685143A8
:103C9000044A1160704700005C0B002034010020D2
:103CA000380100203001002010B5431C02E010F85C
:103CB000011B71B18107FAD14FF0013202C88C1A91
:103CC0008C4314EAC211F9D0C01A0A0603D0C01EF0
:103CD00010BDC01A10BD0A0401D0801E10BD09021B
:103CE000FCD0401E10BD704770477047754600F00D
:103CF00029F8AE4605006946534620F00700854680
:103D000018B020B5FEF704FBBDE820404FF00006D8
:103D10004FF000074FF000084FF0000B21F00701B3
:103D2000AC46ACE8C009ACE8C009ACE8C009ACE8F6
:103D3000C0098D4670470446AFF300802046FCF76B
:103D40005EFA000000487047780B002001491820F7
:103D5000ABBEFEE726000200704700000000010233
:103D60000304010203040607080902040608000010
:103D700000CA9A3B00E1F5058096980040420F008A
:103D8000A086010010270000E80300006400000086
:103D9000000A0C0D0F14191E23282D32373C4650F3
:103DA0000102040810204080C83D000800000020E7
:103DB0003C0100006C010008643E00083C0100204A
:103DC0009C120000C8010008011C021B03320A10EB
:103DD0002A576972656C657373206461746120741D
:103DE00072616E736D6974696F6E2074657374208F
:103DF000636F6D706C6574656440FC47505314FECE
:103E0000636C6F636B16DC414C4C14181B2C776190
:103E1000697420666F72206C61756E6368696E6785
:103E2000207369676E616C58100F6F2120476F6FA8
:103E300064204C75636B2140881726546865207098
:103E40006172616368757465206973206F70656E57
:103E5000A959A48A73A5BD6661696CA26911999F6D
:043E600069130110D1
:040000050800230DBF
:00000001FF
