:020000040800F2
:10000000D0030020A9010008AD010008AF010008DD
:10001000B1010008B3010008B501000800000000AC
:10002000000000000000000000000000B701000810
:10003000B901000800000000BB010008BD01000874
:100040004B0A0008BF010008BF010008BF010008FB
:10005000BF010008BF0100083D080008BF010008FB
:10006000BF010008BF010008BF010008BF01000870
:10007000BF010008BF010008BF010008BF01000860
:10008000BF010008BF010008BF010008BF01000850
:10009000BF010008BF010008BF010008BF01000840
:1000A000BF010008BF010008BF010008BF01000830
:1000B000C90B0008A50A0008BF010008BF0100081D
:1000C000BF010008BF010008BF010008BF01000810
:1000D000BF01000845060008BF010008BF01000875
:1000E0007B080008BF010008BF01000800F002F80B
:1000F00000F04AF80AA090E8000C82448344AAF178
:100100000107DA4501D100F03FF8AFF2090EBAE875
:100110000F0013F0010F18BFFB1A43F0010318473B
:100120001443000034430000103A24BF78C878C15B
:10013000FAD8520724BF30C830C144BF04680C60ED
:10014000704700000023002400250026103A28BF35
:1001500078C1FBD8520728BF30C148BF0B60704739
:10016000642902F0B385782902F0E885632902F05A
:100170003587732902F03A87002070471FB5AFF327
:1001800000801FBD10B510BD02F03CFF1146FFF707
:10019000F5FF00F02CF802F05AFFFFF7F3FF00F034
:1001A00043FA000030BF000008480047FEE7FEE7C2
:1001B000FEE7FEE7FEE7FEE7FEE7FEE7FEE7FEE717
:1001C00003480449024A044B70470000ED00000850
:1001D000D0010020D0030020D00100202049086079
:1001E000704770B504460D462846A04770BD10B54F
:1001F000092000F0BFF9482000F056F84FF41651DE
:10020000482000F05AFA00F0D9FA00F02CFE154907
:10021000486880474FF478401349088013A2322180
:100220001E2001F0EBFE15A246211E2001F0E6FE85
:1002300015A25A211E2001F0E1FE17A26E211E20F8
:1002400001F0DCFE0BE01748006808B9012000E06F
:100250000020144908604FF4FA7000F03CF8F2E70F
:10026000888122427C0000200E0000204D696E69CA
:100270002053544D3332205E5F5E000055534D4194
:10028000525420544553540041544F4D40414C4921
:10029000454E54454B000000323031312F362F315E
:1002A00038000000A00121424FF0E021096921F04F
:1002B00004014FF0E02211610146C21700EB5272B7
:1002C000D2101F4B1A70194609784FF47A725143B5
:1002D0009A1C118070471A4A921C128842434FF0B0
:1002E000E0235A6100229A6101221A6100BF4FF097
:1002F000E022116911F0010F02D011F4803FF6D015
:1003000000224FF0E0231A619A6170470C4A12787C
:1003100042434FF0E0235A6100229A6101221A61A0
:1003200000BF4FF0E022116911F0010F02D011F46B
:10033000803FF6D000224FF0E0231A619A617047A7
:1003400000000020AC4A0A400243AC4B1A607047E0
:10035000072323EA00021202A84B1B1D19684FF65F
:10036000FF031940A64B194311434FF0E023C3F894
:100370000C1D70472DE9F04704460D4616461F46F2
:100380003046F11706EB91714FEAA109F11706EB20
:1003900091718910A6EB810101F0FF0A042101EBA4
:1003A000CA0000F0FF0A3846FFF7D2FFC7F1040089
:1003B00004FA00F80F203841284040EA080808F005
:1003C0000F08202E09DA8F4800680121B140084348
:1003D0004FF0E021C1F800010BE08A48001D0168E0
:1003E000A6F120020120904001434FF0E020C0F828
:1003F0000411854850F8290008FA0AF1014382489F
:1004000040F82910BDE8F08770B50D46CE1701EB16
:100410009676B310CE1701EB9676B610A1EB860652
:10042000B606340E794DAD6945F00105774EB561DC
:100430004FEAB63555F823600F25A540AE43744DFD
:1004400045F8236055F8235000FA04F63543704E02
:1004500046F823506F4D2E6801258D402E436C4D7C
:10046000083DC5F8006412F0010F09D0694D0C3544
:100470002E6801258D402E43654D083DC5F80C645E
:1004800012F0020F09D0634D08352E6801258D400A
:100490002E435F4D083DC5F8086470BD00B50020CF
:1004A0005A490861C8601420486100208861C86109
:1004B0000846006840F00100086008464068564958
:1004C00008405249486008460068544908404F496E
:1004D00008600846006820F48020086008464068EC
:1004E00020F4FE0048600020886000214FF000608A
:1004F000FFF728FF00BD10B540480830006840F005
:1005000004004FF0E021C1F8100D4048C06940F0F0
:1005100080503E49C8614248406840F4807040497C
:1005200048600846006840F004000860084600681B
:1005300040F002000860FFF735FE10BD3048001D96
:100540002E49091D086070470146084649062F4A92
:10055000926942F001022D4B9A612D4A083A526885
:1005600022F0E0622A4B083B5A601A4652680A435E
:100570005A60704730B504460025FFF78FFF2348C7
:10058000006840F480302149086000BF1F480068BF
:10059000400CFBD04FF480601C494860A01EC4B2E0
:1005A0000846406840EA844048600846406840F495
:1005B000803048601B48006840F0320019490860EC
:1005C0001248006840F080701049086000BF0F4872
:1005D0000068400EFBD00D48406840F002000B4917
:1005E000486005E009484068C0F3870505F0030549
:1005F000022DF7D130BD000080FFFF1F08ED00E0A5
:100600000000FA0500E100E000E400E00010024014
:1006100008000140000401400000FFF8FFFFF6FE63
:100620000070004000200240014600BF704700BF3C
:100630005A4A128812F0400FFAD0C2B2574B1B1D13
:100640001A8070475549098811F0200F34D053495A
:10065000091D0988C8B25249098811F4004F2BD1ED
:100660004F49098811F4804F0CD00A2803D000218B
:100670004B4A118020E04A49098841F40041484A28
:10068000118019E00D2806D14549098841F48041BF
:10069000434A118010E042490988C1F30D01414AE3
:1006A00050543F490988491C3D4A11801146098828
:1006B000C72901DD0021118070472DE9F05F044654
:1006C0000D46280102F0AFFE8146374904FB01F0D8
:1006D00002F0A9FE8246494602F06EFD064630460B
:1006E00002F05CFE87B2384602F09DFE834631463A
:1006F00002F047FF82464FF0834102F099FE8146A7
:1007000002F04CFE80463F0107EB080087B2274805
:10071000806940F00400254988610846806940F4FA
:10072000804088612248006820F47F602149C1F838
:1007300004080846D0F8040840F40B60C1F8040827
:100740001A48C06840F480401849C8600846C0682C
:1007500020F48040C8601848A0F808780F480C3092
:10076000008842F20C0108431349A1F80C0808461E
:10077000B0F80C0840F48070A1F80C080846B0F8F6
:100780000C0840F0200005490C3108800223252286
:1007900003210846FFF7EEFDBDE8F09F0038014059
:1007A00004000020A400002040420F00001002407E
:1007B0000408014000000140003001401B488069EE
:1007C00040F00400194988610846806940F0200023
:1007D00088611748006820F00F001649C1F8040826
:1007E0000846D0F8040840F00300C1F804080846A1
:1007F000D0F80C0840F48070C1F80C080E48D0F80E
:10080000000420F470600C49C1F800040846D0F8D8
:10081000000440F44070C1F800040846D0F80C040D
:1008200040F00400C1F80C047047000000100240C2
:1008300004080140000001400010014010B50A20EA
:10084000FFF749FD4A480068012812D14848A03006
:10085000006808B9012000E000204549A031086087
:100860004448D0F8880108B9012000E0002042493E
:10087000086001204149086010BD10B50A20FFF74B
:100880002AFD3B483430006850B93948A030006830
:1008900008B9012000E000203549A03108600BE0D4
:1008A00033483C30006838B93348006808B9012043
:1008B00000E00020304908604FF400502F490860E4
:1008C00080002F49C1F8140410BD10B52D4880696F
:1008D00040F004002B4988610220FFF735FE2A48CA
:1008E000006820F00F002649C1F800080846D0F83B
:1008F000000840F00800C1F800082348001D006807
:10090000224908401E49C1F804081F48001D00681C
:100910001F4908431A49C1F804080846D0F80C08D2
:1009200040F40050C1F80C080846D0F80C0840F418
:100930000040C1F80C08022200210846FFF764FDC0
:1009400001220D210020FFF75FFD01220F21002071
:10095000FFF75AFD0223062219461846FFF70AFD43
:100960000223282201211846FFF704FD10BD0000D4
:100970000001214200802242888122421404014069
:10098000000001400010024000080140FFFF0F0F6F
:100990000000808045F255523B4B1A601A46506069
:1009A00091604AF6AA221A604CF6CC421A6070474F
:1009B0004AF6AA2034490860704770B504460D46CF
:1009C00016463248C06940F400603049C861304979
:1009D000097804EA01002E4908702E48006840EAB0
:1009E000C6102D49C1F8040C0846D0F8040C40F498
:1009F0000070C1F8040C274800684FF68071084069
:100A00002549C1F8040C0846D0F8040C2843C1F865
:100A1000040C2048001F00681D49097841F080013E
:100A200008431D49C1F8000C022300220321184687
:100A3000FFF7A0FC70BD1749091F096800F07F028D
:100A40001143154AC2F8001C704710B511480068E0
:100A500000F07F031048D0F8000C00F07F049C42A7
:100A600003DA0B480078FFF7E6FF00200949091D6B
:100A700008600A48D0F8880108B9012000E0002089
:100A80000749086010BD000000300040001002401F
:100A90000C000020042C0040002000400080224276
:100AA000888122426348008810F0010F07D0624815
:100AB000006808B9012000E000205F4908605D4837
:100AC000008820F001004FF08041A1F81004704729
:100AD00070B504460D465948C06940F002005749B8
:100AE000C86154481C3004808804A0F82854B0F829
:100AF0000C0440F001008904A1F80C040846B0F889
:100B00000C0440F04000A1F80C040846B0F80004C2
:100B100040F00100A1F8000402231D22032101205E
:100B2000FFF728FC70BD454AD26942F00202434BF0
:100B3000DA61434A126822F00F02424BC3F80428DC
:100B40001A46D2F8042842F00402C3F804281A46D0
:100B5000D2F8002822F07042C3F800281A46D2F8D2
:100B6000002842F03042C3F800281A46D2F80C2878
:100B700042F08002C3F80C289A03A2F82C04A2F8D1
:100B80002814B2F8182442F4E0429B03A3F8182476
:100B90001A46B2F8182442F40062A3F818241A4640
:100BA000B2F8202442F01002224B10331A80DA13DC
:100BB000D303A3F80024D203B2F8002442F00102C8
:100BC0001C4B103B1A80704710B54FF08040008AD4
:100BD00010F0010F02D01C49086980474FF0804097
:100BE000008A20F001004FF08041088210BD70B5EE
:100BF00004460D461148C06940F001000F49C86124
:100C0000880484850585808940F0010089048881F5
:100C10000846808940F0400088810846008840F0FE
:100C20000100088002231C2203210846FFF7A2FBD3
:100C300070BD000010040040888122420010024074
:100C400004080140000001407C0000204FF4807146
:100C5000FF4A516149005161FE490860802151619C
:100C6000116189001161704710B504460B4620469A
:100C7000FFF7ECFF4FF48070F549086140004861D0
:100C8000F44803608020486108618000086110BD5D
:100C900070B504462046FFF7D9FF4FF08830ED4984
:100CA0000C390860EC49C1F8040C4FF6FF70E949B3
:100CB00008608815E64908614000486140204861A5
:100CC0000520FFF723FB4020E1490861E248D0F806
:100CD000080C85B2481508614FF03330DD490C39F6
:100CE0000860091D08604FF6FF70DA490860284661
:100CF00070BD00B52220FFF7A9FF00BD4FF4807141
:100D0000D34A116149005161D24908608021516183
:100D1000116189001161704730B5014601F01F046F
:100D2000C1F34513CA0AE50205EB43151544A8B201
:100D300030BD70B504460D46F02C02DAB5F5A07F43
:100D400001DB002070BD2946204602F08BF92220ED
:100D5000FFF77CFF4FF08830BE490C390860BE4970
:100D6000C1F8040C4FF6FF70BA4908608815B849FD
:100D70000861400048614020486108610220FFF797
:100D8000C5FA4020B24948610220FFF7BFFA40206F
:100D9000AF490861B048D0F8080C86B24815086120
:100DA0004FF03330AB490C390860091D08604FF62D
:100DB000FF70A949C1F80C0CA8480088A0F58A4129
:100DC000313905D0A5480088A0F50941893901D1FC
:100DD0003046B7E73046FFF79FFFB3E700B540F274
:100DE00073110720FFF740FF00BD00B50021072069
:100DF000FFF73AFF00BD70B504460D462946204670
:100E000002F030F92220FFF721FF4FF48070904963
:100E1000086140004861924800888E49086080203F
:100E20008B49486108618000086170BD70B5054656
:100E300000240021084602F015F9FFF75AFF00BF11
:100E40000DE04FF48070824908614000486181489C
:100E5000056080204861086180000861641CB4F569
:100E6000963FEED370BD10B57E48806940F0080013
:100E70007C4988610846806940F010008861084616
:100E8000806940F0010088610120FFF75DFB704838
:100E900040686FF30B006E4948600846406840F2B6
:100EA000333108436A4948600846006820F07F40B3
:100EB00008600846006840F04C5008600846C0686A
:100EC00040F4F860C8604FF0333062490839086078
:100ED0006149C1F8000C4FF6FF705E49086032208E
:100EE000FFF7F9F901210020FFF7BEFE3220FFF7DE
:100EF000F2F90020FFF7CCFE584908800846018827
:100F000059A001F083FE55480088A0F5134125390A
:100F100005D052480088A0F5134128397ED1102110
:100F2000E720FFF7A1FE01210020FFF79DFE4FF40F
:100F300080710120FFF798FE4FF4E0610220FFF777
:100F400093FE41F230010320FFF78EFE00210420C2
:100F5000FFF78AFE40F207210820FFF785FE0021F7
:100F60000920FFF781FE00210A20FFF77DFE012105
:100F70000C20FFF779FE00210D20FFF775FE002100
:100F80000F20FFF771FE00211020FFF76DFE0721F3
:100F90001120FFF769FE00211220FFF765FE0021F6
:100FA0001320FFF761FE3220FFF795F941F29051CF
:100FB0001020FFF759FE40F227211120FFF754FEC1
:100FC0003220FFF788F99C211220FFF74DFE3220D6
:100FD000FFF781F94FF4C8511320FFF745FE232195
:100FE0002920FFF741FE0E212B20FFF73DFE322086
:100FF000FFF771F900212020FFF736FE40F23F1184
:101000002120FFF731FE3220FFF765F9072130205C
:10101000FFF72AFE40F20771312000E099E0FFF768
:1010200023FE06213220FFF71FFE40F20471352017
:10103000FFF71AFE41F604713620FFF715FE042172
:101040003720FFF711FE00213820FFF70DFE11E0D9
:10105000001001400C0C0140000001401200002073
:101060000E00002000100240204C43442049443A26
:1010700025780A0040F206713920FFF7F5FD40F2AD
:1010800001713C20FFF7F0FD0F213D20FFF7ECFD43
:101090003220FFF720F900215020FFF7E5FDEF2176
:1010A0005120FFF7E1FD00215220FFF7DDFD40F266
:1010B0003F115320FFF7D8FD4FF427416020FFF781
:1010C000D3FD01216120FFF7CFFD00216A20FFF74A
:1010D000CBFD00218020FFF7C7FD00218120FFF715
:1010E000C3FD00218220FFF7BFFD00218320FFF711
:1010F000BBFD00218420FFF7B7FD00218520FFF70D
:10110000B3FD10219020FFF7AFFD00219220FFF7E3
:10111000ABFD03219320FFF7A7FD4FF488719520C5
:10112000FFF7A2FD00219720FFF79EFD00219820E8
:10113000FFF79AFD40F233110720FFF795FD0021DC
:101140002020FFF791FD40F23F112120FFF78CFD99
:101150007EE2FF480088A0F51341203904D0FC4806
:101160000088B0F5134F7ED100210846FFF77CFDC3
:101170004FF480710120FFF777FD4FF4E06102200A
:10118000FFF772FD41F230010320FFF76DFD0021F2
:101190000420FFF769FD40F202210820FFF764FDFB
:1011A00000210920FFF760FD00210A20FFF75CFD08
:1011B00001210C20FFF758FD00210D20FFF754FD01
:1011C00000210F20FFF750FD3220FFF784F840F296
:1011D00001110720FFF748FD3220FFF77CF84FF49C
:1011E00086511020FFF740FD07211120FFF73CFD3D
:1011F0004FF488711220FFF737FD4FF43061132050
:10120000FFF732FD00212920FFF72EFD44F21001E7
:101210002B20FFF729FD00215020FFF725FDEF21AE
:101220005120FFF721FD00215220FFF71DFD40F264
:101230003F115320FFF718FD4FF41C516020FFF7BA
:1012400013FD01216120FFF70FFD00216A20FFF748
:101250000BFD00218020FFF707FD00218120FFF713
:1012600003FD002100E02DE08220FFF7FDFC0021BE
:101270008320FFF7F9FC00218420FFF7F5FC002113
:101280008520FFF7F1FC10219020FFF7EDFC0021F5
:101290009220FFF7E9FC01219320FFF7E5FC4FF4D2
:1012A00088719520FFF7E0FC00219720FFF7DCFC18
:1012B00000219820FFF7D8FC40F273110720FFF7B8
:1012C000D3FC45E7A2480088A0F5A84108397ED1A3
:1012D0004FF480710120FFF7C7FC4FF4E06102205A
:1012E000FFF7C2FC41F230010320FFF7BDFC0021F3
:1012F0000420FFF7B9FC40F207210820FFF7B4FCF7
:1013000000210920FFF7B0FC00210A20FFF7ACFC08
:1013100000210C20FFF7A8FC00210D20FFF7A4FC02
:1013200000210F20FFF7A0FC1420FEF7D4FF41F2AC
:10133000B0611020FFF798FC01211120FFF794FC09
:1013400001211720FFF790FC4FF49C711220FFF74A
:101350008BFC4FF400611320FFF786FC0921292044
:10136000FFF782FC09212A20FFF77EFC0021A42040
:10137000FFF77AFC00215020FFF776FCEF21512087
:10138000FFF772FC00215220FFF76EFC40F23F1184
:101390005320FFF769FC4FF41C516020FFF764FCF9
:1013A00001216120FFF760FC00216A20FFF75CFC4F
:1013B00000218020FFF758FC00218120FFF754FC1A
:1013C00000218220FFF750FC0021832000E023E071
:1013D000FFF74AFC00218420FFF746FC002185200E
:1013E000FFF742FC13219020FFF73EFC00219220E2
:1013F000FFF73AFC03219320FFF736FC4FF4887186
:101400009520FFF731FC40F273110720FFF72CFC09
:101410003220FEF760FFAAE34D480088A0F5A851EE
:1014200005397ED10720FFF71FFC3220FEF753FF5E
:101430004FF48E711220FFF717FC0121A420FFF753
:1014400013FC0F210820FFF70FFC08210A20FFF7EB
:101450000BFC08210D20FFF707FC40F2077130203C
:10146000FFF702FC07213120FFF7FEFB40F203618A
:101470003220FFF7F9FB4FF4E0613320FFF7F4FB74
:1014800040F202213420FFF7EFFB02213520FFF765
:10149000EBFB41F60F713620FFF7E6FB40F20771D8
:1014A0003720FFF7E1FB00213820FFF7DDFB0021AB
:1014B0003920FFF7D9FB40F207713A20FFF7D4FB40
:1014C00000213B20FFF7D0FB07213C20FFF7CCFB9E
:1014D00000213D20FFF7C8FB3220FEF7FCFE012172
:1014E0000720FFF7C1FB01211720FFF7BDFB3220CA
:1014F000FEF7F1FE4FF4BD511020FFF7B5FB40F2AF
:1015000017211120FFF7B0FB4FF48F711220FFF766
:10151000ABFB4FF470611320FFF7A6FB00212A20DC
:1015200000E096E0FFF7A0FB0A212920FFF79CFBD3
:101530004FF49F711220FFF797FB00215020FFF717
:1015400093FBEF215120FFF78FFB0021522001E098
:1015500012000020FFF788FB40F23F115320FFF7F5
:1015600083FB4FF41C516020FFF77EFB01216120BB
:10157000FFF77AFB00216A20FFF776FB002180202D
:10158000FFF772FB00218120FFF76EFB0021822014
:10159000FFF76AFB00218320FFF766FB0021842010
:1015A000FFF762FB00218520FFF75EFB13219020EF
:1015B000FFF75AFB4FF440719220FFF755FB0521CE
:1015C0009320FFF751FB00219520FFF74DFB0021F1
:1015D0009720FFF749FB00219820FFF745FB4FF4C8
:1015E00080710120FFF740FB4FF4E0610220FFF71C
:1015F0003BFB41F230010320FFF736FB00210420C2
:10160000FFF732FB00210C20FFF72EFB00210F20FB
:10161000FFF72AFB00212020FFF726FB00212120D5
:10162000FFF722FB21210720FFF71EFB1420FEF706
:1016300052FE61210720FFF717FB1420FEF74BFE37
:1016400040F273110720FFF70FFB1420FEF743FE53
:101650008DE2FF480088A0F5354105397DD1084667
:10166000FFF702FB00210846FFF7FEFA00210846BB
:10167000FFF7FAFA00210846FFF7F6FA0121A42045
:10168000FFF7F2FA1420FEF726FE4FF41C516020FB
:10169000FFF7EAFA40F202210820FFF7E5FA4FF4DB
:1016A00005713020FFF7E0FA43F215713120FFF7A2
:1016B000DBFA40F204613220FFF7D6FA40F61661F9
:1016C0003320FFF7D1FA42F211213420FFF7CCFA90
:1016D0004FF4A8513520FFF7C7FA48F207513620DA
:1016E000FFF7C2FA41F207413720FFF7BDFA41F296
:1016F00003413820FFF7B8FA20213920FFF7B4FA68
:101700001A219020FFF7B0FA00211020FFF7ACFA61
:1017100007211120FFF7A8FA00211220FFF7A4FAF1
:1017200000211320FFF7A0FA1420FEF7D4FD4FF498
:10173000E6611020FFF798FA40F237111120FFF709
:1017400093FA1420FEF7C7FD4FF4DC711220FFF767
:101750008BFA1420FEF7BFFD00E083E04FF47061C8
:101760001320FFF781FA80212A20FFF77DFA482114
:101770002920FFF779FA1420FEF7ADFD4FF48071B0
:101780000120FFF771FA4FF4E0610220FFF76CFAD5
:1017900041F230210320FFF767FA40F202210820CE
:1017A000FFF762FA00210A20FFF75EFA00210C2001
:1017B000FFF75AFA00210D20FFF756FA30210E20CC
:1017C000FFF752FA00215020FFF74EFAEF21512087
:1017D000FFF74AFA00215220FFF746FA40F23F1184
:1017E0005320FFF741FA4FF41C516020FFF73CFAF9
:1017F00001216120FFF738FA00216A20FFF734FA4F
:1018000011219020FFF730FA4FF4C0619220FFF7CA
:101810002BFA40F202419320FFF726FA022194208E
:10182000FFF722FA1420FEF756FD01210720FFF7EB
:101830001BFA1420FEF74FFD61210720FFF714FA71
:1018400040F273110720FFF70FFA00212020FFF765
:101850000BFA00212120FFF707FA22210020FFF7D1
:1018600003FA84E17A480088A0F5094189397DD1DD
:1018700001210020FFF7F8F94AF6A4010320FFF741
:10188000F3F900210C20FFF7EFF940F60C010D20D1
:10189000FFF7EAF94FF42C510E20FFF7E5F9B021DC
:1018A0001E20FFF7E1F942F63F310120FFF7DCF996
:1018B0004FF4C0610220FFF7D7F900211020FFF795
:1018C000D3F946F270011120FFF7CEF9002105206F
:1018D000FFF7CAF900210620FFF7C6F94EF61C7182
:1018E0001620FFF7C1F903211720FFF7BDF940F2D9
:1018F00033210720FFF7B8F900210B20FFF7B4F9D7
:1019000000210F20FFF7B0F900214120FFF7ACF9CB
:1019100000214220FFF7A8F900214820FFF7A4F991
:1019200040F23F114920FFF79FF900214A20FFF7BD
:101930009BF900214B20FFF797F94FF46F414420AA
:10194000FFF792F900214520FFF78EF940F23F1191
:101950004620FFF789F940F207713020FFF784F93C
:101960004FF401713120FFF77FF900E03DE04FF4C3
:1019700001713220FFF778F940F202513320FFF76E
:1019800073F940F207513420FFF76EF94FF40171FB
:101990003520FFF769F94FF401713620FFF764F93C
:1019A00040F202513720FFF75FF940F202313A204E
:1019B000FFF75AF940F202313B20FFF755F90021B9
:1019C0002320FFF751F900212420FFF74DF94FF4B0
:1019D00000412520FFF748F900214F20FFF744F987
:1019E00000214E20FFF740F9C1E019480088A0F51A
:1019F0008A413139F8D101210020FFF735F90A2059
:101A0000FEF769FC41F228611020FFF72DF90E2145
:101A10001220FFF729F940F639211320FFF724F9A6
:101A20000A20FEF758FC40211120FFF71DF9502134
:101A30001520FFF719F90A20FEF74DFC1E21122090
:101A4000FFF712F90A20FEF746FC4FF4B15101E00E
:101A5000120000201020FFF707F942F63921132069
:101A6000FFF702F90A20FEF736FC4FF480710120DF
:101A7000FFF7FAF84FF440710220FFF7F5F841F252
:101A800030010320FFF7F0F840F202210820FFF7B1
:101A9000EBF808210A20FFF7E7F800213020FFF7D4
:101AA000E3F840F202413120FFF7DEF84FF4837192
:101AB0003220FFF7D9F840F203513320FFF7D4F872
:101AC0004FF482713420FFF7CFF840F20131352016
:101AD000FFF7CAF840F207713620FFF7C5F840F269
:101AE00005313720FFF7C0F84FF402713820FFF7B7
:101AF000BBF840F60B713920FFF7B6F80221412000
:101B0000FFF7B2F84FF41C516020FFF7ADF8012148
:101B10006120FFF7A9F84FF404719020FFF7A4F8B3
:101B20004FF485719220FFF79FF804219320FFF76F
:101B30009BF84FF48071A020FFF796F80121072051
:101B4000FFF792F821210720FFF78EF823210720C5
:101B5000FFF78AF833210720FFF786F840F23311A8
:101B60000720FFF781F80021A020FFF77DF8012072
:101B7000FF4908604FF6FF70FFF758F910BD2DE9D7
:101B8000F05F04460D4616461F46DDF828804FF0EC
:101B9000000B301B401C1FFA80FBA94620E0494681
:101BA000204601F05FFAFFF7A4F84FF0000A11E0B9
:101BB0004FF48070EF49086140004861EE48C0F87A
:101BC0000C8C802048610861800008610AF10100E6
:101BD0001FFA80FADA45EBDB09F101001FFA80F900
:101BE000B945DCDDBDE8F09F2DE9FF4F85B0044627
:101BF0000D461646002004900390A6EB04080898B2
:101C0000A0EB0509A3460095B8F1000F02DD012005
:101C100001900AE0B8F1000F02D10020019004E029
:101C20004FF0FF300190C8F10008B9F1000F02DD5C
:101C30004FF0010A09E0B9F1000F02D14FF0000A9C
:101C400003E04FF0FF3AC9F10009C84502DDCDF8C5
:101C5000088001E0CDF80890002722E0009881B2CA
:101C60001FFA8BF0FFF7C7F80498404404900398DC
:101C70004844039002990498884205DD049902982B
:101C8000081A049001988344DDE90210884206DDB9
:101C9000DDE90210401A0390009850440090781C2F
:101CA00087B20298401C8742D8DD09B0BDE8F08FAA
:101CB0002DE9F04104460D4616461F462B46324696
:101CC00029462046FFF790FF3B46224629462046FC
:101CD000FFF78AFF3B46324639462046FFF784FF2E
:101CE0003B46324629463046FFF77EFFBDE8F0818D
:101CF0002DE9F04704460D4616460027B04603205E
:101D0000A0EB460954E0EA1B91B2A4EB080290B2A2
:101D1000FFF771F8EA1B91B204EB080290B2FFF7EB
:101D20006AF805EB080291B2E21B90B2FFF763F884
:101D3000EA1B91B2A4EB080290B2FFF75CF8A5EBA6
:101D4000080291B2E21B90B2FFF755F8EA1991B27E
:101D500004EB080290B2FFF74EF8A5EB080291B22F
:101D6000E21990B2FFF747F805EB080291B2E219C9
:101D700090B2FFF740F8EA1991B2A4EB080290B2D2
:101D8000FFF739F87F1CB9F1000F03DAB800801DA6
:101D9000814406E0A7EB080080000A308144A8F1E6
:101DA000010805EB080291B2E21990B2FFF723F89F
:101DB0004745A8DDBDE8F0872DE9F84F04460D46FC
:101DC00016461F46A3466D4800880090E82C02DCAA
:101DD000B5F59C7F01DDBDE8F88FA6F12000C6B205
:101DE0000A98002839D1814634E00C2F07D106EB40
:101DF0004600634901EB800010F8098004E0614867
:101E000000EB061010F809804FF0000A16E018F0F9
:101E1000010F03D059490098088003E05A48008810
:101E20005649088029462046FEF7E5FF4FEA680834
:101E3000601C84B20AF1010000F0FF0A07EBD771C1
:101E4000BAEB610FE3DB5C46681C85B209F1010067
:101E500000F0FF09B945C8DB30E04FF000092BE086
:101E60000C2F07D106EB4600454901EB800010F826
:101E7000098004E0434800EB061010F809804FF099
:101E8000000A10E018F0010F07D005EB090291B22B
:101E900004EB0A0290B2FEF7AEFF4FEA68080AF1BF
:101EA000010000F0FF0A07EBD771BAEB610FE9DB25
:101EB00009F1010000F0FF09B945D1DB2F49009875
:101EC000088088E710B50246012000E050430B006F
:101ED000A1F10104E1B2F9D110BD2DE9FF4F81B0AC
:101EE000044615461E460E9F4FF0000AD0463EE0BF
:101EF000A6EB0800401EC1B20A20FFF7E3FFB5FBC6
:101F0000F0F00A21B0FBF1F201FB120000F0FF0932
:101F1000BAF1000F16D1701E404513DDB9F1000F64
:101F20000ED10023BB4607EBD771491001FB0841D6
:101F300088B200933B4620220299FFF73DFF12E052
:101F40004FF0010A0023BB4607EBD771491001FB94
:101F5000084188B200933B4609F13001CAB20299A8
:101F6000FFF72AFF00BF08F1010000F0FF080DE0B5
:101F7000A801224200100140000001400E00002094
:101F8000D63700084A3C000810000020B045AFDBFF
:101F900005B0BDE8F08F2DE9F84F04460D46164612
:101FA0001F46DDF828804FF0000923E0A7EB090069
:101FB000401EC1B20A20FFF785FFB6FBF0F00A21F0
:101FC000B0FBF1F201FB120000F0FF0A0B9BC346CD
:101FD00008EBD871491001FB094188B200934346D0
:101FE0000AF13001CAB22946FFF7E6FE09F1010005
:101FF00000F0FF09B945D9DBBDE8F88FF8B5044614
:102000000D4616461BE0E82C03DD002405F1100008
:1020100085B2B5F59C7F06DD0020044605464FF6E7
:10202000FF70FEF703FF0023009332781023294648
:102030002046FFF7C1FE04F1080084B2761C307818
:102040000028E0D1F8BD000030B589B00546002475
:1020500009E0774850F82410284600F0C5FB00B18D
:1020600003E0601CC4B2042CF3DB00BF34B1012CCC
:1020700005D0022C2ED0032C69D145E000BF6DA005
:1020800000F0C4FD6CA000F0C1FD7BA000F0BEFD1F
:1020900089A000F0BBFD98A000F0B8FDA6A000F05C
:1020A000B5FDB5A000F0B2FDBDA000F0AFFDC2A02F
:1020B00000F0ACFDC6A000F0A9FDCBA000F0A6FD8D
:1020C000CFA000F0A3FDD5A000F0A0FDE0A000F09F
:1020D0009DFD3FE057A000F099FDEDA000F096FDBA
:1020E000002409E0FA48006800EBC4004168F9A048
:1020F00000F08CFD601CC4B2F548007DA042F1DC0C
:10210000BEA000F083FD25E04AA000F07FFDF3A013
:1021100000F07CFD002412E0ED49096801EBC401E8
:102120006A46486801A900F008FCE948006850F8D0
:10213000342001A9F9A000F069FD601CC4B2E44894
:10214000007DA042E8DCADA000F060FD02E00120CF
:1021500009B030BD00BF0020FAE710B54FF41651AA
:102160004820FEF7AAFA41F61F414FF47A70FEF7B5
:102170003EFD10BD30B593B0044611AA08A9204613
:1021800000F0DBFB054615B1284613B030BD00203A
:10219000129025E0CE4909689DF8482001EBC20164
:1021A00010AA4868694600F0C8FB05460DB12846EC
:1021B000EBE708A9684600F017FB60B19DF8400006
:1021C0009DF84410884201DD0220DEE79DF84800BA
:1021D000BF4988750AE09DF84800401CC0B21290C3
:1021E000BB48007D9DF848108842D3DC00BFB8484A
:1021F000007D9DF84810884201D10420C5E712A94E
:10220000204600F072FC05460DB12846BDE79DF85A
:102210004800AF4948750020B7E7F0B599B0AC4821
:10222000847D007DA04201DC19B0F0BD80E100009A
:10223000140000200D0A00002D2D2D2D2D2D2D2DEB
:102240002D2D2D2D2D2D2D2D2D2D2D2D2D2D2D2DBE
:1022500055534D4152542056322E302D2D2D2D2DBB
:102260002D2D2D2D2D2D2D2D2D2D2D2D2D2D2D2D9E
:102270002D2D2D200D0A00002020202055534D41EA
:102280005254CAC7D3C9414C49454E54454BBFAAC5
:10229000B7A2B5C4D2BBB8F6C1E9C7C9B5C4B4AE1C
:1022A000BFDAB5F7CAD4BBA5BDBBD7E9BCFE2CCD00
:1022B000A8B9FD200D0A0000CBFC2CC4E3BFC9D295
:1022C000D4CDA8B9FDB4AEBFDAD6FACAD6B5F7D325
:1022D000C3B3CCD0F2C0EFC3E6B5C4C8CEBACEBA51
:1022E000AFCAFD2CB2A2D6B4D0D02ED2F2B4CB2C31
:1022F000C4E3BFC90D0A0000D2D4CBE6D2E2B8FCD9
:10230000B8C4BAAFCAFDB5C4CAE4C8EBB2CECAFD00
:1023100028D6A7B3D6CAFDD7D62831302F3136BD3F
:10232000F8D6C629A1A2D7D6B7FBB4AEA1A2BAAF40
:10233000CAFDC8EB0D0A0000BFDAB5D8D6B7B5C8DC
:10234000D7F7CEAAB2CECAFD292CB5A5B8F6BAAF3A
:10235000CAFDD7EEB6E0D6A7B3D63130B8F6CAE498
:10236000C8EBB2CECAFD2CB2A2D6A7B3D6BAAFCABA
:10237000FDB7B5200D0A0000BBD8D6B5CFD4CABE74
:102380002E2020BCBCCAF5D6A7B3D63A7777772ED5
:102390006F70656E6564762E636F6D0D0A000000C8
:1023A00055534D415254D3D034B8F6CFB5CDB3C305
:1023B000FCC1EE3A0D0A00003F3A20202020BBF17C
:1023C000C8A1B0EFD6FAD0C5CFA20D0A0000000018
:1023D00068656C703A20BBF1C8A1B0EFD6FAD0C5E1
:1023E000CFA20D0A000000006C6973743A20BFC9C7
:1023F000D3C3B5C4BAAFCAFDC1D0B1ED0D0A0A004E
:1024000069643A202020BFC9D3C3BAAFCAFDB5C49E
:102410004944C1D0B1ED0D0A0A000000C7EBB0B4C9
:10242000D5D5B3CCD0F2B1E0D0B4B8F1CABDCAE4CE
:10243000C8EBBAAFCAFDC3FBBCB0B2CECAFDB2A2F4
:10244000D2D4BBD8B3B5BCFCBDE1CAF82E0D0A008E
:102450002D2D2D2D2D2D2D2D2D2D2D2D2D2D2D2DAC
:102460002D2D2D2D2D2D2D2D2D2D414C49454E54ED
:10247000454B2D2D2D2D2D2D2D2D2D2D2D2D2D2D56
:102480002D2D2D2D2D2D2D2D2D2D2D200D0A000026
:102490002D2D2D2D2D2D2D2D2D2D2D2D2D2D2D2D6C
:1024A0002D2D2D2D2D2D2D2D2DBAAFCAFDC7E5B506
:1024B000A52D2D2D2D2D2D2D2D2D2D2D2D2D2D2DD4
:1024C0002D2D2D2D2D2D2D2D2D2D2D2D200D0A00B9
:1024D0007C00002025730D0A000000002D2D2D2DFD
:1024E0002D2D2D2D2D2D2D2D2D2D2D2D2D2D2D2D1C
:1024F0002D2D2D2D2DBAAFCAFD204944202D2D2D77
:102500002D2D2D2D2D2D2D2D2D2D2D2D2D2D2D2DFB
:102510002D2D2D2D2D2D2D2D200D0A0025732069FB
:10252000642069733A0D0A3078253038780D0A0036
:102530009349096801EBC40106AA486807A900F09D
:10254000FCF907A98FA000F061FB00253AE08C4858
:10255000008B0121A94008421BD022218BA000F052
:1025600055FB284600F0B4FA85492431471839460E
:1025700087A000F04BFB222184A000F047FB2846F7
:1025800000F0A6FA7E49243108440FA941F825003D
:102590000EE0284600F09CFA7949243108580FA92A
:1025A00041F825000FA850F825107AA000F02EFB66
:1025B0009DF81800401EA84202D077A000F026FB2C
:1025C000681CC5B29DF818008542C0DB73A000F0FE
:1025D0001DFB6B48407D0B280DD2DFE800F0060D97
:1025E000151E27323F4E5D6C7D006549096851F824
:1025F00034008047064682E0614A126852F834107F
:102600000F98884706467AE05D4B1B6853F83420E4
:10261000DDE90F019047064671E0594F3F6857F8D2
:1026200034300FA807C89847064668E0DFF850C165
:10263000DCF800C05CF834700FA80FC8B847064635
:102640005DE0139BDFF838C10093DCF800C05CF854
:1026500034700FA80FC8B847064650E0DDE91323D1
:10266000DFF81CC1CDE90023DCF800C05CF8347051
:102670000FA80FC8B847064641E013A90EC9DFF8F6
:1026800000C18DE80E00DCF800C05CF834700FA8C3
:102690000FC8B847064632E013A80FC8DFF8E0C0FD
:1026A0008DE80F00DCF800C05CF834700FA80FC88C
:1026B000B847064623E014A80FC801AF0FC7139B05
:1026C000DFF8BCC00093DCF800C05CF834700FA8E1
:1026D0000FC8B847064612E015A80FC802AF0FC7CB
:1026E000DDE91323DFF898C0CDE90023DCF800C052
:1026F0005CF834700FA80FC8B847064600BF00BF8B
:10270000314627A000F082FA19B0F0BD70B5264816
:10271000008810F4004F31D023480088C5B2002053
:1027200022494855164881682048884704461CB904
:102730001349C86880471EE01C48FFF785FC002845
:1027400019D0012C06D0022C08D0032C0AD0042C5E
:1027500010D10BE016A000F059FA0BE017A000F022
:1027600055FA07E018A000F051FA03E019A000F0B4
:102770004DFA00BF00BF00200B49088070BD00006B
:102780007C0000200D0A257328000000256300004E
:1027900025730000256400002C00000029000000C3
:1027A0003D25643B0D0A000004000020A400002029
:1027B000BAAFCAFDB4EDCEF3210D0A00B2CECAFD08
:1027C000B4EDCEF3210D0A00B2CECAFDCCABB6E01B
:1027D000210D0A00CEB4D5D2B5BDC6A5C5E4B5C499
:1027E000BAAFCAFD210D0A0002460AE010780B7844
:1027F000984201D000207047107800B902E0521CC6
:10280000491CF3E700BF0120F5E706E002780A70F3
:10281000027802B902E0401C491CF7E700BF70478C
:102820000146002005E00A7802B903E0421CD0B25C
:10283000491CF8E700BF704710B50246012000E0D0
:1028400050430B00A1F10104E1B2F9D110BD2DE913
:10285000F04304460D4600274FF00A09A046002029
:10286000286027E098F80000392803DC98F8000079
:1028700030280DDA98F80000462803DC98F80000AC
:10288000412805DA98F8000058280AD1012F08D10C
:1028900098F80000412801DB4FF01009781CC7B2FE
:1028A00006E098F8000000B905E00120BDE8F083DB
:1028B00008F10108D6E700BFA046B9F1100F12D108
:1028C000032F01DA0220F1E798F80000302808D140
:1028D00098F80100582804D108F10208B81EC7B2C0
:1028E00004E00320E2E70FB90420DFE721E00FB1A5
:1028F000781EC7B298F80000392808DC98F8000064
:10290000302804DB98F80000A0F1300603E098F8C6
:102910000000A0F1370639464846FFF78DFF2968C9
:1029200006FB0010286008F1010898F8000000B9C3
:1029300000E0DCE700BF0020B8E7F0B50346002464
:10294000002600274FF0010C1D4600200AE06D1CF8
:1029500000F1010E0EF0FF0095F800E0BEF1200F2F
:1029600000D1064695F800E0BEF1280FEFD11D46D4
:1029700016B106F1010E7544002044E095F800E020
:10298000BEF1000F01D101203EE095F800E0BEF15C
:10299000280F04D104F1010E0EF0FF040DE095F8AC
:1029A00000E0BEF1290F08D124B1A4F1010E0EF010
:1029B000FF0400E0012004B926E02CB995F800E0FE
:1029C00081F800E0491C1DE095F800E0BEF12C0FF5
:1029D00002D14FF0010C08E095F800E0BEF1200FA5
:1029E00003D00CF1010E0EF0FF0C012C0AD1BCF14A
:1029F000020F07D10CF1010E0EF0FF0C07F1010ED2
:102A00000EF0FF076D1CB9E700BF17704FF0000E06
:102A100081F800E0F0BDF0B5034600200024002559
:102A200000264FE01F782C2F01D106B901241F7812
:102A3000292F01D01F780FB906B944E0002D34D1F9
:102A40001F78302F02DB1F78392F11DD1F78612F9F
:102A500002DB1F78662F0BDD1F78412F02DB1F780A
:102A6000462F05DD1F78582F02D01F78782F0CD104
:102A700004B128E01F78612F03DB1F78203F0F701F
:102A800001E01F780F70491C19E01F78222F04D134
:102A900004B118E00125012611E01F78202F0ED087
:102AA0001F782C2F0BD0FF250DE01F78222F00D18F
:102AB000002604B107E016B11F780F70491C471CAF
:102AC000F8B25B1CAEE700BF00270F701570F0BDB9
:102AD00001460020002205E04A4B9B5C0344D8B22B
:102AE000531CDAB28A42F7DB70472DE9FF430446F4
:102AF0000D464FF00008002604E0002141488155B2
:102B0000701CC6B20A2EF8DB06E0641C207818B9E7
:102B1000012004B0BDE8F08320782828F5D1641C9A
:102B200069E003AA69462046FFF775FF064634446C
:102B30009DF80C0020B101282CD0FF2854D151E081
:102B40009DF8000028B302A96846FFF780FE0646FC
:102B50000EB10220DDE74046FFF7BAFF29490A31EE
:102B6000029A0A50A1F12400018B012000FA08F01A
:102B7000814324481A38018304211A3000F80810D0
:102B800008F1010000F0FF08B8F10A0F01DD032091
:102B9000BFE729E06846FFF743FE401CC7B2404646
:102BA000FFF796FF17490A3100EB010949466846CD
:102BB000FFF72BFE13481A38018B012000FA08F0AA
:102BC000014388B20F491A3908830E4800F808708B
:102BD00008F1010000F0FF08B8F10A0F01DD032041
:102BE00097E701E0022094E700BF2078292801D070
:102BF000207800B900E094E700BF85F8008000204D
:102C000087E7000096000020704700000FB4054AD7
:102C1000054910B503AB7944029800F0C2F910BC25
:102C20005DF814FB0800002015DAFFFF70B50446BC
:102C3000856900683026C10600D42026C00709D166
:102C400006E0D4E9012130469047206A401C20620A
:102C50006D1EF6D570BD70B5044685690068C00765
:102C600009D006E0D4E9012120209047206A401CC9
:102C700020626D1EF6D570BD70B505460C46012A62
:102C800001D101200BE02868800600D5EA69002008
:102C900000E0401C904202D2215C0029F9D1A969D0
:102CA0002618091AA961296A014428462962FFF7F2
:102CB000BDFF04E0D5E9012114F8010B9047B442AF
:102CC000F8D32846FFF7C7FF70BD00002DE9F0419B
:102CD0008046002610687529414614A511D0AFF32F
:102CE0000080002802DA404211A508E0D8F8001060
:102CF0008A0701D50FA502E0490704D50EA50126D4
:102D000001E0AFF30080002408F1240704E000F0A4
:102D100071F930313955641C0028F8D133462A4600
:102D200021464046BDE8F04100F0DEB8000000005A
:102D30002D0000002B0000002000000070B50446AC
:102D40000D4621461068AFF300802168090502D5C1
:102D5000104A7A4402E00F4A7A440E32002104F10C
:102D6000240306E000F00F064FEA1010965D5E5453
:102D7000491C0028F6D120680023000704D5702DD7
:102D800002D009B1113202232046BDE8704000F0A4
:102D9000ABB80000E41400002DE9F05F4FF0000B29
:102DA000044689464FF0010AC0F820B02046E16889
:102DB000884700287DD0252802D0D4E9012185E06C
:102DC000464F00267F442046E16888472028054674
:102DD00007DB312D05D2781910F8200C08B1064315
:102DE000F1E7B00701D526F00406C4F81CB00027AF
:102DF000C4F818B02A2D10D1204659F8041B04EB52
:102E000087029161E1688847012F054628D1E06972
:102E1000002830DA26F020062DE0A5F130005246D9
:102E20000A2801461AD2CAB104EB870092468046AE
:102E3000816108E0D8F8180000EB800005EB400045
:102E40003038C8F818002046E168884705465046E3
:102E5000A5F130010A2901D20028EBD1012F0AD0B7
:102E60002E2D08D12046E16888477F1C0546022F99
:102E700046F02006BEDBA069002803DA404246F097
:102E80000106A061F00701D026F010068DB1A5F172
:102E90004100192802D8203546F400664A462946E2
:102EA000204626604E46FDF75BF960B1012804D14B
:102EB00000E010E006F1040978E7F61D26F00700AF
:102EC00000F1080972E7D4E9012128469047206AF9
:102ED000401C20626AE7206ABDE8F09F9A14000057
:102EE00070477047704770472DE9F0470D4604461C
:102EF0009246994600F124080168880604D5E069E5
:102F000021F01001216000E001200027A84200DD2F
:102F1000471BA1697A1902EB0900081AA061206811
:102F2000C00602D42046FFF781FE002608E0D4E95F
:102F300001211AF806009047206A401C761C206286
:102F40004E45F4DB2068C0060AD52046FFF76EFE2A
:102F500006E0D4E9012130209047206A401C20621D
:102F6000381EA7F10107F4DC07E0D4E9012118F8C5
:102F700005009047206A401C2062281EA5F101052B
:102F8000F3DC2046FFF767FE21680220090600D423
:102F90000120BDE8F087000001694A1C0261087841
:102FA000704710B50C46194690B0CDE90242002298
:102FB0000692044A7A44CDE9042001A8FFF7ECFE0A
:102FC00010B010BDE1FFFFFF10B5436913B1AFF3BF
:102FD000008001E0FFF750FE012010BD126800F1F3
:102FE00024010A7000224A700122EDE711684FF0B7
:102FF000FF32E9E74FF00A01B0FBF1F202FB1101E9
:1030000010467047754600F029F8AE46050069463F
:10301000534620F00700854618B020B5FDF7D0F8DC
:10302000BDE820404FF000064FF000074FF00008C9
:103030004FF0000B21F00701AC46ACE8C009ACE84A
:10304000C009ACE8C009ACE8C0098D467047044629
:10305000AFF300802046FDF7A0F80000004870475D
:103060006C01002030B504460D460C480088A0F5E0
:103070000941893908D121464E20FDF7F5FD294641
:103080004F20FDF7F1FD07E021462020FDF7ECFD84
:1030900029462120FDF7E8FD30BD00001200002088
:1030A00090EA010F48BF81F0004100F17C82421A92
:1030B0003CBF801A89184FEAD0524FF07F4C1CEA6F
:1030C000410FA2EBD15318BF9CEA026F00F0408081
:1030D0004FF0004C4CEA00204CEA012121FA03FC9D
:1030E00010EB0C0C23D202F1FF325FEA1C2040EB04
:1030F000C25038BF70471CF07F0F4FEA400C18BF1A
:10310000BCF17F4F38BF7047C3F12003994008BF1F
:1031100020F00100BCF17F4F38BF7047A0F1C040E4
:103120004FF0FF0141EAD0514FEAC15070474FEADA
:103130003C00000A40EBC25028BF1CF0FF0F4FEAD2
:10314000400CE1D018BFBCF17F4F38BF7047E5E7B6
:103150009CEA026F05D010EA5C0F08BF00F0004047
:103160007047BCEB410F4FEA400228BF9445DFF89F
:1031700028C0C0F01580AFF30080B2EB410F05D03E
:1031800012F1807F08BF70470846704790EA010F30
:1031900058BF704701487047010000040000C07F1D
:1031A000014800F0CEBA00000000C07F014800F0E6
:1031B000C8BA00000000C07F4FF47F0C1CEAD01298
:1031C0001EBF1CEAD11392EA0C0F93EA0C0F00F019
:1031D000A58090EA010F48BF42F4807240F4000CD1
:1031E00041F400002CF07F4120F07F4000B5814287
:1031F000A2EB03020FF2401CACEB504EC0F10000FA
:103200009EF800E04FEA4E0E00FB0EFC38BF49006E
:103210004FEA2C1C02F5FA020CFB0EF34FEACE1E0D
:103220004FEA112C4FEAC1210EEB635E0EFB0CFC42
:103230004FEA1C5300FB03114FEA112C4FEA0131F6
:103240000EFB0CFC02F4807E42EB22424FEADC4C87
:1032500000FB0C11C14228BF09184CEB03330129B4
:1032600024BF4EF0020E4EF0804E10EB410F24BFF3
:103270004EF0010E4EF0804E08BF4EF0040E4EF0A0
:1032800008015DF804EB43EBC25018BFB2F57C0FA8
:1032900038BF704741EAC07108BF20F00100B2F5A5
:1032A0007C0F38BF704729D512F0F00F1CBF00F11A
:1032B000C04000F00040704700818283848586878B
:1032C00088898B8C8D8E8F919293959697999A9CE5
:1032D0009D9FA0A2A3A5A7A8AAACAEB0B2B3B5B754
:1032E000B9BCBEC0C2C5C7C9CCCED1D4D7D9DCDF2A
:1032F000E2E6E9ECF0F3F7FAFE0000004FEA400CDA
:103300000CF1807CBCF17E4F28BF7047B0F1C0400B
:103310004FF07F404CBF40104008704790EA010FCB
:103320000CEAD11348BF42F48072624538BF63454E
:1033300007D213F47F0F23D080EA010000F0004091
:1033400070474FF0807C1CEB400F98BF1CEB410F87
:10335000DFF840C03FF624AFAFF300804FF0807C31
:103360001CEB400F02BF1CEB410F0B4870471CEBDE
:10337000410F0CBF002020F0004040EAC2507047CF
:1033800012F47F0F04BF0448704742F0FF004FEA79
:10339000C0507047040000040000C07FC2154FEA0F
:1033A000002318BF43F0004305D4D2F19E020AD394
:1033B00023FA02F070474FEA4001B1F1FE4F02D20A
:1033C0004FF000007047DFF828C04FEA4001B1F12C
:1033D0007F4F88BF4CF4803C3FF6E8AE1CBF6FEADD
:1033E000E0707047AFF300806FEAE0707047000054
:1033F0006800020410F0004218BF404242F08042D0
:10340000B0FA80F18840A2EBC15202F1786208BFA5
:103410007047410642EB202018BF5FF0806C28BF48
:1034200020F0010070474FF08042FFF7E9BF000035
:103430004FF47F0C1CEAD0121EBF1CEAD11392EA93
:103440000C0F93EA0C0F00F04A8090EA010F48BF7E
:1034500042F480724FF0004C4CEA00204CEA01210B
:103460001A44A0FB01C3A2F50002BCF1000F18BF73
:1034700043F0010302F4807CB3F1004F38BF5B00DE
:1034800042EB2242180A40EBC25028BF13F07F0FD4
:1034900018BFB2F57C0F38BF704708BF20F001009D
:1034A000B2F57C0F38BF70470BD582F0FF0212F5E2
:1034B000803FC8BF704700F1C040D8BF00F0004057
:1034C000704700F5000C5FEA4C0C48BF7047B0F144
:1034D000C0404FF07F404CBF40104008704790EA1A
:1034E000010F0CEAD11348BF42F48072624538BF25
:1034F000634504D280EA010000F0004070474FF0BD
:10350000807C1CEB400F98BF1CEB410F4FF0030C6D
:103510004CF0806C3FF644AEAFF3008012F47F0FA6
:103520001FBF13F47F0F42F0FF02D0057047014820
:10353000704700000000C07F10B412F47F0F4FEA04
:1035400000204FEA012110D1B0FA80F400FA04F013
:10355000A2EB044213F47F0F02F5803218BF41F052
:10356000004100D010BC18BF604740F00040B1FAE5
:1035700081F401FA04F1A3EB044310BC03F580339A
:10358000604780F0004090EA010F7FF590AD81F038
:10359000004100F008B8000090EA010F48BF81F038
:1035A00000413FF584AD421A3EBF82F00042801ACE
:1035B00089184FEAD0524FF07F4C1CEA410FA2EB22
:1035C000D15318BF9CEA026F4FD04FF0004C4CEA29
:1035D00000204CEA012121FA03FCB0EB0C0C0FD4C3
:1035E00012F0FE0F18BF5FEA4C001DD5001240EB31
:1035F000C25038BF70471CF03F0F18BF70470BE038
:10360000A2F101025FEA1C2040EBC25038BF7047B4
:103610001CF07F0F18BF7047C3F12003994014BFFF
:10362000401E20F0010070474FEA122316D00042DE
:1036300004BF002070474FEA9000B0FA80FCA2EB74
:103640000C02CCF1280C60FA0CF093EA122F04BFA4
:1036500000EBC25070474FEAC37070475FEADC105E
:1036600008BF70474FEAC37070479CEA026F04D0EE
:1036700010EA5C0F08BF00207047BCEB410F4FEA17
:10368000400228BF9445DFF82CC0FFF489ADAFF3AA
:103690000080B2EB410F06D012F1807F08BF704767
:1036A00081F00040704790EA010F48BF7047024820
:1036B00070470000020000040000C07F00F00043DB
:1036C00043EAD05323F48073C3F1C10323F00041D4
:1036D00017291FD8C3F1200310FA03F1C3F1200307
:1036E00020F07F4040F4000020FA03F003F0004394
:1036F00040EA03000DD00B46590009D318BF401C07
:1037000006D17FEAE27398BF401C38BF20F0010069
:1037100070477047182903EB912318BF6FF00041E1
:10372000013168BF03F0004009D6400203F00040B9
:1037300000F1010004BF12F0004F20F001007047BB
:1037400070470CF00F03092B08BF082000F02B80F6
:103750000A2B0BD0082B18BF704708BF1CF0400F76
:103760000AD04FF000004FF0000170471CF0400FEE
:1037700018BF4FF0004070471CF0100F08D020F029
:10378000704300F07F4242EAD3014FEA4370704732
:1037900000F0604021F07F4242EA000201F07F40E9
:1037A00040EA727070471CF4801F11D01CF4E02FA7
:1037B00003D06FEACC31490070474FF04050EFF32F
:1037C000008222F0704242EA000282F300887047D1
:1037D0004FF00000704700000000000000000000F3
:1037E00000000000040404040404000400000014A9
:1037F0000A0A0000000000000000000014143F143A
:103800000A3F0A0A000000041E1505060C14150FD5
:103810000400000012150D0A142C2A1200000000EA
:10382000040A0A1E151509360000000202010000F4
:103830000000000000000020100808080808081018
:10384000200000020408080808080804020000001C
:103850000004150E0E150400000000000404041FEF
:10386000040404000000000000000000000000024A
:10387000020100000000001F000000000000000026
:10388000000000000000000200000010080808040A
:1038900004020202010000000E1111111111110E9B
:1038A00000000000040604040404040E00000000EC
:1038B0000E1111080402011F000000000E11100C6F
:1038C0001010110E00000000080C0A0A091E08184A
:1038D000000000001F01010F1010110E0000000079
:1038E0000E09010F1111110E000000001F0908043C
:1038F00004040404000000000E11110E1111110E39
:10390000000000000E1111111E10120E0000000028
:10391000000004000000000400000000000000049B
:103920000000000404000020100804020408102015
:103930000000000000001F00001F00000000000247
:103940000408102010080402000000000E111108E5
:1039500004040004000000000E111915151D011EBD
:103960000000000004040C0A0A1E123300000000CC
:103970000F12120E1212120F000000001E11010190
:103980000101110E000000000F1212121212120F8C
:10399000000000001F120A0E0A02121F00000000A1
:1039A0001F120A0E0A020207000000001C12010189
:1039B0003911120C000000003312121E12121233C1
:1039C000000000001F0404040404041F00000000A1
:1039D0003E080808080808090700000037120A0610
:1039E0000A0A123700000000070202020202223F08
:1039F000000000001B1B1B1B151515150000000007
:103A00003B1216161A1A1217000000000E1111119F
:103A10001111110E000000000F12120E0202020717
:103A2000000000000E1111111117190E18000000EE
:103A30000F12120E0A121237000000001E110106AA
:103A40000810110F000000001F1504040404040EE8
:103A500000000000331212121212120C00000000BB
:103A60003312120A0A0C0404000000001515150E8A
:103A70000A0A0A0A000000001B0A0A04040A0A1BB8
:103A8000000000001B0A0A040404040E00000000E9
:103A90001F0908040402121F0000001C040404048F
:103AA000040404041C0000020202040408080810B4
:103AB0000000000E08080808080808080E000004A6
:103AC0000A000000000000000000000000000000EC
:103AD00000000000003F00040000000000000000A3
:103AE000000000000000000C121C123C000000004E
:103AF0000302020E1212120E000000000000001C51
:103B00001202021C000000001810101C1212123CBD
:103B1000000000000000000C121E021C000000004B
:103B20003804041E0404041E000000000000003CD1
:103B3000120C021E221C00000302020E1212123787
:103B400000000000040000060404040E0000000051
:103B50000800000C08080808080700000302023AE1
:103B60000A0E123700000000070404040404041FB6
:103B7000000000000000000F1515151500000000E2
:103B80000000000F12121237000000000000000CAD
:103B90001212120C000000000000000F1212120E90
:103BA000020700000000001C1212121C1038000056
:103BB0000000001B06020207000000000000001EBB
:103BC000020C101E000000000004040E040404187F
:103BD000000000000000001B1212123C0000000058
:103BE00000000037120A0C0400000000000000155D
:103BF000150E0A0A000000000000001B0A040A1B40
:103C00000000000000000037120A0C04040300004A
:103C10000000001E0804041E000000180808080424
:103C2000080808081800080808080808080808080C
:103C3000080800060404040804040404060002251D
:103C4000180000000000000000000000000000005C
:103C5000000000000000000000000000000808084C
:103C60000808080800001818000000486C2412001A
:103C700000000000000000000000000000242424D8
:103C80007F1212127F12121200000000081C2A2A52
:103C90000A0C1828282A2A1C0808000000222515CA
:103CA00015152A585454542200000000000C12121A
:103CB000120A76252911916E000000060604030001
:103CC000000000000000000000000040201010086C
:103CD0000808080808101020400000020408081016
:103CE000101010101008080402000000000008085E
:103CF0006B1C1C6B08080000000000000000080896
:103D000008087F0808080800000000000000000004
:103D10000000000000000606040300000000000090
:103D20000000FE0000000000000000000000000095
:103D30000000000000000606000000008040402057
:103D40002010100808040402020000000018244299
:103D500042424242424224180000000000080E087D
:103D6000080808080808083E00000000003C42421D
:103D7000422020100804427E00000000003C424225
:103D8000201820404042221C000000000020302863
:103D9000242422227E20207800000000007E0202DF
:103DA000021A26404042221C000000000038240273
:103DB000021A26424242241800000000007E2222FD
:103DC000101008080808080800000000003C4242E3
:103DD000422418244242423C0000000000182442C1
:103DE000424264584040241C0000000000000000D3
:103DF0001818000000001818000000000000000063
:103E00000008000000000008080400000040201026
:103E10000804020408102040000000000000000018
:103E20007F0000007F000000000000000002040886
:103E3000102040201008040200000000003C424214
:103E4000464020101000181800000000001C225AE4
:103E5000555555552D42221C000000000008081839
:103E60001414243C224242E700000000001F2222DA
:103E7000221E22424242221F00000000007C4242D9
:103E8000010101010142221C00000000001F22422A
:103E9000424242424242221F00000000003F4212C2
:103EA000121E12120242423F00000000003F421266
:103EB000121E12120202020700000000003C222221
:103EC000010101712122221C0000000000E7424292
:103ED00042427E42424242E700000000003E0808A3
:103EE000080808080808083E00000000007C1010C0
:103EF0001010101010101010110F00000077221277
:103F00000A0E0A12122222770000000000070202A5
:103F1000020202020202427F0000000000773636F1
:103F200036362A2A2A2A2A6B0000000000E3464679
:103F30004A4A52525262624700000000001C22416D
:103F4000414141414141221C00000000003F4242EA
:103F500042423E020202020700000000001C224111
:103F6000414141414D53321C60000000003F42423C
:103F7000423E1212222242C700000000007C424250
:103F8000020418204042423E00000000007F490821
:103F9000080808080808081C0000000000E7424262
:103FA000424242424242423C0000000000E742429C
:103FB000222424141418080800000000006B49494A
:103FC00049495555362222220000000000E74224CC
:103FD00024181818242442E7000000000077222249
:103FE000141408080808081C00000000007E2120A6
:103FF000101008040442423F000000780808080836
:1040000008080808080808087800000002020404EC
:1040100008080810102020204040001E101010102A
:1040200010101010101010101E0000384400000076
:104030000000000000000000000000000000000080
:10404000000000000000000000FF00060800000063
:104050000000000000000000000000000000000060
:10406000003C4278444242FC00000000000302028F
:10407000021A26424242261A0000000000000000F8
:104080000038440202024438000000000060404052
:1040900040784442424264D8000000000000000022
:1040A000003C427E0202423C0000000000F0880812
:1040B000087E08080808083E000000000000000014
:1040C000007C22221C023C42423C0000000302020F
:1040D000023A4642424242E700000000000C0C0057
:1040E000000E08080808083E0000000000303000FC
:1040F0000038202020202020221E00000003020281
:104100000272120A1612227700000000000E080840
:10411000080808080808083E000000000000000029
:10412000007F9292929292B700000000000000007F
:10413000003B4642424242E700000000000000000F
:10414000003C42424242423C0000000000000000AD
:10415000001B26424242221E02070000000000000F
:10416000007844424242447840E0000000000000F1
:1041700000774C040404041F00000000000000004D
:10418000007C42023C40423E00000000000000086B
:10419000083E080808080830000000000000000081
:1041A00000634242424262DC000000000000000066
:1041B00000E742242414080800000000000000006A
:1041C00000EB494955552222000000000000000084
:1041D000007624181818246E00000000000000006B
:1041E00000E742242414180808070000000000001B
:1041F000007E22100808447E000000C020202020FD
:104200002010202020202020C0001010101010109E
:1042100010101010101010101010000608080808D8
:10422000081008080808080806000C32C200000040
:10423000000000000000000000003031323334354F
:1042400036373839414243444546403058003031D2
:1042500032333435363738396162636465664030ED
:1042600078000400000800000000000000020001C7
:104270000000103F0069640068656C70006C697331
:104280007400766F6964204C43445F4472617752D6
:10429000656374616E676C65287531362078312CE2
:1042A000207531362079312C207531362078322C2A
:1042B000207531362079322900766F6964204C43AD
:1042C000445F447261774C696E6528753136207899
:1042D000312C207531362079312C207531362078FB
:1042E000322C207531362079322900766F696420AE
:1042F0006C65645F73657428753820737461290078
:10430000766F696420746573745F66756E28766F66
:104310006964282A6C656473657429287538292CAA
:104320007538207374612900766F6964204C4344AA
:104330005F53686F774E756D2875313620782C7510
:10434000313620792C753332206E756D2C753820FE
:104350006C656E2C75382073697A652900766F69F3
:1043600064204C43445F53686F77537472696E677F
:104370002875313620782C75313620792C636F6E94
:104380007374207538202A702900766F6964204480
:104390007261775F436972636C6528753136207886
:1043A000302C7531362079302C7538207229007602
:1043B0006F6964204C43445F436C656172287531BA
:1043C0003620436F6C6F722900766F6964204C430E
:1043D000445F46696C6C2875313620787374612CA3
:1043E00075313620797374612C7531362078656E9D
:1043F000642C7531362079656E642C7531362063F6
:104400006F6C6F722900766F69642064656C6179E6
:104410005F6D7328753136206E6D732900766F6974
:10442000642064656C61795F757328753332206E22
:10443000757329005444000800000020A400000007
:1044400028010008F8440008A40000202C03000004
:10445000440100080000000000000000000000000F
:104460007F000000FFFF0000734200087842000850
:104470007D42000875420008D70200080644000883
:104480000D0300081D4400082D0E0008AF4300086E
:104490007F1B0008C9430008E91B0008B942000857
:1044A000B11C000882420008F11C00088A43000881
:1044B000DB1E000828430008FD1F00085D430008BC
:1044C000DD010008EB420008E3010008004300089A
:1044D000240000205B210008752100081B22000831
:1044E0000D2700080B000000000000000000000085
:0844F0000000000000000000C4
:04000005080000ED02
:00000001FF
