:020000040800F2
:100000001812002085180008A9180008AB1800086D
:10001000AF180008B3180008B71800080000000067
:10002000000000000000000000000000BD180008F3
:10003000BB18000800000000BF180008C118000825
:10004000C3180008C5180008C7180008C918000818
:10005000E5180008E7180008E91800085B1900080F
:10006000BB190008451A0008471A0008491A000879
:100070004B1A00084D1A00084F1A0008511A0008C0
:10008000531A0008551A0008571A0008591A000890
:100090005B1A00085D1A00085F1A0008611A000860
:1000A000631A0008651A0008671A0008691A000830
:1000B0006B1A00086D1A00086F1A0008711A000800
:1000C000731A0008751A0008771A0008791A0008D0
:1000D0007B1A00087D1A0008071B0008731B000824
:1000E000751B0008771B0008791B00087B1B0008A4
:1000F0007D1B00087F1B0008811B0008831B000874
:10010000851B0008871B0008891B00088B1B000843
:100110008D1B00088F1B0008911B0008931B000813
:10012000951B0008971B0008991B00089B1B0008E3
:1001300000F002F800F05AF80AA090E8000C82449F
:100140008344AAF10107DA4501D100F04FF8AFF27C
:10015000090EBAE80F0013F0010F18BFFB1A43F0A5
:100160000103184738310000583100000A444FF0AD
:10017000000C10F8013B13F0070408BF10F8014B06
:100180001D1108BF10F8015B641E05D010F8016B4B
:10019000641E01F8016BF9D113F0080F1EBF10F8AF
:1001A000014BAD1C0C1B09D16D1E58BF01F801CBD2
:1001B000FAD505E014F8016B01F8016B6D1EF9D555
:1001C0009142D6D37047000000230024002500266A
:1001D000103A28BF78C1FBD8520728BF30C148BFAA
:1001E0000B6070471FB51FBD10B510BD02F0F8FFC2
:1001F0001146FFF7F7FF01F0F1FE03F016F803B424
:10020000FFF7F2FF03BC03F01BF80000DC480068B6
:1002100040F00100DA49086008464068D9490840C2
:10022000D749486008460068D7490840D449086063
:100230000846006820F4802008600846406820F4E2
:10024000FE004860002088607047CD49096821F4AD
:100250008031CB4A11601146096821F48021116078
:10026000B0F5803F03D0B0F5802F0ED106E0C44931
:10027000096841F48031C24A116007E0C049096849
:1002800041F4A021BE4A116000E000BF00BF7047EA
:1002900010B501460022002300204A11012A02D194
:1002A000B74C236806E0022A02D1B54C236A01E06C
:1002B000B34C636A01F01F02012494401C4201D038
:1002C000012000E0002010BD38B50020009000247F
:1002D000002500BF3120FFF7DBFF05460098401CDA
:1002E00000901DB90098B0F5A06FF3D13120FFF751
:1002F000CFFF08B1012400E00024204638BD0146AC
:1003000000209F4A106820F0F80040EAC100106009
:1003100070479E490860704702460020984B586815
:1003200020F47C1042EA01031843954B5860704753
:1003300096490866704701460020914A506820F0AF
:1003400003000843506070478D48406800F00C007F
:100350007047014600208A4A506820F0F0000843A8
:100360005060704701460020854A506820F4E060E4
:1003700008435060704701460020814A506820F4CD
:10038000605040EAC1005060704729B17C4A527AFF
:1003900002437B4B5A7204E0794A527A8243784B8B
:1003A0005A7270477A490860704701460020744AC3
:1003B000506820F440400843506070470021754A5F
:1003C00011706F4A82F82010012802D0042808D149
:1003D00003E001216F4A117004E005216D4A11709C
:1003E00000E000BF00BF70476B4908607047644978
:1003F000096A0143624A11627047674944390860DB
:10040000704730B500210022002400235C4D6D6848
:1004100005F00C0121B1042905D0082923D105E0FC
:100420005E4D056022E05D4D05601FE0544D6D6836
:1004300005F47012022505EB9242514D6D6805F4EA
:1004400080341CB9564D554305600BE04C4D6D682A
:1004500015F4003F03D0524D5543056002E04F4D67
:100460005543056002E04D4D056000BF00BF444D9F
:100470006D6805F0F00109094A4D6B5C0568DD40C7
:1004800045603F4D6D6805F4E061090A454D6B5CC0
:100490004568DD4085603A4D6D6805F46051C90AD4
:1004A000404D6B5C4568DD40C560354D6D6805F4B9
:1004B0004041890B3C4D6B5CC568B5FBF3F50561AC
:1004C00030BD29B12E4A526902432D4B5A6104E0D6
:1004D0002B4A526982432A4B5A61704729B1284AF4
:1004E00092690243264B9A6104E0254A926982434D
:1004F000234B9A61704729B1214AD2690243204BAC
:10050000DA6104E01E4AD26982431D4BDA6170470A
:1005100029B11B4AD2680243194BDA6004E0184A39
:10052000D2688243164BDA60704729B1144A1269C7
:100530000243134B1A6104E0114A12698243104BC3
:100540001A61704714494039086070470F49C86400
:1005500070470B49C87170470948406A40F0807085
:1005600007494862704701460020054A92680A42DE
:1005700001D0012000E000207047014988727047D7
:10058000001002400000FFF8FFFFF6FE00004242AC
:10059000D8004242201002408004424200127A00F9
:1005A00000093D004E3200085E320008104909681B
:1005B00001F038010E4A11601146096801431160CB
:1005C00070470B49096821F00801094A116011467A
:1005D00009680143116070470549096821F010015D
:1005E000034A116011460968014311607047000019
:1005F0000020024010B50446BD4820180FD0B0F5C9
:10060000806F16D0B0F5784F1DD101210803FFF798
:100610007FFF00214FF48050FFF77AFF14E00121A3
:100620008803FFF782FF00214FF48040FFF77DFF32
:100630000AE00121C803FFF778FF00214FF40040D2
:10064000FFF773FF00E000BF00BF10BD10B5002230
:10065000028802F441520B884C8823438C88234340
:10066000CC8823430C8923434C8923438C8923431F
:10067000CC8923431A430280838B4FF2FF742340BB
:1006800083830B8A038210BD2DE9F04786B00546AF
:100690000C464FF0000902274FF000084FF0010A06
:1006A0000026A88B4FF240010840A883022028842E
:1006B000B5F81C902089022801D100BF31E0A08844
:1006C00010B94FF0010A01E04FF0020A01A8FFF74C
:1006D00098FEE088B0F5007F0AD1019800EB800019
:1006E000400021890902B0FBF1F0401D86B20BE009
:1006F0004FEA4A1021894843019901EB81014900E1
:10070000B1FBF0F0401D86B20A20B6FBF0F606F011
:100710000108A6EB0800C0F34F074FF6FF7000EA90
:100720000828022F01DBFF2F02DD02274FF000080F
:1007300047EA0800E18808432884208840F40060E4
:1007400061880843A18808436189084340EA090990
:10075000A5F81C9006B0BDE8F0870021018041801B
:100760008180C180018141818181C1810721018214
:1007700070470021018041808180C1800221018178
:1007800000214181704721B1028842F0400202807D
:1007900004E002884FF6BF731A400280704721B10F
:1007A000828B42F48062828304E0828B4FF6FF33B7
:1007B0001A408283704730B5002400230C110125B4
:1007C000A540ABB21AB185881D43858002E08588BB
:1007D0009D43858030BD1AB183880B43838002E03E
:1007E00083888B4383807047818170470146888965
:1007F0007047A1F57E42FF3A04D0028842F480722D
:10080000028004E002884FF6FF631A4002807047BE
:1008100021B1828842F00402828004E082884FF68F
:10082000FB731A408280704702884FF2FF731A40B0
:10083000028002880A4302807047018841F4805197
:100840000180704721B1028842F40052028004E026
:1008500002884DF6FF731A4002807047024600205E
:10086000012901D0108B00E0908A70470146088A68
:100870007047B1F5804F04D1028842F48042028073
:1008800004E002884BF6FF731A400280704702466C
:10089000002013890B4201D0012000E000207047A6
:1008A000CA4302817047F0B50246002000240023AD
:1008B000002501F00F070126BE40B4B20B1101263E
:1008C0009E40B3B2968806EA03051689264202D0F6
:1008D0000DB1012000E00020F0BD10B5002201F0B4
:1008E0000F040123A3409AB2D343038110BD00003B
:1008F00000C8FFBF10B50446C549601A8C422FD00E
:1009000009DCC448201810D0B0F5806F16D0B0F5BF
:10091000006F4AD11BE0B0F5806F2AD0B0F5006FB0
:1009200030D0B0F5406F40D135E001210420FFF711
:10093000EFFD00210420FFF7EBFD37E00121082047
:10094000FFF7E6FD00210820FFF7E2FD2EE0012180
:100950001020FFF7DDFD00211020FFF7D9FD25E075
:1009600001212020FFF7D4FD00212020FFF7D0FD3A
:100970001CE001214020FFF7CBFD00214020FFF7C4
:10098000C7FD13E001218020FFF7C2FD0021802078
:10099000FFF7BEFD0AE001210802FFF7B9FD0021C3
:1009A0004FF48070FFF7B4FD00E000BF00BF10BD42
:1009B00010B501210846FFF7ABFD00210120FFF72C
:1009C000A7FD10BD2DE9F0410246002500260020BC
:1009D00000230024002791F803C00CF00F0591F8C4
:1009E00003C01CF0100F03D091F802C04CEA0505BB
:1009F00091F800C0BCF1000F31D0146800202BE04A
:100A00004FF0010C0CFA00F3B1F800C00CEA030639
:100A10009E4220D183004FF00F0C0CFA03F7BC4329
:100A200005FA03FC4CEA040491F803C0BCF1280F5A
:100A300006D14FF0010C0CFA00FCC2F814C00AE019
:100A400091F803C0BCF1480F05D14FF0010C0CFA2E
:100A500000FCC2F810C0401C0828D1D31460B1F8C3
:100A600000C0BCF1FF0F34DD546800202EE000F11F
:100A7000080C4FF0010808FA0CF3B1F800C00CEABA
:100A800003069E4221D183004FF00F0C0CFA03F7AE
:100A9000BC4305FA03FC4CEA040491F803C0BCF122
:100AA000280F05D100F1080C08FA0CF8C2F81480E0
:100AB00091F803C0BCF1480F07D100F1080C4FF0CA
:100AC000010808FA0CF8C2F81080401C0828CED3A0
:100AD0005460BDE8F0814FF6FF7101800221817002
:100AE0000421C17070470246002093680B4201D078
:100AF000012000E0002070470146886880B27047FE
:100B000002460020D3680B4201D0012000E0002003
:100B100070470146C86880B2704701617047416103
:100B200070470AB1016100E041617047C1607047E0
:100B30004FF480320A4382618161826182698269F5
:100B4000704702460020344B18684FF680731840F7
:100B500040EA02100843304B186070472F49C861C3
:100B60007047F0B50A4600230024002100252A4ED4
:100B70007168C0F3034583B200F44016B6F5401F18
:100B800008D121F07061244E766826F07066224FFD
:100B90007E6012E000F48016B6F5801F06D10326B1
:100BA00006FA05F4A14341F0706106E0460D3601F6
:100BB00003FA06F6B14341F0706122B1460D3601E9
:100BC00003FA06F63143144E7160F0BD30B50022D1
:100BD0008B071C0F0F2303FA04F20F4B08338C1002
:100BE00053F8243093430C4C08348D1044F82530CE
:100BF00023468C1053F824308C07240F00FA04F499
:100C00002343054C08348D1044F8253030BD0000D6
:100C10000014014000F8FEBF000001400000204227
:100C200010B50446D749601A8C422BD006DCD64852
:100C3000201813D0B0F5806F38D119E0B0F5806F6F
:100C40002AD0B0F56C4F31D101218803FFF760FC49
:100C500000214FF48040FFF75BFC28E001214804AD
:100C6000FFF763FC00214FF40030FFF75EFC1EE04D
:100C700001218804FFF759FC00214FF48020FFF781
:100C800054FC14E00121C804FFF74FFC00214FF48D
:100C90000020FFF74AFC0AE001210805FFF745FCA8
:100CA00000214FF48010FFF740FC00E000BF00BFC0
:100CB00010BD2DE9F04786B005460E460024A24639
:100CC00000BF00BF00272F462C8A4CF6FF7004405F
:100CD000F08804432C82AC894EF6F3100440B088AF
:100CE00031890843718908430443AC81AC8A4FF6CB
:100CF000FF400440B0890443AC8201A8FFF781FBA8
:100D0000A248874202D1DDF810A001E0DDF80CA076
:100D10000AEBCA0000EB0A1031688900B0FBF1F859
:100D20006420B8FBF0F004012009642101FB108964
:100D3000322000EB0910B0FBF1F000F00F0004438B
:100D40002C8106B0BDE8F0874FF4165101600021F8
:100D50008180C18001810C21418100218181704706
:100D600010B502460020108A4FF2FF0318400B888E
:100D70004C8823438C882343CC8823431843108218
:100D800010BD0021018041808180C180704721B168
:100D9000828942F40052828104E082894DF6FF7319
:100DA0001A4082817047F0B50346002400260025D2
:100DB00000201846C1F3421401F01F06012707FA6C
:100DC00006F5012C01D10C3004E0022C01D11030C9
:100DD00000E014301AB107682F43076002E007688B
:100DE000AF430760F0BD1AB1838A0B43838202E0F0
:100DF000838A8B4383827047028A4FF6F0731A40CE
:100E00000282028A0A430282704782894FF2FF738C
:100E10001A40828182890A438281704721B1828986
:100E200042F00202828104E082894FF6FD731A408B
:100E300082817047028A4FF6DF731A400282028A6B
:100E40000A430282704721B1028A42F48042028240
:100E500004E0028A4BF6FF731A4002827047C1F326
:100E600008028280704701468888C0F308007047F6
:100E7000818941F0010181817047028BD2B20283E6
:100E8000028B42EA012202837047028B02F47F4206
:100E90000283028B0A430283704721B1828A42F0A7
:100EA0002002828204E0828A4FF6DF731A40828237
:100EB000704721B1828A42F01002828204E0828A65
:100EC0004FF6EF731A408282704721B1828A42F056
:100ED0000802828204E0828A4FF6F7731A40828207
:100EE0007047828A4FF6FB731A408282828A0A43D5
:100EF0008282704721B1828A42F00202828204E03B
:100F0000828A4FF6FD731A408282704702460020A3
:100F100013880B4201D0012000E000207047CA4333
:100F20000280704770B502460B4600240021002560
:100F30000020C3F3421503F01F01012606FA01F158
:100F4000012D02D19689314006E0022D02D1168A88
:100F5000314001E0968A31401C12012606FA04F461
:100F60001688344011B10CB1012000E0002070BDA2
:100F700010B5002200230A1201249440A3B2DC43DE
:100F8000048010BD004C004000BCFFBF0038014091
:100F9000042808D14FF0E021096941F004014FF025
:100FA000E022116107E04FF0E021096921F004011E
:100FB0004FF0E022116170474FF0E0214861704727
:100FC000012808D14FF0E021096941F001014FF0FB
:100FD000E02211610EE0811C08D14FF0E021096987
:100FE00021F001014FF0E022116103E000214FF0F8
:100FF000E0229161704740B14FF0E021096941F072
:1010000002014FF0E022116107E04FF0E021096991
:1010100021F002014FF0E022116170474FF0E02013
:101020008069704710B50146002200230020CB10D4
:10103000022B03D14FF0E024226902E04FF0E024BC
:10104000E26901248C40144201D0012000E000201C
:1010500010BD000010B50120FFF774FA0020FFF763
:1010600071FA10BD2249086070472149091F0860C4
:1010700070471F49843108607047014600201D4AAF
:1010800010884FF67F42104008431A4A108070477C
:1010900001460020174A10884FF68072104008431E
:1010A000144A10807047134A2C3A81527047014607
:1010B00010482C38085A70470D489C300068C0B260
:1010C00070470C480830008840F001000949083199
:1010D000088070470648A0300068C0B270470548D5
:1010E0000830008840F0020002490831088070474B
:1010F00004860D422C6C004029B14F4A12880243ED
:101100004D4B1A8004E04C4A128882434A4B1A80A5
:1011100070474948001D008840F010004649091DED
:10112000088070474448001D00884FF6EF71084062
:101130004149091D0880704700213F481C30018843
:10114000001F008841EA0040704700B50246FFF7E3
:10115000E0FF100C384918310880091D0A80FFF79C
:10116000E1FF00BD00B50246FFF7D3FFC2F3034025
:10117000314908310880091D0A80FFF7D3FF00BDFF
:1011800000B50246FFF7C5FF100C2B49203108803F
:10119000091D0A80FFF7C6FF00BD00202649103157
:1011A00009880907080B2449143109880843704746
:1011B00000BF2148001D008810F0200FF9D07047B3
:1011C0001D48001D00884FF6F77108401A49091D97
:1011D000088000BF1848001D008810F0080FF9D0E3
:1011E000704701460020144A121D12880A4201D09D
:1011F000012000E0002070470F49091D0988814344
:101200000D4A121D11807047014600200A4A121D26
:1012100012880A40D0B2084A12880A4202D008B1A5
:10122000012000E0002070470349091D098881431F
:10123000014A121D11807047002800400020411E05
:10124000EE4A11606FF07042ED49C1F884204FF012
:10125000FF314FF0E022C2F880126FF07042E9498E
:101260000A6000BF04E00022E74941F82020401C4A
:101270000F28F8D3704700204FF02061E34A116037
:101280000021121D1160E249121D11600021121D82
:101290001160121D116000BF05E00022DB4914310E
:1012A00041F82020401C0328F7D30021D74A2032E0
:1012B0001160491E121D1160121D1160121D116076
:1012C0007047D3490143D14A083211607047F0B5E5
:1012D00000210022002300250F24C678002E36D0DE
:1012E000CA4E0836366806F4E066C6F5E066310A8E
:1012F000C1F10405CC40467806FA05F1867826400F
:10130000314309010678B607F60EB140BE4E0778A4
:10131000BF1056F827200678B607F70EFF2606FA04
:1013200007F39A4319400A43B74E0778BF1046F8AF
:101330002720067806F01F070126BE4007787F1198
:101340004FF0E02C0CEB8707C7F800610BE0067844
:1013500006F01F070126BE40A84F90F800C04FEAD4
:101360006C1C47F82C60F0BD002101704170817049
:10137000C170704710B500F06EFA10BD10B500F0E6
:1013800068FA10BD10B500F06BFA10BD10B500F092
:1013900069FA10BD10B50446200100F068FA10BDCE
:1013A00010B500F067FA10BD98480068C0F3093026
:1013B000704710B501460020002201F01F040123F0
:1013C00003FA04F28D4B80334C1153F82430134050
:1013D000934201D1012000E0002010BD8D4908603A
:1013E000704700F01F0201219140864A121F4311ED
:1013F00042F82310704785480068C0F30900704721
:1014000010B501460020002201F01F04012303FA59
:1014100004F27C4B7C334C1153F82430134093423C
:1014200001D1012000E0002010BD7848001F0068B5
:101430007047794A0A400243744B1B1D1A6070477B
:101440007348001D71490831086070477048401C9E
:101450006E4908310860704739B16C4A0C32126825
:1014600002436A4B0C331A6006E0684A0C32126879
:101470008243664B0C331A60704710B5002200F0AF
:101480001F04012303FA04F239B1604B20331B68B7
:1014900013435E4C2034236006E05C4B20331B6812
:1014A00093435A4C2034236010BDF0B503460C46DC
:1014B00015460020FF2200260021544F08373F68C0
:1014C00007F4E067C7F5E067390AC1F10400CA40D4
:1014D00004FA00F105EA02073943090103F0C000EC
:1014E0008009C3F30122D700B9404FEAC20CFF279D
:1014F00007FA0CF6454F143757F82070B743DFF85A
:101500000CC10CF1140C4CF82070674657F8207091
:101510000F434CF82070F0BD10B5024600200023A8
:101520000021910A01F00F01012404FA01F1374C66
:101530002034246804EA01038B4201D1012000E039
:10154000002010BD002100F01F01304A1268012365
:101550008B401A432D4B1A60704710B5002100F0E4
:101560001F012A4A12684B1E01249C402243274B2C
:101570001A6010BD10B50246002000230021C2F3FE
:101580008331012404FA01F1204C2034246804EA58
:1015900001038B4201D1012000E0002010BD30B5D5
:1015A0000146002000220023C1F38142C1F3015310
:1015B0001AB9164C2834206811E0012A0CD1134CBA
:1015C00024342468DD0024FA05F0022B02D000F058
:1015D0000F0004E0C0B202E00C4C2C34206830BD97
:1015E000014600200022C1F380521AB9074B303364
:1015F000186802E0054B34331868704780E100E05A
:1016000000E100E084E200E000E400E004ED00E03E
:101610000000FA0500EF00E080FFFF1F10B5012178
:101620000807FEF782FF00214FF08050FEF77DFF94
:1016300010BD284908627047264908617047014675
:101640000020254A106820F0E00008431060704731
:1016500022490860704770B505460E4600241E48B2
:10166000046824F003042C4304601D48006840F023
:1016700004001B490860012E02D100F0C5F801E00A
:1016800000F0C4F870BD10B51348006840F00400C5
:10169000114908600846006840F0020008601048E0
:1016A000006840F004000E49086000F0ADF810BD7D
:1016B00001460020084A52680A4201D0012000E099
:1016C000002070470449096841EA8001024A11601C
:1016D0007047000000000E4200700040A0000E4263
:1016E00010ED00E0002046490860091D0860091D52
:1016F0000860091D0860434841491431086070477B
:10170000817900293ED03E490968026891433C4AEC
:101710001160111D096802689143394A121D116058
:101720000179121F8958026811430279344BD15054
:1017300033490831096802689143314A083211601F
:10174000111D0968026891432D4A0C3211604179DC
:1017500010290ED1111F096802681143284A083266
:101760001160111D096802681143254A0C3211608D
:1017700010E04179224A8958026811434279204B8E
:10178000D15007E001791E4A8958026891430279D5
:101790001B4BD15070470021016001710C21417138
:1017A0000021817170471649103109680143144ABC
:1017B00010321160704701460020114A143212683D
:1017C0000A4201D0012000E0002070470C4914318A
:1017D00008607047014600200022094B1B6803EA9D
:1017E0000102074B14331B680B4202D00AB10120DF
:1017F00000E0002070470249143108607047000083
:1018000000040140FFFF070030BF704720BF704752
:1018100040BF7047BFF36F8F7047BFF34F8F704764
:10182000BFF35F8F704701DF7047EFF3148070479D
:1018300080F31488BFF36F8F7047EFF30980704710
:1018400080F309887047EFF30880704780F30888B9
:10185000704762B6704772B67047EFF310807047FA
:1018600071B6704761B67047EFF31380704780F32D
:1018700011887047EFF31280704740BA704700BA82
:10188000704700000348004703480449044A054BD9
:101890007047000031010008180A002018120020CB
:1018A000180E0020180E0020704700BFFEE700BF92
:1018B000FEE700BFFEE700BFFEE7704770477047D6
:1018C000704770477047704710B50120FFF79CFCC8
:1018D00038B10120FFF7A8FCB0480068401CAF49B0
:1018E000086010BD7047704710B526E0002414E072
:1018F000AB480068C0EB0010C0EBC000A94A02EB87
:101900004000015DA848FFF7AAFA00BF8021A64861
:10191000FFF7FCFA0028F9D0641CA448A049096824
:10192000405CA042E4DC9E480068401C052190FB1E
:10193000F1F201FB12009A49086099480068401CC6
:10194000052190FBF1F201FB1200994909688842D8
:10195000CCD10120FFF73AFF10BD10B520E095482B
:101960000068401C052190FBF1F201FB1200914937
:101970000860002412E08F48006800EB40008E4AA7
:1019800002EB8000015D8848FFF769FA00BF802103
:101990008548FFF7BBFA0028F9D0641C0C2CEADB61
:1019A00084480068401C052190FBF1F201FB120005
:1019B000824909688842D2D110BD10B535E080480F
:1019C0000068401C052190FBF1F201FB12007C49EC
:1019D0000860002427E07B480068401C79490860C3
:1019E0007748006800EB4000734901EB8000015D1F
:1019F0007548744A1268815472480068B0F5007FD7
:101A000010D14FF40072714801686F4801F06AFB11
:101A10006F4908606D480068401C6C4908600020F0
:101A200068490860641C0C2CD5DB65480068401CC4
:101A3000052190FBF1F201FB120060490968884220
:101A4000BDDB10BD704770477047704770477047E7
:101A500070477047704770477047704770477047CE
:101A600070477047704770477047704770477047BE
:101A700070477047704770477047704710B5202116
:101A80005448FFF743FA01283CD15248FFF7EBF9DD
:101A9000C4B247480068C0EB0010C0EBC000414929
:101AA00001EB40004C49096844544B480068401C15
:101AB0004949086040F225514648FFF759FA242C5D
:101AC00020D145480078401EC1B23848384A1268D3
:101AD000815401204049086035480068401C0521B8
:101AE00090FBF1F201FB12003149086024200968E3
:101AF000C1EB0111C1EBC1012A4A02F8110001201A
:101B0000FFF751FE10BD10B540F225513348FFF7E5
:101B100009FA68B33148FFF7A6F9C1B2274800684F
:101B200000EB4000244A02EB80022D480368006865
:101B3000401C2B4C2060D15440F225512748FFF720
:101B400017FA204600680C2812D1002021460860B0
:101B50001A480068401C052190FBF1F201FB1200BD
:101B6000164908600420FFF71EFE0220FFF71BFE47
:101B700010BD704770477047704770477047704797
:101B8000704770477047704770477047704770479D
:101B900070477047704770477047704730000020AB
:101BA00010000020340100200048004024000020E4
:101BB00000000020140000204E0500200800002036
:101BC00018000020200000208A0500201C000020B2
:101BD0002C00002000380140040000200044004098
:101BE0000C00002010B5FEF711FB4FF48030FEF71B
:101BF0002CFBFEF769FB0446012C4BD10020FEF7BD
:101C0000A8FB0020FEF7B7FBA002FEF7ABFB02200B
:101C1000FEF7CCFC0120FEF7DFFC4FF4E0112004BE
:101C2000FEF77AFB0120FEF783FB00BF3920FEF7A9
:101C30002FFB0028FAD00220FEF77DFB00BFFEF745
:101C400083FB0828FBD101214002FEF747FC01215C
:101C50008803FEF750FC01210420FEF73FFC012120
:101C60000820FEF73BFC01218804FEF744FC01211B
:101C70008803FEF733FC01214804FEF73CFC0121F8
:101C80001020FEF72BFC01211020FEF727FC01207D
:101C9000FFF7B1F910BD08B54FF46040ADF8000092
:101CA00003208DF8020018208DF803006946FE48D5
:101CB000FEF788FEE020ADF800006946FB48FEF71D
:101CC00081FE4FF40070ADF8000003208DF8020093
:101CD00018208DF803006946F448FEF773FE4FF4B0
:101CE0008060ADF8000004208DF803006946EF48DD
:101CF000FEF768FE0420ADF8000003208DF8020016
:101D000018208DF803006946E848FEF75BFE0820BE
:101D1000ADF8000004208DF803006946E348FEF7A3
:101D200051FE4FF48060ADF8000003208DF80200F2
:101D300018208DF803006946DB48FEF743FE4FF498
:101D40000060ADF8000004208DF803006946D64815
:101D5000FEF738FE4FF48040ADF8000003208DF808
:101D6000020010208DF803006946D148FEF72AFED4
:101D70004FF40040ADF8000003208DF80200102061
:101D80008DF803006946CA48FEF71CFE4020ADF8F6
:101D9000000003208DF8020010208DF80300694632
:101DA000C348FEF70FFE0220ADF8000004208DF8B6
:101DB00003006946BE48FEF705FE0420ADF80000AA
:101DC0008DF803006946BA48FEF7FCFD0820ADF81F
:101DD000000004208DF803006946B548FEF7F2FDC7
:101DE00008BD10B50020B349088088800220C88053
:101DF000012008814002488100208881C881072095
:101E0000088200204880AC48FEF720FC0121AA4847
:101E1000FEF7B9FC4FF48270A6494880A748FEF748
:101E200015FC0121A548FEF7AEFC10BD1FB54FF40F
:101E3000165000900020ADF80400ADF80600ADF893
:101E40000800ADF80C000C20ADF80A0069469C486B
:101E5000FEF72FFF69469B48FEF72BFF69469A481D
:101E6000FEF727FF01219648FEF791FF01219548D3
:101E7000FEF78DFF01219448FEF789FF1FBD08B5CD
:101E80004FF48060FFF71DFA03208DF8000000205A
:101E90008DF801008DF8020001208DF803006846DE
:101EA000FFF715FA25208DF8000001208DF80100BC
:101EB00000208DF8020001208DF803006846FFF72E
:101EC00006FA26208DF8000001208DF80100002080
:101ED0008DF8020001208DF803006846FFF7F7F93E
:101EE00006208DF8000003208DF8010000208DF8F9
:101EF000020001208DF803006846FFF7E8F907208B
:101F00008DF8000003208DF8010001208DF80200FB
:101F10008DF803006846FFF7DAF908208DF8000015
:101F200002208DF8010000208DF8020001208DF8BC
:101F300003006846FFF7CBF908BD1CB50120FFF789
:101F40005AFC0220FFF757FC0420FFF754FC012144
:101F50000220FEF73BFE02210846FEF737FE032172
:101F60000220FEF733FE0720009000208DF80400C9
:101F70000C208DF8050001208DF806006846FFF75B
:101F8000BFFB1CBD10B501214FF0C050FEF7B3FAE6
:101F90000120FFF74EFBFFF75DF80120FEF70EFA78
:101FA00000BF4120FEF774F90028FAD04FF480708A
:101FB000FEF71DFA0120FEF720FAFFF701F9FFF7FF
:101FC000F7F801210846FFF797F8FFF7F1F847F611
:101FD000FF70FFF7C7F8FFF7EBF810BD2DE9F041F0
:101FE0000127FFF7FFFDFFF756FEFFF7FAFEFFF7A9
:101FF00046FFFFF71BFFFFF7A0FF01F061F8074660
:1020000039463148FEF72BFF00BF80212E48FEF7EE
:102010007DFF0028F9D02A212B48FEF720FF00BFC2
:1020200080212948FEF772FF0028F9D001F09CF8C2
:10203000C7B22648008881B22348FEF710FF00BFD0
:1020400080212148FEF762FF0028F9D02A211E488E
:10205000FEF705FF00BF80211B48FEF757FF002851
:10206000F9D01B48008881B21748FEF7F8FE00BF80
:1020700080211548FEF74AFF0028F9D02A2112488E
:10208000FEF7EDFE00BF80210F48FEF73FFF00285E
:10209000F9D01048008881B20B48FEF7E0FE00BF7F
:1020A0008021094818E00000000C014000080140B0
:1020B000001001408A090020003800400030014033
:1020C000003801400044004000480040300100203A
:1020D0002C01002028010020FEF718FF0028DFD087
:1020E000E2480168002000F0F2FF4FF48041E04830
:1020F000FEF713FD0020DF4908602AE04121DE4899
:10210000FEF7ADFE00BF8021DB48FEF7FFFE002892
:10211000F9D02021D848FEF7F9FE012819D1D64878
:10212000FEF7A1FE422814D100240CE0D348015D43
:10213000D148FEF794FE00BF8021CF48FEF7E6FEAF
:102140000028F9D0641CCD4801F028F8A042EDD851
:1021500003E0C84800680A28D0DB00BFC548006813
:102160000A281AD14FF48041C148FEF7D8FC002458
:1021700004E0C348005DC3490855641CC04801F031
:102180000DF8A042F5D84FF400720021BD4800F0D0
:10219000A9FF07460020BDE8F081002400E0641C90
:1021A000B4F57A6FFBDB0BE02021B348FEF7AEFEFF
:1021B000012805D1B048FEF756FE4E2800D100E0B8
:1021C000F2E700BF0020AB490860012515E020219F
:1021D000AD48FEF79BFE01280FD10125AA48FEF766
:1021E00042FE06463146A448FEF739FE00BF802174
:1021F000A148FEF78BFE0028F9D09E480068B0F594
:10220000967F0ADA20219C48FEF780FE0128DED165
:102210009948FEF728FE4728D9D16DBB4FF480417D
:102220009348FEF77CFC00240CE09848015D92483E
:10223000FEF715FE00BF80218F48FEF767FE0028DD
:10224000F9D0641C914800F0A9FFA042EDD8002409
:1022500004E08E48005D8B490855641C8B4800F0F3
:102260009DFFA042F5D84FF400720121854800F08F
:1022700039FF074600208EE700240CE08448015D0A
:102280007D48FEF7ECFD00BF80217B48FEF73EFE57
:102290000028F9D0641C7E4800F080FFA042EDD8F1
:1022A000002400E0641CB4F57A6FFBDB0BE0202116
:1022B0007148FEF72BFE012805D16F48FEF7D3FDCC
:1022C0004E2800D100E0F2E700BF43216A48FEF744
:1022D000C6FD00BF80216848FEF718FE0028F9D02F
:1022E000002064490860002500BF62480068142887
:1022F0000ADA20216048FEF709FE0128F5D15E4880
:10230000FEF7B1FD4528F0D15A480068B0F10A0641
:1023100001D4304600E07042022832DD5648FEF714
:10232000A2FD45282DD14FF480415148FEF7F7FB1F
:1023300000240CE05748015D4F48FEF790FD00BFB8
:1023400080214D48FEF7E2FD0028F9D0641C514879
:1023500000F024FFA042EDD8002404E04D48005DC9
:1023600048490855641C4B4800F018FFA042F5D8B6
:102370004FF400720221434800F0B4FE07460020EB
:1023800009E700240CE04448015D3B48FEF767FD87
:1023900000BF80213848FEF7B9FD0028F9D0641C41
:1023A0003D4800F0FBFEA042EDD800240CE03B4885
:1023B000015D3148FEF753FD00BF80212E48FEF736
:1023C000A5FD0028F9D0641C344800F0E7FEA042C7
:1023D000EDD800BF20212848FEF798FD0128F9D14B
:1023E0002548FEF740FD4C28F4D100240CE02C4891
:1023F000015D2148FEF733FD00BF80211E48FEF736
:1024000085FD0028F9D0641C254800F0C7FEA042D5
:10241000EDD8012240F225511B48FEF7C4FC0122F1
:1024200040F225511F48FEF7BEFC0020114908600C
:102430001BE0104800680A2817DB40210C48FEF713
:102440006CFB00240CE01848015D0B48FEF707FD0B
:1024500000BF80210848FEF759FD0028F9D0641C10
:10246000114800F09BFEA042EDD8E2E730010020C9
:1024700000100140300000200048004034000020DF
:10248000DD0000208A050020003801400001002006
:102490005E00002011010020720000208800002052
:1024A000B600002000440040C60000202DE9F0479F
:1024B00006460F469046994600F0EEFD06F03F01B5
:1024C00041F0400000F0C0FD032403E0385D00F05F
:1024D000BBFD641E002CF9DA952000F0B5FD4FF02D
:1024E000000AB8F1010F09D0B8F1020F09D0B8F114
:1024F000030F09D0B8F1040F0CD108E04FF0010A26
:1025000010E04FF0010A0DE04FF0020A0AE04FF030
:10251000050A07E0FF2000F097FD00F0C3FD102042
:10252000BDE8F08700BF002400BF00F09BFD05461A
:10253000641C15F0800F01D0642CF6DB642C03DBE7
:1025400000F0B0FD1120EBE7AAF1010405E009F865
:10255000045000F087FD0546641E002CF7DA00F0F9
:10256000A1FD0020DCE70A0EC2700A0C82700A0A84
:102570004270017070472DE9FC4107460D46144634
:102580006402214601A8FFF7EEFF6B462A4601A927
:102590003846FFF78BFF064616B13046BDE8FC8192
:1025A0009DF8000008B11220F8E70020F6E71CB5FE
:1025B000002001906B46012201A9FFF777FF1CBDA7
:1025C0002DE9F04107460E46002400F065FD00BFEE
:1025D00000F048FD0546641CFF2D01D1082CF7D3FF
:1025E000082C04D300F05EFD3120BDE8F081FE2D03
:1025F00002D03570012400E0002403E000F032FD39
:102600003055641CBC42F9D300F02CFD044600F0A8
:1026100029FD00EB0424FF2000F016FD00F042FD30
:102620000020E2E77CB505460E46002001906B468F
:10263000012201A90920FFF739FF04460CB1204609
:102640007CBD9DF8000008B11220F9E7314628460C
:10265000FFF7B6FFF4E71CB5002001906B4602229D
:1026600001A90C20FFF722FF1CBD38B505460C461A
:10267000002000902346032269460D20FFF716FF35
:1026800038BD7CB50446214601A8FFF76CFF6B46B8
:10269000012201A91020FFF709FF05460DB12846C8
:1026A0007CBD9DF8000008B11220F9E70020F7E793
:1026B00010B50446224601211120FFF75CFF10BD32
:1026C00010B50446224601211220FFF754FF10BD29
:1026D00010B50446224601211820FFF74CFF10BD1B
:1026E00010B50446224601211920FFF744FF10BD12
:1026F00010B504469B48007828B9224601212020C5
:10270000FFF739FF10BD224601212320FFF733FFD9
:10271000F8E710B504469348007828B9224601210D
:102720002120FFF728FF10BD224601212420FFF7BA
:1027300022FFF8E72DE9F04107460025012F02D1DD
:102740008848446901E08748846900F0A5FC00BF1F
:1027500000F088FC06466D1CFF2E01D0A542F7D381
:10276000A54201D2002600E03026FF2000F06CFCDC
:1027700000F098FC3046BDE8F0811CB5002101A8AE
:10278000FFF7F1FE6B46022201A92620FFF78EFE1D
:1027900004460CB120461CBD0220FFF7CBFF08B158
:1027A0003320F8E70020F6E7FEB506460D46002088
:1027B00002906B46042202A93A20FFF777FE0446F6
:1027C0000CB12046FEBD9DF8000008B11220F9E7CB
:1027D000002405E0601C1DF800002855601CC4B2F0
:1027E000042CF7DB0020EDE72DE9F04106460F460B
:1027F00000245C48D0F8108000F04EFC00BF00F0D0
:1028000031FC0546641CFF2D01D14445F7D34445F6
:1028100004D300F047FC3120BDE8F081FE2D06D046
:10282000FF2000F011FC00F03DFC2120F4E7002423
:1028300003E000F017FC3855641CB442F9D300F0F3
:1028400011FC044600F00EFC00EB0424FF2000F015
:10285000FBFB00F027FC0020DEE77CB505460020EE
:1028600001906B46012201A93720FFF71FFE0446A5
:102870000CB120467CBD9DF8000008B11220F9E79C
:102880006B46012201A91620FFF710FE04460CB189
:102890002046EFE79DF8000008B11220EAE701A901
:1028A0000420FFF7A1FF04460CB12046E2E79DF8A3
:1028B000040000069DF8051000EB01409DF806108D
:1028C00000EB01209DF80710084428600020D1E7A4
:1028D0002DE9F04105460E46174600F0DDFBFF20CE
:1028E00000F0B2FB012D03D1FC2000F0ADFB02E0B3
:1028F000FE2000F0A9FB002404E0385D00F0A4FBFA
:10290000601C84B2B442F8D3200A00F09DFBE0B210
:1029100000F09AFB00F0A6FB804600F0C3FB01200C
:10292000FFF708FF10B13220BDE8F0810020FBE77F
:1029300010B500F0B1FBFF2000F086FBFD2000F099
:1029400083FB00F08FFB00F0ADFB10BD70B50446BB
:10295000002504E0FF2000F077FB681CC5B2A5420B
:10296000F8DB70BD9C09002000BF0100A0F1010050
:10297000FBD17047704770B50146FA48FA4E306196
:10298000FA487061B061487800F007044878C0F3F5
:10299000C303087BC0F382050BB9032070BDF44864
:1029A000C05CF44E70430A2690FBF6F0F24E56F8E7
:1029B0002460B0FBF6F2887800EBC00606EB00104E
:1029C00002EB8002E8480261EC48405D5043E64E6D
:1029D000706130460078F0B9304600696426704373
:1029E000C008E14E30613046406964267043C0083B
:1029F000DD4E706130460069DA4EB04202D9304691
:102A0000D94E3061D8484069D84EB04212D93046CC
:102A1000D54E70610EE0D448006900EB8000C0F331
:102A20009C00D14E30613046406900EB8000C0F31D
:102A30009C007061CC484069CB4EB0610020ADE78E
:102A40007FB569461020FFF7EDFD054615B1284614
:102A500004B070BD6846FFF78EFF9DF8050000F0DA
:102A60000F0101208840C04988609DF8060080075A
:102A7000000D9DF8071000EB81009DF8081000EB99
:102A80009110401CB84948609DF809008007400F2C
:102A90009DF80A1000EBD110841CB3484068012156
:102AA000A1404843B04948600846007801280FD14A
:102AB0009DF80A00C0F38400441C9DF80A008007BA
:102AC000C00E9DF80B1000EB5110401C444308E071
:102AD0009DF80A008006400E9DF80B1000EBD11007
:102AE000441CA148C4600020B2E73EB5002002901B
:102AF00000256B46012202A93720FFF7D7FC0446C8
:102B00000CB120463EBD6B46012202A92920FFF7E9
:102B1000CDFC04460CB10620F4E79DF8000010F04F
:102B2000FE0F03D100209049087002E001208E4979
:102B300008700020E6E7704738B5FFF7FCFF00F0AB
:102B40002BFA00F0B5FA012801D0012430E000F0A2
:102B5000A3FAC820FFF7FAFE00F0A4FA0420FFF75A
:102B6000F5FE8748FFF700FFFFF721FD044604B19B
:102B70001EE0FFF7BAFF044604B119E069460420DD
:102B8000FFF712FE044604B112E09DF8010000F0C8
:102B90003000302801D004240AE0FFF751FF04463A
:102BA00004B105E0FFF7E6FE00F026FA002038BD8C
:102BB000FFF7E0FE2046FAE72DE9F04105460E4614
:102BC0001746FFF7B8FF00F073FA012804D0FFF7AB
:102BD000D1FE0120BDE8F08163484068A84203D2DD
:102BE000FFF7C8FE0520F5E72846FFF761FD04461C
:102BF0001CB1FFF7BFFE2046ECE739463046FFF731
:102C0000F3FD0446FFF7B6FE2046E3E72DE9F04169
:102C100080460D461646FFF78EFF00F049FA012860
:102C200004D0FFF7A7FE0120BDE8F08108EB050006
:102C30004D494968884203D9FFF79CFE0520F3E718
:102C40004046FFF73DFD04461CB1FFF793FE2046CA
:102C5000EAE700270EE031464FF40070FFF7C4FDAD
:102C6000044614B906F5007603E0FFF783FE20461C
:102C7000DAE77F1CAF42EED3FFF7EDFC0446FFF727
:102C800079FE2046D0E7F8B505460E461746FFF711
:102C900052FF00F00DFA012803D0FFF76BFE012070
:102CA000F8BD31484068A84203D2FFF763FE052013
:102CB000F6E700F0FFF9012803D1FFF75BFE4220A1
:102CC000EEE72846FFF704FD04461CB1FFF752FE6D
:102CD0002046E5E73A4631460020FFF7F9FD044675
:102CE00094B969460220FFF7C0FC04461CB1FFF707
:102CF00041FE2046D4E79DF8000010B99DF8010080
:102D000010B1FFF737FE4024FFF734FE2046C7E737
:102D10002DE9FC4106460D461746FFF70CFF00F073
:102D2000C7F9012804D0FFF725FE0120BDE8FC818A
:102D300070190D494968884203D9FFF71BFE052029
:102D4000F4E700F0B7F9012803D1FFF713FE4220A2
:102D5000ECE73046FFF7C4FC04469CB1FFF70AFEDF
:102D60002046E3E774B701009C0900207C19FCFFB2
:102D7000843200084054890064320008943200080C
:102D800040420F000020019016E03A464FF40071D7
:102D90000120FFF79DFD044614B907F5007708E010
:102DA000FFF759FC0120FFF7C5FCFFF7E3FD2046C4
:102DB000BCE70198401C01900198A842E5D3FFF7B9
:102DC000B7FD0120FFF7B6FC04461CB1FFF7D2FDAA
:102DD0003220ABE74A48007868B901A8FFF73DFD0B
:102DE00004461CB1FFF7C6FD20469FE70198A842A4
:102DF00012D0412410E069460220FFF736FC044659
:102E00001CB1FFF7B7FD204690E79DF8000010B910
:102E10009DF8010000B14024FFF7ACFD204685E796
:102E20002DE9F04106460C46FFF785FE00F040F91B
:102E3000012804D0FFF79EFD0120BDE8F081301984
:102E40002F494968884203D9FFF794FD0520F4E72C
:102E500000F030F9012803D1FFF78CFD4220ECE7A8
:102E60002748C068271A25E03046FFF741FC054691
:102E70001DB1FFF77FFD2846DFE72149C9683144CE
:102E8000481EFFF746FC05461DB1FFF773FD2846B7
:102E9000D3E7FFF772FC05461DB1FFF76BFD28462F
:102EA000CBE71748C06806441548C068241A144880
:102EB000C068271A002FD7DAD4B13046FFF718FCC4
:102EC00005461DB1FFF756FD2846B6E73119481EE5
:102ED000FFF71FFC05461DB1FFF74CFD2846ACE788
:102EE000FFF74BFC05461DB1FFF744FD2846A4E75C
:102EF000FFF740FD0020A0E74FF40070704700008E
:102F00009C09002000B587B001215420FDF7E6FAA6
:102F100001210803FDF7E2FAE020ADF818000320D4
:102F20008DF81A0018208DF81B0006A96248FDF7DD
:102F300049FD1020ADF8180003208DF81A0010206C
:102F40008DF81B0006A95C48FDF73CFD0020ADF89C
:102F500004004FF48270ADF806000020ADF80800C0
:102F60000220ADF80A000120ADF80C004002ADF8D7
:102F70000E003020ADF810000020ADF81200072040
:102F8000ADF8140001A94D48FDF760FB01214B4845
:102F9000FDF7F9FB07B000BD10B5FFF7B3FF102137
:102FA0004548FDF7BAFD10BD00B585B00020ADF86D
:102FB00000004FF48270ADF802000020ADF804006C
:102FC0000220ADF806000120ADF808004002ADF87F
:102FD0000A003020ADF80C000020ADF80E000720EC
:102FE000ADF8100069463548FDF730FB0121334844
:102FF000FDF7C9FB05B000BD00B585B00020ADF8F8
:1030000000004FF48270ADF802000020ADF804001B
:103010000220ADF806000120ADF808004002ADF82E
:103020000A000820ADF80C000020ADF80E000720C3
:10303000ADF8100069462148FDF708FB01211F4843
:10304000FDF7A1FB05B000BD10B5044600BF02218D
:103050001A48FDF71CFC0028F9D021461748FDF757
:10306000C3FB10BD10B5002400BF02211348FDF7BB
:103070000EFC0028F9D0FF211048FDF7B5FB00BF7A
:1030800001210E48FDF703FC0028F9D00B48FDF79D
:10309000ADFBC4B2204610BD10B510210648FDF7A7
:1030A0003EFD10BD10B510210348FDF736FD10BDE3
:1030B00001207047002070470008014000300140A7
:1030C00010B5FF24FFF738FD0446204610BD70B54B
:1030D00004460D46FF2629462046FFF7A1FE064678
:1030E000304670BD2DE9F04104460D461646FF27D7
:1030F000224631462846FFF7C6FD07463846BDE85A
:10310000F0812DE9F04104460D461646FF27224680
:1031100031462846FFF750FD07463846BDE8F081A6
:103120002DE9F04104460D46164600274FF0FF08F2
:10313000770A224639462846FFF7EAFD8046404690
:10314000BDE8F0812DE9F04104460D461646002702
:103150004FF0FF08770A224639462846FFF756FD0A
:1031600080464046BDE8F08100200849087889681B
:10317000074A116005494968064A1160044909680F
:1031800012685143044A1160704700009C090020F6
:103190002C010020300100202801002010B5431C24
:1031A00002E010F8011B71B18107FAD14FF0013232
:1031B00002C88C1A8C4314EAC211F9D0C01A0A064C
:1031C00003D0C01E10BDC01A10BD0A0401D0801E5D
:1031D00010BD0902FCD0401E10BD704770477047FB
:1031E000754600F029F8AE4605006946534620F0C2
:1031F0000700854618B020B5FEF746FBBDE8204025
:103200004FF000064FF000074FF000084FF0000BA2
:1032100021F00701AC46ACE8C009ACE8C009ACE855
:10322000C009ACE8C0098D4670470446AFF3008082
:103230002046FCF7E4FF000000487047B809002072
:1032400001491820ABBEFEE72600020070470000CF
:103250000000010203040102030406070809020436
:103260000608000000CA9A3B00E1F5058096980028
:1032700040420F00A086010010270000E803000074
:1032800064000000000A0C0D0F14191E23282D32B3
:10329000373C46500102040810204080BC32000830
:1032A00000000020340100006C01000858330008C1
:1032B00034010020E4100000C8010008011C0217BE
:1032C00003102A576972656C6573732064617461B9
:1032D000207472616E736D6974696F6E20746573AA
:1032E0007420636F6D706C6574656440FC47505367
:1032F00014FE636C6F636B16DC414C4C14181B2C72
:103300007761697420666F72206C61756E6368699D
:103310006E67207369676E616C58100F6F212047CC
:103320006F6F64204C75636B21408817546865206B
:10333000706172616368757465206973206F706570
:103340006E40A959A48A73A5BD6661696CA2691112
:08335000999F691301100000B0
:040000050800188552
:00000001FF
